{
  "_format": "hh-sol-artifact-1",
  "contractName": "Dbanta",
  "sourceName": "contracts/dbanta.sol",
  "abi": [
    {
      "inputs": [
        {
          "internalType": "address",
          "name": "_nft",
          "type": "address"
        }
      ],
      "stateMutability": "nonpayable",
      "type": "constructor"
    },
    {
      "anonymous": false,
      "inputs": [
        {
          "indexed": false,
          "internalType": "address payable",
          "name": "author",
          "type": "address"
        },
        {
          "indexed": false,
          "internalType": "uint256",
          "name": "userid",
          "type": "uint256"
        },
        {
          "indexed": false,
          "internalType": "uint256",
          "name": "bantid",
          "type": "uint256"
        },
        {
          "indexed": false,
          "internalType": "string",
          "name": "hashtag",
          "type": "string"
        },
        {
          "indexed": false,
          "internalType": "uint256",
          "name": "tipVote",
          "type": "uint256"
        }
      ],
      "name": "BantCreated",
      "type": "event"
    },
    {
      "anonymous": false,
      "inputs": [
        {
          "indexed": false,
          "internalType": "uint256",
          "name": "id",
          "type": "uint256"
        },
        {
          "indexed": false,
          "internalType": "string",
          "name": "hashtag",
          "type": "string"
        }
      ],
      "name": "BantDeleted",
      "type": "event"
    },
    {
      "anonymous": false,
      "inputs": [
        {
          "indexed": false,
          "internalType": "uint256",
          "name": "id",
          "type": "uint256"
        }
      ],
      "name": "BantEdited",
      "type": "event"
    },
    {
      "anonymous": false,
      "inputs": [
        {
          "indexed": false,
          "internalType": "uint256",
          "name": "bantId",
          "type": "uint256"
        },
        {
          "indexed": false,
          "internalType": "address",
          "name": "user",
          "type": "address"
        }
      ],
      "name": "BantLiked",
      "type": "event"
    },
    {
      "anonymous": false,
      "inputs": [
        {
          "indexed": false,
          "internalType": "uint256",
          "name": "bantId",
          "type": "uint256"
        },
        {
          "indexed": false,
          "internalType": "address",
          "name": "user",
          "type": "address"
        }
      ],
      "name": "BantMinted",
      "type": "event"
    },
    {
      "anonymous": false,
      "inputs": [
        {
          "indexed": false,
          "internalType": "uint256",
          "name": "bantId",
          "type": "uint256"
        },
        {
          "indexed": false,
          "internalType": "address",
          "name": "user",
          "type": "address"
        }
      ],
      "name": "BantUnliked",
      "type": "event"
    },
    {
      "anonymous": false,
      "inputs": [
        {
          "indexed": false,
          "internalType": "address payable",
          "name": "author",
          "type": "address"
        },
        {
          "indexed": false,
          "internalType": "uint256",
          "name": "userid",
          "type": "uint256"
        },
        {
          "indexed": false,
          "internalType": "uint256",
          "name": "bantid",
          "type": "uint256"
        },
        {
          "indexed": false,
          "internalType": "uint256",
          "name": "tipVote",
          "type": "uint256"
        }
      ],
      "name": "BantVoted",
      "type": "event"
    },
    {
      "anonymous": false,
      "inputs": [
        {
          "indexed": false,
          "internalType": "address",
          "name": "user",
          "type": "address"
        },
        {
          "indexed": false,
          "internalType": "address",
          "name": "follower",
          "type": "address"
        }
      ],
      "name": "NewFollower",
      "type": "event"
    },
    {
      "anonymous": false,
      "inputs": [
        {
          "indexed": false,
          "internalType": "address",
          "name": "user",
          "type": "address"
        },
        {
          "indexed": false,
          "internalType": "uint256",
          "name": "id",
          "type": "uint256"
        }
      ],
      "name": "UserBanned",
      "type": "event"
    },
    {
      "anonymous": false,
      "inputs": [
        {
          "indexed": false,
          "internalType": "address",
          "name": "user",
          "type": "address"
        },
        {
          "indexed": false,
          "internalType": "uint256",
          "name": "id",
          "type": "uint256"
        }
      ],
      "name": "UserRegistered",
      "type": "event"
    },
    {
      "anonymous": false,
      "inputs": [
        {
          "indexed": false,
          "internalType": "uint256",
          "name": "rebantid",
          "type": "uint256"
        },
        {
          "indexed": false,
          "internalType": "uint256",
          "name": "bantid",
          "type": "uint256"
        },
        {
          "indexed": false,
          "internalType": "address",
          "name": "user",
          "type": "address"
        }
      ],
      "name": "logRebantCreated",
      "type": "event"
    },
    {
      "stateMutability": "nonpayable",
      "type": "fallback"
    },
    {
      "inputs": [],
      "name": "bantCount",
      "outputs": [
        {
          "internalType": "uint256",
          "name": "",
          "type": "uint256"
        }
      ],
      "stateMutability": "view",
      "type": "function"
    },
    {
      "inputs": [
        {
          "internalType": "uint256",
          "name": "_id",
          "type": "uint256"
        }
      ],
      "name": "bantLikes",
      "outputs": [
        {
          "internalType": "uint256",
          "name": "",
          "type": "uint256"
        }
      ],
      "stateMutability": "view",
      "type": "function"
    },
    {
      "inputs": [
        {
          "internalType": "address payable",
          "name": "_newOwner",
          "type": "address"
        }
      ],
      "name": "changeOwner",
      "outputs": [],
      "stateMutability": "nonpayable",
      "type": "function"
    },
    {
      "inputs": [
        {
          "internalType": "string",
          "name": "_username",
          "type": "string"
        }
      ],
      "name": "changeUsername",
      "outputs": [],
      "stateMutability": "nonpayable",
      "type": "function"
    },
    {
      "inputs": [
        {
          "internalType": "string",
          "name": "_hashtag",
          "type": "string"
        },
        {
          "internalType": "string",
          "name": "_content",
          "type": "string"
        },
        {
          "internalType": "string",
          "name": "_imghash",
          "type": "string"
        }
      ],
      "name": "createBant",
      "outputs": [],
      "stateMutability": "nonpayable",
      "type": "function"
    },
    {
      "inputs": [
        {
          "internalType": "uint256",
          "name": "_bantid",
          "type": "uint256"
        },
        {
          "internalType": "string",
          "name": "_comment",
          "type": "string"
        }
      ],
      "name": "createComment",
      "outputs": [],
      "stateMutability": "nonpayable",
      "type": "function"
    },
    {
      "inputs": [
        {
          "internalType": "uint256",
          "name": "_id",
          "type": "uint256"
        }
      ],
      "name": "deleteBant",
      "outputs": [],
      "stateMutability": "nonpayable",
      "type": "function"
    },
    {
      "inputs": [
        {
          "internalType": "uint256",
          "name": "_id",
          "type": "uint256"
        }
      ],
      "name": "deleteComment",
      "outputs": [],
      "stateMutability": "nonpayable",
      "type": "function"
    },
    {
      "inputs": [
        {
          "internalType": "uint256",
          "name": "_id",
          "type": "uint256"
        },
        {
          "internalType": "string",
          "name": "_hashtag",
          "type": "string"
        },
        {
          "internalType": "string",
          "name": "_content",
          "type": "string"
        },
        {
          "internalType": "string",
          "name": "_imghash",
          "type": "string"
        }
      ],
      "name": "editBant",
      "outputs": [],
      "stateMutability": "nonpayable",
      "type": "function"
    },
    {
      "inputs": [
        {
          "internalType": "uint256",
          "name": "_commentid",
          "type": "uint256"
        },
        {
          "internalType": "string",
          "name": "_comment",
          "type": "string"
        }
      ],
      "name": "editComment",
      "outputs": [],
      "stateMutability": "nonpayable",
      "type": "function"
    },
    {
      "inputs": [
        {
          "internalType": "address",
          "name": "_person",
          "type": "address"
        }
      ],
      "name": "followUser",
      "outputs": [],
      "stateMutability": "nonpayable",
      "type": "function"
    },
    {
      "inputs": [],
      "name": "getBalance",
      "outputs": [
        {
          "internalType": "uint256",
          "name": "balance",
          "type": "uint256"
        }
      ],
      "stateMutability": "view",
      "type": "function"
    },
    {
      "inputs": [
        {
          "internalType": "uint256",
          "name": "_id",
          "type": "uint256"
        }
      ],
      "name": "getBant",
      "outputs": [
        {
          "internalType": "address",
          "name": "author",
          "type": "address"
        },
        {
          "internalType": "string",
          "name": "hashtag",
          "type": "string"
        },
        {
          "internalType": "string",
          "name": "content",
          "type": "string"
        },
        {
          "internalType": "string",
          "name": "imgHash",
          "type": "string"
        },
        {
          "internalType": "uint256",
          "name": "timestamp",
          "type": "uint256"
        },
        {
          "internalType": "uint256",
          "name": "likeCount",
          "type": "uint256"
        }
      ],
      "stateMutability": "view",
      "type": "function"
    },
    {
      "inputs": [
        {
          "internalType": "uint256",
          "name": "_id",
          "type": "uint256"
        }
      ],
      "name": "getBantComments",
      "outputs": [
        {
          "internalType": "uint256[]",
          "name": "list",
          "type": "uint256[]"
        }
      ],
      "stateMutability": "view",
      "type": "function"
    },
    {
      "inputs": [
        {
          "internalType": "uint256",
          "name": "_id",
          "type": "uint256"
        }
      ],
      "name": "getComment",
      "outputs": [
        {
          "internalType": "address",
          "name": "author",
          "type": "address"
        },
        {
          "internalType": "uint256",
          "name": "bantId",
          "type": "uint256"
        },
        {
          "internalType": "string",
          "name": "content",
          "type": "string"
        },
        {
          "internalType": "uint256",
          "name": "likeCount",
          "type": "uint256"
        },
        {
          "internalType": "uint256",
          "name": "timestamp",
          "type": "uint256"
        },
        {
          "internalType": "enum Dbanta.cdStatus",
          "name": "status",
          "type": "uint8"
        }
      ],
      "stateMutability": "view",
      "type": "function"
    },
    {
      "inputs": [],
      "name": "getTotalUserBants",
      "outputs": [
        {
          "internalType": "uint256",
          "name": "",
          "type": "uint256"
        }
      ],
      "stateMutability": "view",
      "type": "function"
    },
    {
      "inputs": [
        {
          "internalType": "address",
          "name": "_user",
          "type": "address"
        }
      ],
      "name": "getUser",
      "outputs": [
        {
          "internalType": "uint256",
          "name": "id",
          "type": "uint256"
        },
        {
          "internalType": "string",
          "name": "username",
          "type": "string"
        },
        {
          "internalType": "string",
          "name": "name",
          "type": "string"
        },
        {
          "internalType": "string",
          "name": "imghash",
          "type": "string"
        },
        {
          "internalType": "string",
          "name": "coverhash",
          "type": "string"
        },
        {
          "internalType": "string",
          "name": "bio",
          "type": "string"
        }
      ],
      "stateMutability": "view",
      "type": "function"
    },
    {
      "inputs": [
        {
          "internalType": "uint256",
          "name": "_id",
          "type": "uint256"
        }
      ],
      "name": "getUserAddressById",
      "outputs": [
        {
          "internalType": "address",
          "name": "_addr",
          "type": "address"
        }
      ],
      "stateMutability": "view",
      "type": "function"
    },
    {
      "inputs": [
        {
          "internalType": "address",
          "name": "_user",
          "type": "address"
        }
      ],
      "name": "getUserBants",
      "outputs": [
        {
          "internalType": "uint256[]",
          "name": "bantList",
          "type": "uint256[]"
        }
      ],
      "stateMutability": "view",
      "type": "function"
    },
    {
      "inputs": [
        {
          "internalType": "uint256",
          "name": "_id",
          "type": "uint256"
        }
      ],
      "name": "getUserById",
      "outputs": [
        {
          "internalType": "uint256",
          "name": "id",
          "type": "uint256"
        },
        {
          "internalType": "string",
          "name": "username",
          "type": "string"
        },
        {
          "internalType": "string",
          "name": "name",
          "type": "string"
        },
        {
          "internalType": "string",
          "name": "imgHash",
          "type": "string"
        },
        {
          "internalType": "string",
          "name": "coverHash",
          "type": "string"
        },
        {
          "internalType": "string",
          "name": "bio",
          "type": "string"
        }
      ],
      "stateMutability": "view",
      "type": "function"
    },
    {
      "inputs": [
        {
          "internalType": "address",
          "name": "_user",
          "type": "address"
        }
      ],
      "name": "getUserComments",
      "outputs": [
        {
          "internalType": "uint256[]",
          "name": "commentList",
          "type": "uint256[]"
        }
      ],
      "stateMutability": "view",
      "type": "function"
    },
    {
      "inputs": [],
      "name": "getUserComments",
      "outputs": [
        {
          "internalType": "uint256[]",
          "name": "commentList",
          "type": "uint256[]"
        }
      ],
      "stateMutability": "view",
      "type": "function"
    },
    {
      "inputs": [
        {
          "internalType": "uint256",
          "name": "_id",
          "type": "uint256"
        }
      ],
      "name": "likeBant",
      "outputs": [],
      "stateMutability": "nonpayable",
      "type": "function"
    },
    {
      "inputs": [
        {
          "internalType": "uint256",
          "name": "_id",
          "type": "uint256"
        }
      ],
      "name": "mintBant",
      "outputs": [],
      "stateMutability": "nonpayable",
      "type": "function"
    },
    {
      "inputs": [],
      "name": "nft",
      "outputs": [
        {
          "internalType": "contract IDbantaNFT",
          "name": "",
          "type": "address"
        }
      ],
      "stateMutability": "view",
      "type": "function"
    },
    {
      "inputs": [],
      "name": "owner",
      "outputs": [
        {
          "internalType": "address",
          "name": "",
          "type": "address"
        }
      ],
      "stateMutability": "view",
      "type": "function"
    },
    {
      "inputs": [
        {
          "internalType": "uint256",
          "name": "_id",
          "type": "uint256"
        }
      ],
      "name": "rebantusersbant",
      "outputs": [
        {
          "internalType": "uint256",
          "name": "",
          "type": "uint256"
        }
      ],
      "stateMutability": "nonpayable",
      "type": "function"
    },
    {
      "inputs": [
        {
          "internalType": "string",
          "name": "_username",
          "type": "string"
        },
        {
          "internalType": "string",
          "name": "_name",
          "type": "string"
        },
        {
          "internalType": "string",
          "name": "_imgHash",
          "type": "string"
        },
        {
          "internalType": "string",
          "name": "_coverHash",
          "type": "string"
        },
        {
          "internalType": "string",
          "name": "_bio",
          "type": "string"
        }
      ],
      "name": "register",
      "outputs": [],
      "stateMutability": "nonpayable",
      "type": "function"
    },
    {
      "inputs": [
        {
          "internalType": "address",
          "name": "_user",
          "type": "address"
        },
        {
          "internalType": "string",
          "name": "_username",
          "type": "string"
        },
        {
          "internalType": "string",
          "name": "_name",
          "type": "string"
        },
        {
          "internalType": "string",
          "name": "_imgHash",
          "type": "string"
        },
        {
          "internalType": "string",
          "name": "_coverHash",
          "type": "string"
        },
        {
          "internalType": "string",
          "name": "_bio",
          "type": "string"
        }
      ],
      "name": "registerUser",
      "outputs": [],
      "stateMutability": "nonpayable",
      "type": "function"
    },
    {
      "inputs": [],
      "name": "startDapp",
      "outputs": [],
      "stateMutability": "nonpayable",
      "type": "function"
    },
    {
      "inputs": [],
      "name": "stopDapp",
      "outputs": [],
      "stateMutability": "nonpayable",
      "type": "function"
    },
    {
      "inputs": [],
      "name": "stopped",
      "outputs": [
        {
          "internalType": "bool",
          "name": "",
          "type": "bool"
        }
      ],
      "stateMutability": "view",
      "type": "function"
    },
    {
      "inputs": [
        {
          "internalType": "uint256",
          "name": "_id",
          "type": "uint256"
        }
      ],
      "name": "tipPost",
      "outputs": [],
      "stateMutability": "payable",
      "type": "function"
    },
    {
      "inputs": [],
      "name": "totalBants",
      "outputs": [
        {
          "internalType": "uint256",
          "name": "",
          "type": "uint256"
        }
      ],
      "stateMutability": "view",
      "type": "function"
    },
    {
      "inputs": [],
      "name": "totalComments",
      "outputs": [
        {
          "internalType": "uint256",
          "name": "",
          "type": "uint256"
        }
      ],
      "stateMutability": "view",
      "type": "function"
    },
    {
      "inputs": [],
      "name": "totalRebants",
      "outputs": [
        {
          "internalType": "uint256",
          "name": "",
          "type": "uint256"
        }
      ],
      "stateMutability": "view",
      "type": "function"
    },
    {
      "inputs": [],
      "name": "totalUsers",
      "outputs": [
        {
          "internalType": "uint256",
          "name": "",
          "type": "uint256"
        }
      ],
      "stateMutability": "view",
      "type": "function"
    },
    {
      "inputs": [
        {
          "internalType": "uint256",
          "name": "_amount",
          "type": "uint256"
        }
      ],
      "name": "transferContractBalance",
      "outputs": [],
      "stateMutability": "nonpayable",
      "type": "function"
    },
    {
      "inputs": [
        {
          "internalType": "uint256",
          "name": "_id",
          "type": "uint256"
        }
      ],
      "name": "unlikeBant",
      "outputs": [],
      "stateMutability": "nonpayable",
      "type": "function"
    },
    {
      "inputs": [
        {
          "internalType": "uint256",
          "name": "_id",
          "type": "uint256"
        },
        {
          "internalType": "address",
          "name": "_user",
          "type": "address"
        }
      ],
      "name": "userLikesBant",
      "outputs": [
        {
          "internalType": "bool",
          "name": "",
          "type": "bool"
        }
      ],
      "stateMutability": "view",
      "type": "function"
    },
    {
      "inputs": [
        {
          "internalType": "address",
          "name": "_useraddr",
          "type": "address"
        }
      ],
      "name": "userStatus",
      "outputs": [
        {
          "internalType": "enum Dbanta.accountStatus",
          "name": "status",
          "type": "uint8"
        }
      ],
      "stateMutability": "view",
      "type": "function"
    },
    {
      "inputs": [
        {
          "internalType": "string",
          "name": "_username",
          "type": "string"
        }
      ],
      "name": "usernameAvailable",
      "outputs": [
        {
          "internalType": "bool",
          "name": "status",
          "type": "bool"
        }
      ],
      "stateMutability": "view",
      "type": "function"
    }
  ],
  "bytecode": "0x60806040526000805460ff60a01b1916815560018190556003819055600481905560058190556006553480156200003557600080fd5b5060405162004cc638038062004cc683398101604081905262000058916200061e565b60008054336001600160a01b0319918216178255600280549091166001600160a01b03841617905560408051808201825260058082526437bbb732b960d91b6020808401829052845180860186528381528082018390528551808301875287815286518084018852978852865180880190975293865290850191909152620000e5949293909290620000ec565b5062000701565b600054600160a01b900460ff16156200014c5760405162461bcd60e51b815260206004820152601660248201527f4461707020686173206265656e2073746f70706564210000000000000000000060448201526064015b60405180910390fd5b3360008181526007602052604081206008015460ff16600281111562000176576200017662000649565b14620001c55760405162461bcd60e51b815260206004820152601760248201527f5573657220616c72656164792072656769737465726564000000000000000000604482015260640162000143565b85600a81604051620001d891906200065f565b9081526040519081900360200190205460ff16156200023a5760405162461bcd60e51b815260206004820152601660248201527f557365726e616d6520616c72656164792074616b656e00000000000000000000604482015260640162000143565b6200024a33888888888862000253565b50505050505050565b6001600a866040516200026791906200065f565b908152602001604051809103902060006101000a81548160ff021916908315150217905550620002a96001600554620004b660201b6200357e1790919060201c565b600581905560408051610120810182528281526001600160a01b03898116602080840182815260608587018181528187018e9052608087018d905260a087018c905260c087018b905260e087018a90526000610100880181905294855260078452969093208551815590516001820180546001600160a01b0319169190951617909355935180519194620003469260028501929091019062000520565b5060608201518051620003649160038401916020909101906200058a565b5060808201518051620003829160048401916020909101906200058a565b5060a08201518051620003a09160058401916020909101906200058a565b5060c08201518051620003be9160068401916020909101906200058a565b5060e08201518051620003dc9160078401916020909101906200058a565b5061010082015160088201805460ff1916600183600281111562000404576200040462000649565b021790555050506000828152600860205260409081902080546001600160a01b0319166001600160a01b038b1617905551889060099062000447908a906200065f565b908152604080516020928190038301812080546001600160a01b0319166001600160a01b03958616179055600554938c168152918201929092527fe29d35093005f4d575e1003753426b57a7f64378ba73332eef9c6ccc2b8decd6910160405180910390a15050505050505050565b600080620004c583856200069d565b905083811015620005195760405162461bcd60e51b815260206004820152601b60248201527f536166654d6174683a206164646974696f6e206f766572666c6f770000000000604482015260640162000143565b9392505050565b82805482825590600052602060002090810192821562000578579160200282015b828111156200057857825182546001600160a01b0319166001600160a01b0390911617825560209092019160019091019062000541565b506200058692915062000607565b5090565b8280546200059890620006c4565b90600052602060002090601f016020900481019282620005bc576000855562000578565b82601f10620005d757805160ff191683800117855562000578565b8280016001018555821562000578579182015b8281111562000578578251825591602001919060010190620005ea565b5b8082111562000586576000815560010162000608565b6000602082840312156200063157600080fd5b81516001600160a01b03811681146200051957600080fd5b634e487b7160e01b600052602160045260246000fd5b6000825160005b8181101562000682576020818601810151858301520162000666565b8181111562000692576000828501525b509190910192915050565b60008219821115620006bf57634e487b7160e01b600052601160045260246000fd5b500190565b600181811c90821680620006d957607f821691505b60208210811415620006fb57634e487b7160e01b600052602260045260246000fd5b50919050565b6145b580620007116000396000f3fe6080604052600436106102d15760003560e01c806374d3c1f81161017957806395d2cc92116100d6578063b9394ad41161008a578063c039b58411610064578063c039b58414610850578063ef2f030d14610870578063ff99fa1f14610890576102d1565b8063b9394ad414610804578063beee20dc1461081a578063bff1f9e11461083a576102d1565b8063a6f9dae1116100bb578063a6f9dae1146107a4578063a70806f7146107c4578063ad816029146107e4576102d1565b806395d2cc921461076f5780639962034814610784576102d1565b806377c846af1161012d578063818552d911610112578063818552d9146106e95780638a03ad86146107195780638da5cb5b1461074f576102d1565b806377c846af146106a95780637d0b1026146106c9576102d1565b806374ebaadc1161015e57806374ebaadc1461063657806375f12b2114610656578063764a614a14610677576102d1565b806374d3c1f81461060357806374dfaa8214610616576102d1565b806339629a36116102325780635a09007b116101e65780636ed6da9e116101c05780636ed6da9e1461059c5780636f77926b146105ce578063719b741d146105ee576102d1565b80635a09007b1461054457806360a4e4271461056457806361936b8114610586576102d1565b806347ccca021161021757806347ccca02146104965780635020ab8a146104ce57806354b1607a146104ee576102d1565b806339629a361461045657806340a1798514610476576102d1565b80632b27465b11610289578063325d748e1161026e578063325d748e1461040157806333aa01e91461042157806335075ff014610436576102d1565b80632b27465b146103be5780632b3c6e22146103d4576102d1565b80630800e300116102ba5780630800e3001461032e57806312065fe014610360578063225d29a114610375576102d1565b806305c703e6146102e357806307428a8914610305575b3480156102dd57600080fd5b50600080fd5b3480156102ef57600080fd5b506103036102fe366004613cee565b6108b0565b005b34801561031157600080fd5b5061031b60065481565b6040519081526020015b60405180910390f35b34801561033a57600080fd5b5061034e610349366004613cee565b610a6d565b60405161032596959493929190613d93565b34801561036c57600080fd5b5061031b610c3b565b34801561038157600080fd5b506103b1610390366004613e08565b6001600160a01b031660009081526007602052604090206008015460ff1690565b6040516103259190613e25565b3480156103ca57600080fd5b5061031b60035481565b3480156103e057600080fd5b506103f46103ef366004613e08565b610c90565b6040516103259190613e38565b34801561040d57600080fd5b506103f461041c366004613e08565b610d63565b34801561042d57600080fd5b50610303610e33565b34801561044257600080fd5b50610303610451366004613f1f565b610ef1565b34801561046257600080fd5b506103f4610471366004613cee565b61109c565b34801561048257600080fd5b50610303610491366004614000565b6111ce565b3480156104a257600080fd5b506002546104b6906001600160a01b031681565b6040516001600160a01b039091168152602001610325565b3480156104da57600080fd5b5061031b6104e9366004613cee565b611417565b3480156104fa57600080fd5b50610534610509366004614047565b6000918252600f602090815260408084206001600160a01b0393909316845291905290205460ff1690565b6040519015158152602001610325565b34801561055057600080fd5b5061030361055f366004614077565b611618565b34801561057057600080fd5b50336000908152600c602052604090205461031b565b34801561059257600080fd5b5061031b60045481565b3480156105a857600080fd5b506105bc6105b7366004613cee565b611767565b60405161032596959493929190614149565b3480156105da57600080fd5b506105bc6105e9366004613e08565b6117a7565b3480156105fa57600080fd5b506103f46117ba565b610303610611366004613cee565b611882565b34801561062257600080fd5b50610303610631366004613cee565b612035565b34801561064257600080fd5b506105346106513660046141bd565b61230e565b34801561066257600080fd5b5060005461053490600160a01b900460ff1681565b34801561068357600080fd5b50610697610692366004613cee565b61233a565b604051610325969594939291906141fa565b3480156106b557600080fd5b506103036106c43660046141bd565b61260f565b3480156106d557600080fd5b506103036106e4366004613cee565b61275b565b3480156106f557600080fd5b5061031b610704366004613cee565b6000908152600b602052604090206006015490565b34801561072557600080fd5b506104b6610734366004613cee565b6000908152600860205260409020546001600160a01b031690565b34801561075b57600080fd5b506000546104b6906001600160a01b031681565b34801561077b57600080fd5b5061030361295c565b34801561079057600080fd5b5061030361079f366004613cee565b612a13565b3480156107b057600080fd5b506103036107bf366004613e08565b612b87565b3480156107d057600080fd5b506103036107df366004613e08565b612bf8565b3480156107f057600080fd5b506103036107ff366004614000565b612c79565b34801561081057600080fd5b5061031b60015481565b34801561082657600080fd5b50610303610835366004613cee565b612e31565b34801561084657600080fd5b5061031b60055481565b34801561085c57600080fd5b5061030361086b366004613cee565b612f26565b34801561087c57600080fd5b5061030361088b366004614258565b61309e565b34801561089c57600080fd5b506103036108ab3660046142ea565b6132cb565b6000818152600b602052604090206001015481906001600160a01b031633146109165760405162461bcd60e51b8152602060048201526013602482015272596f7520617265206e6f7420417574686f722160681b60448201526064015b60405180910390fd5b6000828152600b60205260408120600301805461093290614372565b80601f016020809104026020016040519081016040528092919081815260200182805461095e90614372565b80156109ab5780601f10610980576101008083540402835291602001916109ab565b820191906000526020600020905b81548152906001019060200180831161098e57829003601f168201915b50506002546040517fd204c45e0000000000000000000000000000000000000000000000000000000081529495506001600160a01b03169363d204c45e93506109fc925033915085906004016143a7565b600060405180830381600087803b158015610a1657600080fd5b505af1158015610a2a573d6000803e3d6000fd5b5050604080518681523360208201527fc987a0b975ad7e2b67fca529121c6bf00cf38bc1e19a74287ecff6f2e194166093500190505b60405180910390a1505050565b600080606081808033816001600160a01b03821660009081526007602052604090206008015460ff166002811115610aa757610aa7613d5f565b14610ae25760405162461bcd60e51b81526020600482015260166024820152600080516020614560833981519152604482015260640161090d565b876000808281526010602052604090206006015460ff166002811115610b0a57610b0a613d5f565b14610b575760405162461bcd60e51b815260206004820152601460248201527f4e6f7420612061637469766520636f6d6d656e74000000000000000000000000604482015260640161090d565b600089815260106020526040902060018101546002820154600483015460058401546006850154600390950180546001600160a01b03909516959394909360ff16908490610ba490614372565b80601f0160208091040260200160405190810160405280929190818152602001828054610bd090614372565b8015610c1d5780601f10610bf257610100808354040283529160200191610c1d565b820191906000526020600020905b815481529060010190602001808311610c0057829003601f168201915b50505050509350975097509750975097509750505091939550919395565b600080546001600160a01b03163314610c8b5760405162461bcd60e51b8152602060048201526012602482015271596f7520617265206e6f74206f776e65722160701b604482015260640161090d565b504790565b33600081815260076020526040812060080154606092919060ff166002811115610cbc57610cbc613d5f565b14610cf75760405162461bcd60e51b81526020600482015260166024820152600080516020614560833981519152604482015260640161090d565b6001600160a01b03831660009081526011602090815260409182902080548351818402810184019094528084529091830182828015610d5557602002820191906000526020600020905b815481526020019060010190808311610d41575b505050505091505b50919050565b33600081815260076020526040812060080154606092919060ff166002811115610d8f57610d8f613d5f565b14610dca5760405162461bcd60e51b81526020600482015260166024820152600080516020614560833981519152604482015260640161090d565b6001600160a01b0383166000908152600c602090815260409182902080548351818402810184019094528084529091830182828015610d555760200282019190600052602060002090815481526020019060010190808311610d41575050505050915050919050565b6000546001600160a01b03163314610e825760405162461bcd60e51b8152602060048201526012602482015271596f7520617265206e6f74206f776e65722160701b604482015260640161090d565b600054600160a01b900460ff1615610edc5760405162461bcd60e51b815260206004820152600f60248201527f416c72656164792073746f707065640000000000000000000000000000000000604482015260640161090d565b6000805460ff60a01b1916600160a01b179055565b600054600160a01b900460ff1615610f445760405162461bcd60e51b81526020600482015260166024820152754461707020686173206265656e2073746f707065642160501b604482015260640161090d565b8560006001600160a01b03821660009081526007602052604090206008015460ff166002811115610f7757610f77613d5f565b14610fc45760405162461bcd60e51b815260206004820152601760248201527f5573657220616c72656164792072656769737465726564000000000000000000604482015260640161090d565b85600a81604051610fd591906143c9565b9081526040519081900360200190205460ff16156110355760405162461bcd60e51b815260206004820152601660248201527f557365726e616d6520616c72656164792074616b656e00000000000000000000604482015260640161090d565b6000546001600160a01b031633146110845760405162461bcd60e51b8152602060048201526012602482015271596f7520617265206e6f74206f776e65722160701b604482015260640161090d565b6110928888888888886135e4565b5050505050505050565b33600081815260076020526040812060080154606092919060ff1660028111156110c8576110c8613d5f565b146111035760405162461bcd60e51b81526020600482015260166024820152600080516020614560833981519152604482015260640161090d565b82600080828152600b60205260409020600a015460ff16600281111561112b5761112b613d5f565b1461116c5760405162461bcd60e51b8152602060048201526011602482015270139bdd0818481858dd1a5d994810985b9d607a1b604482015260640161090d565b600084815260126020908152604091829020805483518184028101840190945280845290918301828280156111c057602002820191906000526020600020905b8154815260200190600101908083116111ac575b505050505092505050919050565b600054600160a01b900460ff16156112215760405162461bcd60e51b81526020600482015260166024820152754461707020686173206265656e2073746f707065642160501b604482015260640161090d565b3360008181526007602052604081206008015460ff16600281111561124857611248613d5f565b146112835760405162461bcd60e51b81526020600482015260166024820152600080516020614560833981519152604482015260640161090d565b82600080828152600b60205260409020600a015460ff1660028111156112ab576112ab613d5f565b146112ec5760405162461bcd60e51b8152602060048201526011602482015270139bdd0818481858dd1a5d994810985b9d607a1b604482015260640161090d565b6004546112fa90600161357e565b60048190556040805160e081018252828152336020820152908101869052606081018590526000608082018190524260a083015260c082015260008281526010602090815260409182902083518155838201516001820180546001600160a01b0319166001600160a01b039092169190911790559183015160028301556060830151805161138e9260038501920190613ba9565b506080820151600482015560a0820151600582015560c082015160068201805460ff191660018360028111156113c6576113c6613d5f565b02179055505033600090815260116020908152604080832060048054825460018181018555938752858720015599845260128352908320985489549182018a55988352912001959095555050505050565b60008054600160a01b900460ff161561146b5760405162461bcd60e51b81526020600482015260166024820152754461707020686173206265656e2073746f707065642160501b604482015260640161090d565b3360008181526007602052604081206008015460ff16600281111561149257611492613d5f565b146114cd5760405162461bcd60e51b81526020600482015260166024820152600080516020614560833981519152604482015260640161090d565b6000838152600b6020526040902060018101546001600160a01b03166114f257600080fd5b600781018054906000611504836143fb565b909155505060065461151790600161357e565b600681905560408051608081018252835481526020808201848152428385019081523360608086018281526000898152600e875288812088518155865160018083019190915586516002808401919091558451600393840180546001600160a01b03199081166001600160a01b0393841617909155888652600d8c528d862080548086018255908752958c90208d5160049097020195865599519285019290925596519683019690965591519101805490951693169290921790925586548551878152938401529382015290917fab81b9ce2ed04b74dc52357e6997b479a6cea1f632b03a6f3644b5533133c07c910160405180910390a150949350505050565b600054600160a01b900460ff161561166b5760405162461bcd60e51b81526020600482015260166024820152754461707020686173206265656e2073746f707065642160501b604482015260640161090d565b3360008181526007602052604081206008015460ff16600281111561169257611692613d5f565b146116df5760405162461bcd60e51b815260206004820152601760248201527f5573657220616c72656164792072656769737465726564000000000000000000604482015260640161090d565b85600a816040516116f091906143c9565b9081526040519081900360200190205460ff16156117505760405162461bcd60e51b815260206004820152601660248201527f557365726e616d6520616c72656164792074616b656e00000000000000000000604482015260640161090d565b61175e3388888888886135e4565b50505050505050565b6000818152600860205260408120546060908190819081908190611793906001600160a01b0316613820565b949c939b5091995097509550909350915050565b6000606080606080606061179387613820565b33600081815260076020526040812060080154606092919060ff1660028111156117e6576117e6613d5f565b146118215760405162461bcd60e51b81526020600482015260166024820152600080516020614560833981519152604482015260640161090d565b336000908152601160209081526040918290208054835181840281018401909452808452909183018282801561187657602002820191906000526020600020905b815481526020019060010190808311611862575b505050505091505b5090565b60008111801561189457506001548111155b61189d57600080fd5b6000818152600b602090815260408083208151610160810183528154815260018201546001600160a01b03169381019390935260028101805491928401916118e490614372565b80601f016020809104026020016040519081016040528092919081815260200182805461191090614372565b801561195d5780601f106119325761010080835404028352916020019161195d565b820191906000526020600020905b81548152906001019060200180831161194057829003601f168201915b5050505050815260200160038201805461197690614372565b80601f01602080910402602001604051908101604052809291908181526020018280546119a290614372565b80156119ef5780601f106119c4576101008083540402835291602001916119ef565b820191906000526020600020905b8154815290600101906020018083116119d257829003601f168201915b50505050508152602001600482018054611a0890614372565b80601f0160208091040260200160405190810160405280929190818152602001828054611a3490614372565b8015611a815780601f10611a5657610100808354040283529160200191611a81565b820191906000526020600020905b815481529060010190602001808311611a6457829003601f168201915b505050918352505060058201546020820152600682015460408201526007820154606082015260088201546080820152600982015460a0820152600a82015460c09091019060ff166002811115611ada57611ada613d5f565b6002811115611aeb57611aeb613d5f565b9052503360009081526007602090815260408083208151610120810183528154815260018201546001600160a01b03168185015260028201805484518187028101870186528181529798509596919592949386019391929091830182828015611b7d57602002820191906000526020600020905b81546001600160a01b03168152600190910190602001808311611b5f575b50505050508152602001600382018054611b9690614372565b80601f0160208091040260200160405190810160405280929190818152602001828054611bc290614372565b8015611c0f5780601f10611be457610100808354040283529160200191611c0f565b820191906000526020600020905b815481529060010190602001808311611bf257829003601f168201915b50505050508152602001600482018054611c2890614372565b80601f0160208091040260200160405190810160405280929190818152602001828054611c5490614372565b8015611ca15780601f10611c7657610100808354040283529160200191611ca1565b820191906000526020600020905b815481529060010190602001808311611c8457829003601f168201915b50505050508152602001600582018054611cba90614372565b80601f0160208091040260200160405190810160405280929190818152602001828054611ce690614372565b8015611d335780601f10611d0857610100808354040283529160200191611d33565b820191906000526020600020905b815481529060010190602001808311611d1657829003601f168201915b50505050508152602001600682018054611d4c90614372565b80601f0160208091040260200160405190810160405280929190818152602001828054611d7890614372565b8015611dc55780601f10611d9a57610100808354040283529160200191611dc5565b820191906000526020600020905b815481529060010190602001808311611da857829003601f168201915b50505050508152602001600782018054611dde90614372565b80601f0160208091040260200160405190810160405280929190818152602001828054611e0a90614372565b8015611e575780601f10611e2c57610100808354040283529160200191611e57565b820191906000526020600020905b815481529060010190602001808311611e3a57829003601f168201915b5050509183525050600882015460209091019060ff166002811115611e7e57611e7e613d5f565b6002811115611e8f57611e8f613d5f565b9052506020830151604051919250906001600160a01b038216903480156108fc02916000818181858888f19350505050158015611ed0573d6000803e3d6000fd5b5034836101200151611ee29190614416565b6101208401526000848152600b602090815260409182902085518155818601516001820180546001600160a01b0319166001600160a01b03909216919091179055918501518051869392611f3d926002850192910190613ba9565b5060608201518051611f59916003840191602090910190613ba9565b5060808201518051611f75916004840191602090910190613ba9565b5060a0820151600582015560c0820151600682015560e0820151600782015561010082015160088201556101208201516009820155610140820151600a8201805460ff19166001836002811115611fce57611fce613d5f565b02179055505083518351610120860151604080516001600160a01b0387168152602081019490945283019190915260608201527f1294a2583ce04c8089508f0b8d12a6a2149062763a48f8e583e5e751d6136c1f915060800160405180910390a150505050565b80600080828152600b60205260409020600a015460ff16600281111561205d5761205d613d5f565b1461209e5760405162461bcd60e51b8152602060048201526011602482015270139bdd0818481858dd1a5d994810985b9d607a1b604482015260640161090d565b3360008181526007602052604081206008015460ff1660028111156120c5576120c5613d5f565b146121005760405162461bcd60e51b81526020600482015260166024820152600080516020614560833981519152604482015260640161090d565b600054600160a01b900460ff16156121535760405162461bcd60e51b81526020600482015260166024820152754461707020686173206265656e2073746f707065642160501b604482015260640161090d565b6000838152600b602052604090206001015483906001600160a01b031633146121b45760405162461bcd60e51b8152602060048201526013602482015272596f7520617265206e6f7420417574686f722160681b604482015260640161090d565b6000848152600b60205260409081902090517f0cff0e089582017160d1997ed1b8c7c4c8dbaef323ef3555ec873ebd8ab00384916121f79187916002019061442e565b60405180910390a16000848152600b602052604081208181556001810180546001600160a01b0319169055906122306002830182613c29565b61223e600383016000613c29565b61224c600483016000613c29565b5060006005820181905560068201819055600782018190556008820181905560098201819055600a918201805460ff19908116909155868252600b6020526040822090920180549092166002179091555b6000858152601260205260409020548110156122f05760008581526012602052604090208054829081106122d3576122d36144df565b6000918252602082200155806122e8816143fb565b91505061229d565b50600084815260126020526040812061230891613c66565b50505050565b6000600a8260405161232091906143c9565b9081526040519081900360200190205460ff161592915050565b600060608080838033816001600160a01b03821660009081526007602052604090206008015460ff16600281111561237457612374613d5f565b146123af5760405162461bcd60e51b81526020600482015260166024820152600080516020614560833981519152604482015260640161090d565b87600080828152600b60205260409020600a015460ff1660028111156123d7576123d7613d5f565b146124185760405162461bcd60e51b8152602060048201526011602482015270139bdd0818481858dd1a5d994810985b9d607a1b604482015260640161090d565b6000898152600b602052604090206001810154600582015460068301546002840180546001600160a01b03909416949093600382019360049092019290859061246090614372565b80601f016020809104026020016040519081016040528092919081815260200182805461248c90614372565b80156124d95780601f106124ae576101008083540402835291602001916124d9565b820191906000526020600020905b8154815290600101906020018083116124bc57829003601f168201915b505050505094508380546124ec90614372565b80601f016020809104026020016040519081016040528092919081815260200182805461251890614372565b80156125655780601f1061253a57610100808354040283529160200191612565565b820191906000526020600020905b81548152906001019060200180831161254857829003601f168201915b5050505050935082805461257890614372565b80601f01602080910402602001604051908101604052809291908181526020018280546125a490614372565b80156125f15780601f106125c6576101008083540402835291602001916125f1565b820191906000526020600020905b8154815290600101906020018083116125d457829003601f168201915b50505050509250975097509750975097509750505091939550919395565b600054600160a01b900460ff16156126625760405162461bcd60e51b81526020600482015260166024820152754461707020686173206265656e2073746f707065642160501b604482015260640161090d565b3360008181526007602052604081206008015460ff16600281111561268957612689613d5f565b146126c45760405162461bcd60e51b81526020600482015260166024820152600080516020614560833981519152604482015260640161090d565b81600a816040516126d591906143c9565b9081526040519081900360200190205460ff16156127355760405162461bcd60e51b815260206004820152601660248201527f557365726e616d6520616c72656164792074616b656e00000000000000000000604482015260640161090d565b336000908152600760209081526040909120845161230892600390920191860190613ba9565b600054600160a01b900460ff16156127ae5760405162461bcd60e51b81526020600482015260166024820152754461707020686173206265656e2073746f707065642160501b604482015260640161090d565b806000808281526010602052604090206006015460ff1660028111156127d6576127d6613d5f565b146128235760405162461bcd60e51b815260206004820152601460248201527f4e6f7420612061637469766520636f6d6d656e74000000000000000000000000604482015260640161090d565b3360008181526007602052604081206008015460ff16600281111561284a5761284a613d5f565b146128855760405162461bcd60e51b81526020600482015260166024820152600080516020614560833981519152604482015260640161090d565b60008381526010602052604090206001015483906001600160a01b031633146128e65760405162461bcd60e51b8152602060048201526013602482015272596f7520617265206e6f7420417574686f722160681b604482015260640161090d565b60008481526010602052604081208181556001810180546001600160a01b0319169055600281018290559061291e6003830182613c29565b50600060048201819055600582018190556006918201805460ff19908116909155958152601060205260409020018054909416600217909355505050565b6000546001600160a01b031633146129ab5760405162461bcd60e51b8152602060048201526012602482015271596f7520617265206e6f74206f776e65722160701b604482015260640161090d565b600054600160a01b900460ff16612a045760405162461bcd60e51b815260206004820152600f60248201527f416c726561647920737461727465640000000000000000000000000000000000604482015260640161090d565b6000805460ff60a01b19169055565b3360008181526007602052604081206008015460ff166002811115612a3a57612a3a613d5f565b14612a755760405162461bcd60e51b81526020600482015260166024820152600080516020614560833981519152604482015260640161090d565b81600080828152600b60205260409020600a015460ff166002811115612a9d57612a9d613d5f565b14612ade5760405162461bcd60e51b8152602060048201526011602482015270139bdd0818481858dd1a5d994810985b9d607a1b604482015260640161090d565b6000838152600f6020908152604080832033845290915290205460ff16612b0457600080fd5b6000838152600b6020526040902060060154612b21906001613b32565b6000848152600b6020908152604080832060060193909355600f81528282203380845290825291839020805460ff191690558251868152908101919091527f13c0152416d5d86e3b466e451e45b05d4fccfe34955f9f2771143301f46df5e99101610a60565b6000546001600160a01b03163314612bd65760405162461bcd60e51b8152602060048201526012602482015271596f7520617265206e6f74206f776e65722160701b604482015260640161090d565b600080546001600160a01b0319166001600160a01b0392909216919091179055565b6001600160a01b03811660008181526007602090815260408083206002810180546001810182559085529383902090930180546001600160a01b0319163390811790915581519485529184019190915290917fbccc5360a372810af9cf6fa0c5c8a2d354876747aee27b9f37399ec6cd53cf1a910160405180910390a15050565b600054600160a01b900460ff1615612ccc5760405162461bcd60e51b81526020600482015260166024820152754461707020686173206265656e2073746f707065642160501b604482015260640161090d565b3360008181526007602052604081206008015460ff166002811115612cf357612cf3613d5f565b14612d2e5760405162461bcd60e51b81526020600482015260166024820152600080516020614560833981519152604482015260640161090d565b826000808281526010602052604090206006015460ff166002811115612d5657612d56613d5f565b14612da35760405162461bcd60e51b815260206004820152601460248201527f4e6f7420612061637469766520636f6d6d656e74000000000000000000000000604482015260640161090d565b60008481526010602052604090206001015484906001600160a01b03163314612e045760405162461bcd60e51b8152602060048201526013602482015272596f7520617265206e6f7420417574686f722160681b604482015260640161090d565b60008581526010602090815260409091208551612e2992600390920191870190613ba9565b505050505050565b6000546001600160a01b03163314612e805760405162461bcd60e51b8152602060048201526012602482015271596f7520617265206e6f74206f776e65722160701b604482015260640161090d565b47811115612ef55760405162461bcd60e51b8152602060048201526024808201527f576974686472617720616d6f756e742067726561746572207468616e2062616c60448201527f616e636500000000000000000000000000000000000000000000000000000000606482015260840161090d565b604051339082156108fc029083906000818181858888f19350505050158015612f22573d6000803e3d6000fd5b5050565b3360008181526007602052604081206008015460ff166002811115612f4d57612f4d613d5f565b14612f885760405162461bcd60e51b81526020600482015260166024820152600080516020614560833981519152604482015260640161090d565b81600080828152600b60205260409020600a015460ff166002811115612fb057612fb0613d5f565b14612ff15760405162461bcd60e51b8152602060048201526011602482015270139bdd0818481858dd1a5d994810985b9d607a1b604482015260640161090d565b6000838152600f6020908152604080832033845290915290205460ff161561301857600080fd5b6000838152600b602052604090206006015461303590600161357e565b6000848152600b6020908152604080832060060193909355600f81528282203380845290825291839020805460ff191660011790558251868152908101919091527f13ee249cb5fc790394054ccd4d13c57db8565a8999913e7a637e1b1d1256c69c9101610a60565b600054600160a01b900460ff16156130f15760405162461bcd60e51b81526020600482015260166024820152754461707020686173206265656e2073746f707065642160501b604482015260640161090d565b83600080828152600b60205260409020600a015460ff16600281111561311957613119613d5f565b1461315a5760405162461bcd60e51b8152602060048201526011602482015270139bdd0818481858dd1a5d994810985b9d607a1b604482015260640161090d565b3360008181526007602052604081206008015460ff16600281111561318157613181613d5f565b146131bc5760405162461bcd60e51b81526020600482015260166024820152600080516020614560833981519152604482015260640161090d565b6000868152600b602052604090206001015486906001600160a01b0316331461321d5760405162461bcd60e51b8152602060048201526013602482015272596f7520617265206e6f7420417574686f722160681b604482015260640161090d565b6000878152600b60209081526040909120875161324292600290920191890190613ba9565b506000878152600b60209081526040909120865161326892600390920191880190613ba9565b506000878152600b60209081526040909120855161328e92600490920191870190613ba9565b506040518781527f45c75eeddbeddde42521c4eb0305ed17ceada14e1cfdba30ae0cc9106c2335759060200160405180910390a150505050505050565b600054600160a01b900460ff161561331e5760405162461bcd60e51b81526020600482015260166024820152754461707020686173206265656e2073746f707065642160501b604482015260640161090d565b3360008181526007602052604081206008015460ff16600281111561334557613345613d5f565b146133805760405162461bcd60e51b81526020600482015260166024820152600080516020614560833981519152604482015260640161090d565b60035461338e90600161357e565b6003819055835161339e57600080fd5b600180549060006133ae836143fb565b9190505550604051806101600160405280828152602001336001600160a01b03168152602001868152602001858152602001848152602001428152602001600081526020016000815260200160008152602001600081526020016000600281111561341b5761341b613d5f565b90526000828152600b602090815260409182902083518155838201516001820180546001600160a01b0319166001600160a01b0390921691909117905591830151805161346e9260028501920190613ba9565b506060820151805161348a916003840191602090910190613ba9565b50608082015180516134a6916004840191602090910190613ba9565b5060a0820151600582015560c0820151600682015560e0820151600782015561010082015160088201556101208201516009820155610140820151600a8201805460ff191660018360028111156134ff576134ff613d5f565b021790555050336000818152600c6020908152604080832060038054825460018101845592865284862090920191909155848452600790925280832054915490517fd38b2b935dd03702b5450b6f0b0aa42ae9526b11e33435582b192151f2e5030c955061356f94938b916144f5565b60405180910390a15050505050565b60008061358b8385614416565b9050838110156135dd5760405162461bcd60e51b815260206004820152601b60248201527f536166654d6174683a206164646974696f6e206f766572666c6f770000000000604482015260640161090d565b9392505050565b6001600a866040516135f691906143c9565b908152604051908190036020019020805491151560ff1990921691909117905560055461362490600161357e565b600581905560408051610120810182528281526001600160a01b03898116602080840182815260608587018181528187018e9052608087018d905260a087018c905260c087018b905260e087018a90526000610100880181905294855260078452969093208551815590516001820180546001600160a01b03191691909516179093559351805191946136bf92600285019290910190613c84565b50606082015180516136db916003840191602090910190613ba9565b50608082015180516136f7916004840191602090910190613ba9565b5060a08201518051613713916005840191602090910190613ba9565b5060c0820151805161372f916006840191602090910190613ba9565b5060e0820151805161374b916007840191602090910190613ba9565b5061010082015160088201805460ff1916600183600281111561377057613770613d5f565b021790555050506000828152600860205260409081902080546001600160a01b0319166001600160a01b038b161790555188906009906137b1908a906143c9565b908152604080516020928190038301812080546001600160a01b0319166001600160a01b03958616179055600554938c168152918201929092527fe29d35093005f4d575e1003753426b57a7f64378ba73332eef9c6ccc2b8decd6910160405180910390a15050505050505050565b6001600160a01b0381166000908152600760208190526040822080546003820180546060948594859485948594919390926004810192600582019260068301920190859061386d90614372565b80601f016020809104026020016040519081016040528092919081815260200182805461389990614372565b80156138e65780601f106138bb576101008083540402835291602001916138e6565b820191906000526020600020905b8154815290600101906020018083116138c957829003601f168201915b505050505094508380546138f990614372565b80601f016020809104026020016040519081016040528092919081815260200182805461392590614372565b80156139725780601f1061394757610100808354040283529160200191613972565b820191906000526020600020905b81548152906001019060200180831161395557829003601f168201915b5050505050935082805461398590614372565b80601f01602080910402602001604051908101604052809291908181526020018280546139b190614372565b80156139fe5780601f106139d3576101008083540402835291602001916139fe565b820191906000526020600020905b8154815290600101906020018083116139e157829003601f168201915b50505050509250818054613a1190614372565b80601f0160208091040260200160405190810160405280929190818152602001828054613a3d90614372565b8015613a8a5780601f10613a5f57610100808354040283529160200191613a8a565b820191906000526020600020905b815481529060010190602001808311613a6d57829003601f168201915b50505050509150808054613a9d90614372565b80601f0160208091040260200160405190810160405280929190818152602001828054613ac990614372565b8015613b165780601f10613aeb57610100808354040283529160200191613b16565b820191906000526020600020905b815481529060010190602001808311613af957829003601f168201915b5050505050905095509550955095509550955091939550919395565b60006135dd83836040518060400160405280601e81526020017f536166654d6174683a207375627472616374696f6e206f766572666c6f77000081525060008184841115613b935760405162461bcd60e51b815260040161090d9190614535565b506000613ba08486614548565b95945050505050565b828054613bb590614372565b90600052602060002090601f016020900481019282613bd75760008555613c1d565b82601f10613bf057805160ff1916838001178555613c1d565b82800160010185558215613c1d579182015b82811115613c1d578251825591602001919060010190613c02565b5061187e929150613cd9565b508054613c3590614372565b6000825580601f10613c45575050565b601f016020900490600052602060002090810190613c639190613cd9565b50565b5080546000825590600052602060002090810190613c639190613cd9565b828054828255906000526020600020908101928215613c1d579160200282015b82811115613c1d57825182546001600160a01b0319166001600160a01b03909116178255602090920191600190910190613ca4565b5b8082111561187e5760008155600101613cda565b600060208284031215613d0057600080fd5b5035919050565b60005b83811015613d22578181015183820152602001613d0a565b838111156123085750506000910152565b60008151808452613d4b816020860160208601613d07565b601f01601f19169290920160200192915050565b634e487b7160e01b600052602160045260246000fd5b60038110613c6357634e487b7160e01b600052602160045260246000fd5b6001600160a01b038716815285602082015260c060408201526000613dbb60c0830187613d33565b9050846060830152836080830152613dd283613d75565b8260a0830152979650505050505050565b6001600160a01b0381168114613c6357600080fd5b8035613e0381613de3565b919050565b600060208284031215613e1a57600080fd5b81356135dd81613de3565b60208101613e3283613d75565b91905290565b6020808252825182820181905260009190848201906040850190845b81811015613e7057835183529284019291840191600101613e54565b50909695505050505050565b634e487b7160e01b600052604160045260246000fd5b600082601f830112613ea357600080fd5b813567ffffffffffffffff80821115613ebe57613ebe613e7c565b604051601f8301601f19908116603f01168101908282118183101715613ee657613ee6613e7c565b81604052838152866020858801011115613eff57600080fd5b836020870160208301376000602085830101528094505050505092915050565b60008060008060008060c08789031215613f3857600080fd5b613f4187613df8565b9550602087013567ffffffffffffffff80821115613f5e57600080fd5b613f6a8a838b01613e92565b96506040890135915080821115613f8057600080fd5b613f8c8a838b01613e92565b95506060890135915080821115613fa257600080fd5b613fae8a838b01613e92565b94506080890135915080821115613fc457600080fd5b613fd08a838b01613e92565b935060a0890135915080821115613fe657600080fd5b50613ff389828a01613e92565b9150509295509295509295565b6000806040838503121561401357600080fd5b82359150602083013567ffffffffffffffff81111561403157600080fd5b61403d85828601613e92565b9150509250929050565b6000806040838503121561405a57600080fd5b82359150602083013561406c81613de3565b809150509250929050565b600080600080600060a0868803121561408f57600080fd5b853567ffffffffffffffff808211156140a757600080fd5b6140b389838a01613e92565b965060208801359150808211156140c957600080fd5b6140d589838a01613e92565b955060408801359150808211156140eb57600080fd5b6140f789838a01613e92565b9450606088013591508082111561410d57600080fd5b61411989838a01613e92565b9350608088013591508082111561412f57600080fd5b5061413c88828901613e92565b9150509295509295909350565b86815260c06020820152600061416260c0830188613d33565b82810360408401526141748188613d33565b905082810360608401526141888187613d33565b9050828103608084015261419c8186613d33565b905082810360a08401526141b08185613d33565b9998505050505050505050565b6000602082840312156141cf57600080fd5b813567ffffffffffffffff8111156141e657600080fd5b6141f284828501613e92565b949350505050565b6001600160a01b038716815260c06020820152600061421c60c0830188613d33565b828103604084015261422e8188613d33565b905082810360608401526142428187613d33565b6080840195909552505060a00152949350505050565b6000806000806080858703121561426e57600080fd5b84359350602085013567ffffffffffffffff8082111561428d57600080fd5b61429988838901613e92565b945060408701359150808211156142af57600080fd5b6142bb88838901613e92565b935060608701359150808211156142d157600080fd5b506142de87828801613e92565b91505092959194509250565b6000806000606084860312156142ff57600080fd5b833567ffffffffffffffff8082111561431757600080fd5b61432387838801613e92565b9450602086013591508082111561433957600080fd5b61434587838801613e92565b9350604086013591508082111561435b57600080fd5b5061436886828701613e92565b9150509250925092565b600181811c9082168061438657607f821691505b60208210811415610d5d57634e487b7160e01b600052602260045260246000fd5b6001600160a01b03831681526040602082015260006141f26040830184613d33565b600082516143db818460208701613d07565b9190910192915050565b634e487b7160e01b600052601160045260246000fd5b600060001982141561440f5761440f6143e5565b5060010190565b60008219821115614429576144296143e5565b500190565b828152600060206040818401526000845481600182811c91508083168061445657607f831692505b85831081141561447457634e487b7160e01b85526022600452602485fd5b604088018390526060880181801561449357600181146144a4576144cf565b60ff198616825287820196506144cf565b60008b81526020902060005b868110156144c9578154848201529085019089016144b0565b83019750505b50949a9950505050505050505050565b634e487b7160e01b600052603260045260246000fd5b6001600160a01b038616815284602082015283604082015260a06060820152600061452360a0830185613d33565b90508260808301529695505050505050565b6020815260006135dd6020830184613d33565b60008282101561455a5761455a6143e5565b50039056fe4e6f742061205265676973746572656420557365722100000000000000000000a26469706673582212201d1ad92c8451b5ad1977570fe7dc70e74c4227e75c75ddcdbb2a5523f5f25bff64736f6c63430008080033",
  "linkReferences": {},
  "deployedLinkReferences": {}
}