{
  "_format": "hh-sol-artifact-1",
  "contractName": "Dbanta",
  "sourceName": "contracts/dbanta.sol",
  "abi": [
    {
      "inputs": [
        {
          "internalType": "address",
          "name": "_nft",
          "type": "address"
        }
      ],
      "stateMutability": "nonpayable",
      "type": "constructor"
    },
    {
      "anonymous": false,
      "inputs": [
        {
          "indexed": false,
          "internalType": "uint256",
          "name": "bantId",
          "type": "uint256"
        },
        {
          "indexed": false,
          "internalType": "address",
          "name": "user",
          "type": "address"
        }
      ],
      "name": "BantLiked",
      "type": "event"
    },
    {
      "anonymous": false,
      "inputs": [
        {
          "indexed": false,
          "internalType": "uint256",
          "name": "bantId",
          "type": "uint256"
        },
        {
          "indexed": false,
          "internalType": "address",
          "name": "user",
          "type": "address"
        }
      ],
      "name": "BantMinted",
      "type": "event"
    },
    {
      "anonymous": false,
      "inputs": [
        {
          "indexed": false,
          "internalType": "uint256",
          "name": "bantId",
          "type": "uint256"
        },
        {
          "indexed": false,
          "internalType": "address",
          "name": "user",
          "type": "address"
        }
      ],
      "name": "BantUnliked",
      "type": "event"
    },
    {
      "anonymous": false,
      "inputs": [
        {
          "indexed": false,
          "internalType": "address payable",
          "name": "author",
          "type": "address"
        },
        {
          "indexed": false,
          "internalType": "uint256",
          "name": "userid",
          "type": "uint256"
        },
        {
          "indexed": false,
          "internalType": "uint256",
          "name": "bantid",
          "type": "uint256"
        },
        {
          "indexed": false,
          "internalType": "uint256",
          "name": "tipVote",
          "type": "uint256"
        }
      ],
      "name": "bantVoted",
      "type": "event"
    },
    {
      "anonymous": false,
      "inputs": [
        {
          "indexed": false,
          "internalType": "address payable",
          "name": "author",
          "type": "address"
        },
        {
          "indexed": false,
          "internalType": "uint256",
          "name": "userid",
          "type": "uint256"
        },
        {
          "indexed": false,
          "internalType": "uint256",
          "name": "bantid",
          "type": "uint256"
        },
        {
          "indexed": false,
          "internalType": "string",
          "name": "hashtag",
          "type": "string"
        },
        {
          "indexed": false,
          "internalType": "uint256",
          "name": "tipVote",
          "type": "uint256"
        }
      ],
      "name": "logBantCreated",
      "type": "event"
    },
    {
      "anonymous": false,
      "inputs": [
        {
          "indexed": false,
          "internalType": "uint256",
          "name": "id",
          "type": "uint256"
        },
        {
          "indexed": false,
          "internalType": "string",
          "name": "hashtag",
          "type": "string"
        }
      ],
      "name": "logBantDeleted",
      "type": "event"
    },
    {
      "anonymous": false,
      "inputs": [
        {
          "indexed": false,
          "internalType": "uint256",
          "name": "id",
          "type": "uint256"
        }
      ],
      "name": "logBantEdited",
      "type": "event"
    },
    {
      "anonymous": false,
      "inputs": [
        {
          "indexed": false,
          "internalType": "uint256",
          "name": "rebantid",
          "type": "uint256"
        },
        {
          "indexed": false,
          "internalType": "uint256",
          "name": "bantid",
          "type": "uint256"
        },
        {
          "indexed": false,
          "internalType": "address",
          "name": "user",
          "type": "address"
        }
      ],
      "name": "logRebantCreated",
      "type": "event"
    },
    {
      "anonymous": false,
      "inputs": [
        {
          "indexed": false,
          "internalType": "address",
          "name": "user",
          "type": "address"
        },
        {
          "indexed": false,
          "internalType": "uint256",
          "name": "id",
          "type": "uint256"
        }
      ],
      "name": "logRegisterUser",
      "type": "event"
    },
    {
      "anonymous": false,
      "inputs": [
        {
          "indexed": false,
          "internalType": "address",
          "name": "user",
          "type": "address"
        },
        {
          "indexed": false,
          "internalType": "uint256",
          "name": "id",
          "type": "uint256"
        }
      ],
      "name": "logUserBanned",
      "type": "event"
    },
    {
      "anonymous": false,
      "inputs": [
        {
          "indexed": false,
          "internalType": "address",
          "name": "user",
          "type": "address"
        },
        {
          "indexed": false,
          "internalType": "address",
          "name": "follower",
          "type": "address"
        }
      ],
      "name": "newfollowers",
      "type": "event"
    },
    {
      "stateMutability": "nonpayable",
      "type": "fallback"
    },
    {
      "inputs": [],
      "name": "bantCount",
      "outputs": [
        {
          "internalType": "uint256",
          "name": "",
          "type": "uint256"
        }
      ],
      "stateMutability": "view",
      "type": "function"
    },
    {
      "inputs": [
        {
          "internalType": "uint256",
          "name": "_id",
          "type": "uint256"
        }
      ],
      "name": "bantLikes",
      "outputs": [
        {
          "internalType": "uint256",
          "name": "",
          "type": "uint256"
        }
      ],
      "stateMutability": "view",
      "type": "function"
    },
    {
      "inputs": [
        {
          "internalType": "address payable",
          "name": "_newOwner",
          "type": "address"
        }
      ],
      "name": "changeOwner",
      "outputs": [],
      "stateMutability": "nonpayable",
      "type": "function"
    },
    {
      "inputs": [
        {
          "internalType": "string",
          "name": "_username",
          "type": "string"
        }
      ],
      "name": "changeUsername",
      "outputs": [],
      "stateMutability": "nonpayable",
      "type": "function"
    },
    {
      "inputs": [
        {
          "internalType": "string",
          "name": "_hashtag",
          "type": "string"
        },
        {
          "internalType": "string",
          "name": "_content",
          "type": "string"
        },
        {
          "internalType": "string",
          "name": "_imghash",
          "type": "string"
        }
      ],
      "name": "createBant",
      "outputs": [],
      "stateMutability": "nonpayable",
      "type": "function"
    },
    {
      "inputs": [
        {
          "internalType": "uint256",
          "name": "_bantid",
          "type": "uint256"
        },
        {
          "internalType": "string",
          "name": "_comment",
          "type": "string"
        }
      ],
      "name": "createComment",
      "outputs": [],
      "stateMutability": "nonpayable",
      "type": "function"
    },
    {
      "inputs": [
        {
          "internalType": "uint256",
          "name": "_id",
          "type": "uint256"
        }
      ],
      "name": "deleteBant",
      "outputs": [],
      "stateMutability": "nonpayable",
      "type": "function"
    },
    {
      "inputs": [
        {
          "internalType": "uint256",
          "name": "_id",
          "type": "uint256"
        }
      ],
      "name": "deleteComment",
      "outputs": [],
      "stateMutability": "nonpayable",
      "type": "function"
    },
    {
      "inputs": [
        {
          "internalType": "uint256",
          "name": "_id",
          "type": "uint256"
        },
        {
          "internalType": "string",
          "name": "_hashtag",
          "type": "string"
        },
        {
          "internalType": "string",
          "name": "_content",
          "type": "string"
        },
        {
          "internalType": "string",
          "name": "_imghash",
          "type": "string"
        }
      ],
      "name": "editBant",
      "outputs": [],
      "stateMutability": "nonpayable",
      "type": "function"
    },
    {
      "inputs": [
        {
          "internalType": "uint256",
          "name": "_commentid",
          "type": "uint256"
        },
        {
          "internalType": "string",
          "name": "_comment",
          "type": "string"
        }
      ],
      "name": "editComment",
      "outputs": [],
      "stateMutability": "nonpayable",
      "type": "function"
    },
    {
      "inputs": [
        {
          "internalType": "address",
          "name": "_person",
          "type": "address"
        }
      ],
      "name": "followusers",
      "outputs": [],
      "stateMutability": "nonpayable",
      "type": "function"
    },
    {
      "inputs": [],
      "name": "getBalance",
      "outputs": [
        {
          "internalType": "uint256",
          "name": "balance",
          "type": "uint256"
        }
      ],
      "stateMutability": "view",
      "type": "function"
    },
    {
      "inputs": [
        {
          "internalType": "uint256",
          "name": "_id",
          "type": "uint256"
        }
      ],
      "name": "getBant",
      "outputs": [
        {
          "internalType": "address",
          "name": "author",
          "type": "address"
        },
        {
          "internalType": "string",
          "name": "hashtag",
          "type": "string"
        },
        {
          "internalType": "string",
          "name": "content",
          "type": "string"
        },
        {
          "internalType": "string",
          "name": "imgHash",
          "type": "string"
        },
        {
          "internalType": "uint256",
          "name": "timestamp",
          "type": "uint256"
        },
        {
          "internalType": "uint256",
          "name": "likeCount",
          "type": "uint256"
        }
      ],
      "stateMutability": "view",
      "type": "function"
    },
    {
      "inputs": [
        {
          "internalType": "uint256",
          "name": "_id",
          "type": "uint256"
        }
      ],
      "name": "getBantComments",
      "outputs": [
        {
          "internalType": "uint256[]",
          "name": "list",
          "type": "uint256[]"
        }
      ],
      "stateMutability": "view",
      "type": "function"
    },
    {
      "inputs": [
        {
          "internalType": "uint256",
          "name": "_id",
          "type": "uint256"
        }
      ],
      "name": "getComment",
      "outputs": [
        {
          "internalType": "address",
          "name": "author",
          "type": "address"
        },
        {
          "internalType": "uint256",
          "name": "bantId",
          "type": "uint256"
        },
        {
          "internalType": "string",
          "name": "content",
          "type": "string"
        },
        {
          "internalType": "uint256",
          "name": "likeCount",
          "type": "uint256"
        },
        {
          "internalType": "uint256",
          "name": "timestamp",
          "type": "uint256"
        },
        {
          "internalType": "enum Dbanta.cdStatus",
          "name": "status",
          "type": "uint8"
        }
      ],
      "stateMutability": "view",
      "type": "function"
    },
    {
      "inputs": [],
      "name": "getTotalUserBants",
      "outputs": [
        {
          "internalType": "uint256",
          "name": "",
          "type": "uint256"
        }
      ],
      "stateMutability": "view",
      "type": "function"
    },
    {
      "inputs": [
        {
          "internalType": "address",
          "name": "_user",
          "type": "address"
        }
      ],
      "name": "getUser",
      "outputs": [
        {
          "internalType": "uint256",
          "name": "id",
          "type": "uint256"
        },
        {
          "internalType": "string",
          "name": "username",
          "type": "string"
        },
        {
          "internalType": "string",
          "name": "name",
          "type": "string"
        },
        {
          "internalType": "string",
          "name": "imghash",
          "type": "string"
        },
        {
          "internalType": "string",
          "name": "coverhash",
          "type": "string"
        },
        {
          "internalType": "string",
          "name": "bio",
          "type": "string"
        }
      ],
      "stateMutability": "view",
      "type": "function"
    },
    {
      "inputs": [
        {
          "internalType": "address",
          "name": "_user",
          "type": "address"
        }
      ],
      "name": "getUserBants",
      "outputs": [
        {
          "internalType": "uint256[]",
          "name": "bantList",
          "type": "uint256[]"
        }
      ],
      "stateMutability": "view",
      "type": "function"
    },
    {
      "inputs": [
        {
          "internalType": "address",
          "name": "_user",
          "type": "address"
        }
      ],
      "name": "getUserComments",
      "outputs": [
        {
          "internalType": "uint256[]",
          "name": "commentList",
          "type": "uint256[]"
        }
      ],
      "stateMutability": "view",
      "type": "function"
    },
    {
      "inputs": [],
      "name": "getUserComments",
      "outputs": [
        {
          "internalType": "uint256[]",
          "name": "commentList",
          "type": "uint256[]"
        }
      ],
      "stateMutability": "view",
      "type": "function"
    },
    {
      "inputs": [
        {
          "internalType": "uint256",
          "name": "_id",
          "type": "uint256"
        }
      ],
      "name": "likeBant",
      "outputs": [],
      "stateMutability": "nonpayable",
      "type": "function"
    },
    {
      "inputs": [
        {
          "internalType": "uint256",
          "name": "_id",
          "type": "uint256"
        }
      ],
      "name": "mintBant",
      "outputs": [],
      "stateMutability": "nonpayable",
      "type": "function"
    },
    {
      "inputs": [],
      "name": "nft",
      "outputs": [
        {
          "internalType": "contract IDbantaNFT",
          "name": "",
          "type": "address"
        }
      ],
      "stateMutability": "view",
      "type": "function"
    },
    {
      "inputs": [],
      "name": "owner",
      "outputs": [
        {
          "internalType": "address",
          "name": "",
          "type": "address"
        }
      ],
      "stateMutability": "view",
      "type": "function"
    },
    {
      "inputs": [
        {
          "internalType": "uint256",
          "name": "_id",
          "type": "uint256"
        }
      ],
      "name": "rebantusersbant",
      "outputs": [
        {
          "internalType": "uint256",
          "name": "",
          "type": "uint256"
        }
      ],
      "stateMutability": "nonpayable",
      "type": "function"
    },
    {
      "inputs": [
        {
          "internalType": "string",
          "name": "_username",
          "type": "string"
        },
        {
          "internalType": "string",
          "name": "_name",
          "type": "string"
        },
        {
          "internalType": "string",
          "name": "_imgHash",
          "type": "string"
        },
        {
          "internalType": "string",
          "name": "_coverHash",
          "type": "string"
        },
        {
          "internalType": "string",
          "name": "_bio",
          "type": "string"
        }
      ],
      "name": "register",
      "outputs": [],
      "stateMutability": "nonpayable",
      "type": "function"
    },
    {
      "inputs": [
        {
          "internalType": "address",
          "name": "_user",
          "type": "address"
        },
        {
          "internalType": "string",
          "name": "_username",
          "type": "string"
        },
        {
          "internalType": "string",
          "name": "_name",
          "type": "string"
        },
        {
          "internalType": "string",
          "name": "_imgHash",
          "type": "string"
        },
        {
          "internalType": "string",
          "name": "_coverHash",
          "type": "string"
        },
        {
          "internalType": "string",
          "name": "_bio",
          "type": "string"
        }
      ],
      "name": "registerUser",
      "outputs": [],
      "stateMutability": "nonpayable",
      "type": "function"
    },
    {
      "inputs": [],
      "name": "startDapp",
      "outputs": [],
      "stateMutability": "nonpayable",
      "type": "function"
    },
    {
      "inputs": [],
      "name": "stopDapp",
      "outputs": [],
      "stateMutability": "nonpayable",
      "type": "function"
    },
    {
      "inputs": [],
      "name": "stopped",
      "outputs": [
        {
          "internalType": "bool",
          "name": "",
          "type": "bool"
        }
      ],
      "stateMutability": "view",
      "type": "function"
    },
    {
      "inputs": [
        {
          "internalType": "uint256",
          "name": "_id",
          "type": "uint256"
        }
      ],
      "name": "tipPost",
      "outputs": [],
      "stateMutability": "payable",
      "type": "function"
    },
    {
      "inputs": [],
      "name": "totalBants",
      "outputs": [
        {
          "internalType": "uint256",
          "name": "",
          "type": "uint256"
        }
      ],
      "stateMutability": "view",
      "type": "function"
    },
    {
      "inputs": [],
      "name": "totalComments",
      "outputs": [
        {
          "internalType": "uint256",
          "name": "",
          "type": "uint256"
        }
      ],
      "stateMutability": "view",
      "type": "function"
    },
    {
      "inputs": [],
      "name": "totalRebants",
      "outputs": [
        {
          "internalType": "uint256",
          "name": "",
          "type": "uint256"
        }
      ],
      "stateMutability": "view",
      "type": "function"
    },
    {
      "inputs": [],
      "name": "totalUsers",
      "outputs": [
        {
          "internalType": "uint256",
          "name": "",
          "type": "uint256"
        }
      ],
      "stateMutability": "view",
      "type": "function"
    },
    {
      "inputs": [
        {
          "internalType": "uint256",
          "name": "_amount",
          "type": "uint256"
        }
      ],
      "name": "transferContractBalance",
      "outputs": [],
      "stateMutability": "nonpayable",
      "type": "function"
    },
    {
      "inputs": [
        {
          "internalType": "uint256",
          "name": "_id",
          "type": "uint256"
        }
      ],
      "name": "unlikeBant",
      "outputs": [],
      "stateMutability": "nonpayable",
      "type": "function"
    },
    {
      "inputs": [
        {
          "internalType": "uint256",
          "name": "_id",
          "type": "uint256"
        },
        {
          "internalType": "address",
          "name": "_user",
          "type": "address"
        }
      ],
      "name": "userLikesBant",
      "outputs": [
        {
          "internalType": "bool",
          "name": "",
          "type": "bool"
        }
      ],
      "stateMutability": "view",
      "type": "function"
    },
    {
      "inputs": [
        {
          "internalType": "address",
          "name": "_useraddr",
          "type": "address"
        }
      ],
      "name": "userStatus",
      "outputs": [
        {
          "internalType": "enum Dbanta.accountStatus",
          "name": "status",
          "type": "uint8"
        }
      ],
      "stateMutability": "view",
      "type": "function"
    },
    {
      "inputs": [
        {
          "internalType": "string",
          "name": "_username",
          "type": "string"
        }
      ],
      "name": "usernameAvailable",
      "outputs": [
        {
          "internalType": "bool",
          "name": "status",
          "type": "bool"
        }
      ],
      "stateMutability": "view",
      "type": "function"
    }
  ],
  "bytecode": "0x60806040526000805460ff60a01b1916815560018190556003819055600481905560058190556006553480156200003557600080fd5b5060405162004bbe38038062004bbe8339810160408190526200005891620005f6565b60008054336001600160a01b0319918216178255600280549091166001600160a01b03841617905560408051808201825260058082526437bbb732b960d91b6020808401829052845180860186528381528082018390528551808301875287815286518084018852978852865180880190975293865290850191909152620000e5949293909290620000ec565b50620006d9565b600054600160a01b900460ff16156200014c5760405162461bcd60e51b815260206004820152601660248201527f4461707020686173206265656e2073746f70706564210000000000000000000060448201526064015b60405180910390fd5b3360008181526007602052604081206008015460ff16600281111562000176576200017662000621565b14620001c55760405162461bcd60e51b815260206004820152601760248201527f5573657220616c72656164792072656769737465726564000000000000000000604482015260640162000143565b85600981604051620001d8919062000637565b9081526040519081900360200190205460ff16156200023a5760405162461bcd60e51b815260206004820152601660248201527f557365726e616d6520616c72656164792074616b656e00000000000000000000604482015260640162000143565b6200024a33888888888862000253565b50505050505050565b600160098660405162000267919062000637565b908152602001604051809103902060006101000a81548160ff021916908315150217905550620002a960016005546200048e60201b620037d81790919060201c565b600581905560408051610120810182528281526001600160a01b03898116602080840182815260608587018181528187018e9052608087018d905260a087018c905260c087018b905260e087018a90526000610100880181905294855260078452969093208551815590516001820180546001600160a01b03191691909516179093559351805191946200034692600285019290910190620004f8565b50606082015180516200036491600384019160209091019062000562565b50608082015180516200038291600484019160209091019062000562565b5060a08201518051620003a091600584019160209091019062000562565b5060c08201518051620003be91600684019160209091019062000562565b5060e08201518051620003dc91600784019160209091019062000562565b5061010082015160088201805460ff1916600183600281111562000404576200040462000621565b0217905550905050876008886040516200041f919062000637565b908152604080516020928190038301812080546001600160a01b0319166001600160a01b03958616179055600554938c168152918201929092527fabc58c36475157c4ac7669f9adfbb6f254d3a3578fb89676f6866ac3b9950eed910160405180910390a15050505050505050565b6000806200049d838562000675565b905083811015620004f15760405162461bcd60e51b815260206004820152601b60248201527f536166654d6174683a206164646974696f6e206f766572666c6f770000000000604482015260640162000143565b9392505050565b82805482825590600052602060002090810192821562000550579160200282015b828111156200055057825182546001600160a01b0319166001600160a01b0390911617825560209092019160019091019062000519565b506200055e929150620005df565b5090565b82805462000570906200069c565b90600052602060002090601f01602090048101928262000594576000855562000550565b82601f10620005af57805160ff191683800117855562000550565b8280016001018555821562000550579182015b8281111562000550578251825591602001919060010190620005c2565b5b808211156200055e5760008155600101620005e0565b6000602082840312156200060957600080fd5b81516001600160a01b0381168114620004f157600080fd5b634e487b7160e01b600052602160045260246000fd5b6000825160005b818110156200065a57602081860181015185830152016200063e565b818111156200066a576000828501525b509190910192915050565b600082198211156200069757634e487b7160e01b600052601160045260246000fd5b500190565b600181811c90821680620006b157607f821691505b60208210811415620006d357634e487b7160e01b600052602260045260246000fd5b50919050565b6144d580620006e96000396000f3fe6080604052600436106102bb5760003560e01c8063719b741d1161016e57806395d2cc92116100cb578063beee20dc1161007f578063c039b58411610064578063c039b584146107e4578063ef2f030d14610804578063ff99fa1f14610824576102bb565b8063beee20dc146107ae578063bff1f9e1146107ce576102bb565b8063a6f9dae1116100b0578063a6f9dae114610758578063ad81602914610778578063b9394ad414610798576102bb565b806395d2cc92146107235780639962034814610738576102bb565b8063764a614a116101225780637d0b1026116101075780637d0b1026146106b3578063818552d9146106d35780638da5cb5b14610703576102bb565b8063764a614a1461066157806377c846af14610693576102bb565b806374dfaa821161015357806374dfaa821461060057806374ebaadc1461062057806375f12b2114610640576102bb565b8063719b741d146105d857806374d3c1f8146105ed576102bb565b806335075ff01161021c57806354b1607a116101d057806360a4e427116101b557806360a4e4271461056e57806361936b81146105905780636f77926b146105a6576102bb565b806354b1607a146104f85780635a09007b1461054e576102bb565b806340a179851161020157806340a179851461048057806347ccca02146104a05780635020ab8a146104d8576102bb565b806335075ff01461044057806339629a3614610460576102bb565b8063225d29a1116102735780632b3c6e22116102585780632b3c6e22146103de578063325d748e1461040b57806333aa01e91461042b576102bb565b8063225d29a11461037f5780632b27465b146103c8576102bb565b80630800e300116102a45780630800e3001461031857806312065fe01461034a578063223757cb1461035f576102bb565b806305c703e6146102cd57806307428a89146102ef575b3480156102c757600080fd5b50600080fd5b3480156102d957600080fd5b506102ed6102e8366004613c0e565b610844565b005b3480156102fb57600080fd5b5061030560065481565b6040519081526020015b60405180910390f35b34801561032457600080fd5b50610338610333366004613c0e565b610a01565b60405161030f96959493929190613cb3565b34801561035657600080fd5b50610305610bcf565b34801561036b57600080fd5b506102ed61037a366004613d28565b610c24565b34801561038b57600080fd5b506103bb61039a366004613d28565b6001600160a01b031660009081526007602052604090206008015460ff1690565b60405161030f9190613d45565b3480156103d457600080fd5b5061030560035481565b3480156103ea57600080fd5b506103fe6103f9366004613d28565b610ca5565b60405161030f9190613d58565b34801561041757600080fd5b506103fe610426366004613d28565b610d78565b34801561043757600080fd5b506102ed610e48565b34801561044c57600080fd5b506102ed61045b366004613e3f565b610f06565b34801561046c57600080fd5b506103fe61047b366004613c0e565b6110b1565b34801561048c57600080fd5b506102ed61049b366004613f20565b6111e4565b3480156104ac57600080fd5b506002546104c0906001600160a01b031681565b6040516001600160a01b03909116815260200161030f565b3480156104e457600080fd5b506103056104f3366004613c0e565b61142e565b34801561050457600080fd5b5061053e610513366004613f67565b6000918252600e602090815260408084206001600160a01b0393909316845291905290205460ff1690565b604051901515815260200161030f565b34801561055a57600080fd5b506102ed610569366004613f97565b61162f565b34801561057a57600080fd5b50336000908152600b6020526040902054610305565b34801561059c57600080fd5b5061030560045481565b3480156105b257600080fd5b506105c66105c1366004613d28565b61177e565b60405161030f96959493929190614069565b3480156105e457600080fd5b506103fe611a90565b6102ed6105fb366004613c0e565b611b58565b34801561060c57600080fd5b506102ed61061b366004613c0e565b61230b565b34801561062c57600080fd5b5061053e61063b3660046140dd565b6125e5565b34801561064c57600080fd5b5060005461053e90600160a01b900460ff1681565b34801561066d57600080fd5b5061068161067c366004613c0e565b612611565b60405161030f9695949392919061411a565b34801561069f57600080fd5b506102ed6106ae3660046140dd565b6128e7565b3480156106bf57600080fd5b506102ed6106ce366004613c0e565b612a33565b3480156106df57600080fd5b506103056106ee366004613c0e565b6000908152600a602052604090206006015490565b34801561070f57600080fd5b506000546104c0906001600160a01b031681565b34801561072f57600080fd5b506102ed612c34565b34801561074457600080fd5b506102ed610753366004613c0e565b612ceb565b34801561076457600080fd5b506102ed610773366004613d28565b612e60565b34801561078457600080fd5b506102ed610793366004613f20565b612ed1565b3480156107a457600080fd5b5061030560015481565b3480156107ba57600080fd5b506102ed6107c9366004613c0e565b613089565b3480156107da57600080fd5b5061030560055481565b3480156107f057600080fd5b506102ed6107ff366004613c0e565b61317e565b34801561081057600080fd5b506102ed61081f366004614178565b6132f7565b34801561083057600080fd5b506102ed61083f36600461420a565b613525565b6000818152600a602052604090206001015481906001600160a01b031633146108aa5760405162461bcd60e51b8152602060048201526013602482015272596f7520617265206e6f7420417574686f722160681b60448201526064015b60405180910390fd5b6000828152600a6020526040812060030180546108c690614292565b80601f01602080910402602001604051908101604052809291908181526020018280546108f290614292565b801561093f5780601f106109145761010080835404028352916020019161093f565b820191906000526020600020905b81548152906001019060200180831161092257829003601f168201915b50506002546040517fd204c45e0000000000000000000000000000000000000000000000000000000081529495506001600160a01b03169363d204c45e9350610990925033915085906004016142c7565b600060405180830381600087803b1580156109aa57600080fd5b505af11580156109be573d6000803e3d6000fd5b5050604080518681523360208201527fc987a0b975ad7e2b67fca529121c6bf00cf38bc1e19a74287ecff6f2e194166093500190505b60405180910390a1505050565b600080606081808033816001600160a01b03821660009081526007602052604090206008015460ff166002811115610a3b57610a3b613c7f565b14610a765760405162461bcd60e51b8152602060048201526016602482015260008051602061448083398151915260448201526064016108a1565b87600080828152600f602052604090206006015460ff166002811115610a9e57610a9e613c7f565b14610aeb5760405162461bcd60e51b815260206004820152601460248201527f4e6f7420612061637469766520636f6d6d656e7400000000000000000000000060448201526064016108a1565b6000898152600f6020526040902060018101546002820154600483015460058401546006850154600390950180546001600160a01b03909516959394909360ff16908490610b3890614292565b80601f0160208091040260200160405190810160405280929190818152602001828054610b6490614292565b8015610bb15780601f10610b8657610100808354040283529160200191610bb1565b820191906000526020600020905b815481529060010190602001808311610b9457829003601f168201915b50505050509350975097509750975097509750505091939550919395565b600080546001600160a01b03163314610c1f5760405162461bcd60e51b8152602060048201526012602482015271596f7520617265206e6f74206f776e65722160701b60448201526064016108a1565b504790565b6001600160a01b03811660008181526007602090815260408083206002810180546001810182559085529383902090930180546001600160a01b0319163390811790915581519485529184019190915290917fd9ac212dba415b860553899b53a3a0f59da2e3ff60d443bb4ae635f79c60b742910160405180910390a15050565b33600081815260076020526040812060080154606092919060ff166002811115610cd157610cd1613c7f565b14610d0c5760405162461bcd60e51b8152602060048201526016602482015260008051602061448083398151915260448201526064016108a1565b6001600160a01b03831660009081526010602090815260409182902080548351818402810184019094528084529091830182828015610d6a57602002820191906000526020600020905b815481526020019060010190808311610d56575b505050505091505b50919050565b33600081815260076020526040812060080154606092919060ff166002811115610da457610da4613c7f565b14610ddf5760405162461bcd60e51b8152602060048201526016602482015260008051602061448083398151915260448201526064016108a1565b6001600160a01b0383166000908152600b602090815260409182902080548351818402810184019094528084529091830182828015610d6a5760200282019190600052602060002090815481526020019060010190808311610d56575050505050915050919050565b6000546001600160a01b03163314610e975760405162461bcd60e51b8152602060048201526012602482015271596f7520617265206e6f74206f776e65722160701b60448201526064016108a1565b600054600160a01b900460ff1615610ef15760405162461bcd60e51b815260206004820152600f60248201527f416c72656164792073746f70706564000000000000000000000000000000000060448201526064016108a1565b6000805460ff60a01b1916600160a01b179055565b600054600160a01b900460ff1615610f595760405162461bcd60e51b81526020600482015260166024820152754461707020686173206265656e2073746f707065642160501b60448201526064016108a1565b8560006001600160a01b03821660009081526007602052604090206008015460ff166002811115610f8c57610f8c613c7f565b14610fd95760405162461bcd60e51b815260206004820152601760248201527f5573657220616c7265616479207265676973746572656400000000000000000060448201526064016108a1565b85600981604051610fea91906142e9565b9081526040519081900360200190205460ff161561104a5760405162461bcd60e51b815260206004820152601660248201527f557365726e616d6520616c72656164792074616b656e0000000000000000000060448201526064016108a1565b6000546001600160a01b031633146110995760405162461bcd60e51b8152602060048201526012602482015271596f7520617265206e6f74206f776e65722160701b60448201526064016108a1565b6110a788888888888861383e565b5050505050505050565b33600081815260076020526040812060080154606092919060ff1660028111156110dd576110dd613c7f565b146111185760405162461bcd60e51b8152602060048201526016602482015260008051602061448083398151915260448201526064016108a1565b82600080828152600a60208190526040909120015460ff16600281111561114157611141613c7f565b146111825760405162461bcd60e51b8152602060048201526011602482015270139bdd0818481858dd1a5d994810985b9d607a1b60448201526064016108a1565b600084815260116020908152604091829020805483518184028101840190945280845290918301828280156111d657602002820191906000526020600020905b8154815260200190600101908083116111c2575b505050505092505050919050565b600054600160a01b900460ff16156112375760405162461bcd60e51b81526020600482015260166024820152754461707020686173206265656e2073746f707065642160501b60448201526064016108a1565b3360008181526007602052604081206008015460ff16600281111561125e5761125e613c7f565b146112995760405162461bcd60e51b8152602060048201526016602482015260008051602061448083398151915260448201526064016108a1565b82600080828152600a60208190526040909120015460ff1660028111156112c2576112c2613c7f565b146113035760405162461bcd60e51b8152602060048201526011602482015270139bdd0818481858dd1a5d994810985b9d607a1b60448201526064016108a1565b6004546113119060016137d8565b60048190556040805160e081018252828152336020820152908101869052606081018590526000608082018190524260a083015260c08201526000828152600f602090815260409182902083518155838201516001820180546001600160a01b0319166001600160a01b03909216919091179055918301516002830155606083015180516113a59260038501920190613ac9565b506080820151600482015560a0820151600582015560c082015160068201805460ff191660018360028111156113dd576113dd613c7f565b02179055505033600090815260106020908152604080832060048054825460018181018555938752858720015599845260118352908320985489549182018a55988352912001959095555050505050565b60008054600160a01b900460ff16156114825760405162461bcd60e51b81526020600482015260166024820152754461707020686173206265656e2073746f707065642160501b60448201526064016108a1565b3360008181526007602052604081206008015460ff1660028111156114a9576114a9613c7f565b146114e45760405162461bcd60e51b8152602060048201526016602482015260008051602061448083398151915260448201526064016108a1565b6000838152600a6020526040902060018101546001600160a01b031661150957600080fd5b60078101805490600061151b8361431b565b909155505060065461152e9060016137d8565b600681905560408051608081018252835481526020808201848152428385019081523360608086018281526000898152600d875288812088518155865160018083019190915586516002808401919091558451600393840180546001600160a01b03199081166001600160a01b0393841617909155888652600c8c528d862080548086018255908752958c90208d5160049097020195865599519285019290925596519683019690965591519101805490951693169290921790925586548551878152938401529382015290917fab81b9ce2ed04b74dc52357e6997b479a6cea1f632b03a6f3644b5533133c07c910160405180910390a150949350505050565b600054600160a01b900460ff16156116825760405162461bcd60e51b81526020600482015260166024820152754461707020686173206265656e2073746f707065642160501b60448201526064016108a1565b3360008181526007602052604081206008015460ff1660028111156116a9576116a9613c7f565b146116f65760405162461bcd60e51b815260206004820152601760248201527f5573657220616c7265616479207265676973746572656400000000000000000060448201526064016108a1565b8560098160405161170791906142e9565b9081526040519081900360200190205460ff16156117675760405162461bcd60e51b815260206004820152601660248201527f557365726e616d6520616c72656164792074616b656e0000000000000000000060448201526064016108a1565b61177533888888888861383e565b50505050505050565b6001600160a01b038116600090815260076020819052604082208054600382018054606094859485948594859491939092600481019260058201926006830192019085906117cb90614292565b80601f01602080910402602001604051908101604052809291908181526020018280546117f790614292565b80156118445780601f1061181957610100808354040283529160200191611844565b820191906000526020600020905b81548152906001019060200180831161182757829003601f168201915b5050505050945083805461185790614292565b80601f016020809104026020016040519081016040528092919081815260200182805461188390614292565b80156118d05780601f106118a5576101008083540402835291602001916118d0565b820191906000526020600020905b8154815290600101906020018083116118b357829003601f168201915b505050505093508280546118e390614292565b80601f016020809104026020016040519081016040528092919081815260200182805461190f90614292565b801561195c5780601f106119315761010080835404028352916020019161195c565b820191906000526020600020905b81548152906001019060200180831161193f57829003601f168201915b5050505050925081805461196f90614292565b80601f016020809104026020016040519081016040528092919081815260200182805461199b90614292565b80156119e85780601f106119bd576101008083540402835291602001916119e8565b820191906000526020600020905b8154815290600101906020018083116119cb57829003601f168201915b505050505091508080546119fb90614292565b80601f0160208091040260200160405190810160405280929190818152602001828054611a2790614292565b8015611a745780601f10611a4957610100808354040283529160200191611a74565b820191906000526020600020905b815481529060010190602001808311611a5757829003601f168201915b5050505050905095509550955095509550955091939550919395565b33600081815260076020526040812060080154606092919060ff166002811115611abc57611abc613c7f565b14611af75760405162461bcd60e51b8152602060048201526016602482015260008051602061448083398151915260448201526064016108a1565b3360009081526010602090815260409182902080548351818402810184019094528084529091830182828015611b4c57602002820191906000526020600020905b815481526020019060010190808311611b38575b505050505091505b5090565b600081118015611b6a57506001548111155b611b7357600080fd5b6000818152600a602090815260408083208151610160810183528154815260018201546001600160a01b0316938101939093526002810180549192840191611bba90614292565b80601f0160208091040260200160405190810160405280929190818152602001828054611be690614292565b8015611c335780601f10611c0857610100808354040283529160200191611c33565b820191906000526020600020905b815481529060010190602001808311611c1657829003601f168201915b50505050508152602001600382018054611c4c90614292565b80601f0160208091040260200160405190810160405280929190818152602001828054611c7890614292565b8015611cc55780601f10611c9a57610100808354040283529160200191611cc5565b820191906000526020600020905b815481529060010190602001808311611ca857829003601f168201915b50505050508152602001600482018054611cde90614292565b80601f0160208091040260200160405190810160405280929190818152602001828054611d0a90614292565b8015611d575780601f10611d2c57610100808354040283529160200191611d57565b820191906000526020600020905b815481529060010190602001808311611d3a57829003601f168201915b505050918352505060058201546020820152600682015460408201526007820154606082015260088201546080820152600982015460a0820152600a82015460c09091019060ff166002811115611db057611db0613c7f565b6002811115611dc157611dc1613c7f565b9052503360009081526007602090815260408083208151610120810183528154815260018201546001600160a01b03168185015260028201805484518187028101870186528181529798509596919592949386019391929091830182828015611e5357602002820191906000526020600020905b81546001600160a01b03168152600190910190602001808311611e35575b50505050508152602001600382018054611e6c90614292565b80601f0160208091040260200160405190810160405280929190818152602001828054611e9890614292565b8015611ee55780601f10611eba57610100808354040283529160200191611ee5565b820191906000526020600020905b815481529060010190602001808311611ec857829003601f168201915b50505050508152602001600482018054611efe90614292565b80601f0160208091040260200160405190810160405280929190818152602001828054611f2a90614292565b8015611f775780601f10611f4c57610100808354040283529160200191611f77565b820191906000526020600020905b815481529060010190602001808311611f5a57829003601f168201915b50505050508152602001600582018054611f9090614292565b80601f0160208091040260200160405190810160405280929190818152602001828054611fbc90614292565b80156120095780601f10611fde57610100808354040283529160200191612009565b820191906000526020600020905b815481529060010190602001808311611fec57829003601f168201915b5050505050815260200160068201805461202290614292565b80601f016020809104026020016040519081016040528092919081815260200182805461204e90614292565b801561209b5780601f106120705761010080835404028352916020019161209b565b820191906000526020600020905b81548152906001019060200180831161207e57829003601f168201915b505050505081526020016007820180546120b490614292565b80601f01602080910402602001604051908101604052809291908181526020018280546120e090614292565b801561212d5780601f106121025761010080835404028352916020019161212d565b820191906000526020600020905b81548152906001019060200180831161211057829003601f168201915b5050509183525050600882015460209091019060ff16600281111561215457612154613c7f565b600281111561216557612165613c7f565b9052506020830151604051919250906001600160a01b038216903480156108fc02916000818181858888f193505050501580156121a6573d6000803e3d6000fd5b50348361012001516121b89190614336565b6101208401526000848152600a602090815260409182902085518155818601516001820180546001600160a01b0319166001600160a01b03909216919091179055918501518051869392612213926002850192910190613ac9565b506060820151805161222f916003840191602090910190613ac9565b506080820151805161224b916004840191602090910190613ac9565b5060a0820151600582015560c0820151600682015560e0820151600782015561010082015160088201556101208201516009820155610140820151600a8201805460ff191660018360028111156122a4576122a4613c7f565b02179055505083518351610120860151604080516001600160a01b0387168152602081019490945283019190915260608201527f87f33b8c6f7b23d3afb937ea5ec3f31873744d11bb1c0d14d40c3d50c7a1f664915060800160405180910390a150505050565b80600080828152600a60208190526040909120015460ff16600281111561233457612334613c7f565b146123755760405162461bcd60e51b8152602060048201526011602482015270139bdd0818481858dd1a5d994810985b9d607a1b60448201526064016108a1565b3360008181526007602052604081206008015460ff16600281111561239c5761239c613c7f565b146123d75760405162461bcd60e51b8152602060048201526016602482015260008051602061448083398151915260448201526064016108a1565b600054600160a01b900460ff161561242a5760405162461bcd60e51b81526020600482015260166024820152754461707020686173206265656e2073746f707065642160501b60448201526064016108a1565b6000838152600a602052604090206001015483906001600160a01b0316331461248b5760405162461bcd60e51b8152602060048201526013602482015272596f7520617265206e6f7420417574686f722160681b60448201526064016108a1565b6000848152600a60205260409081902090517ff670bcb2dec244bf58dbd1f509b67af3cdf1916d2067fcb71fcb935c0c3566d3916124ce9187916002019061434e565b60405180910390a16000848152600a602052604081208181556001810180546001600160a01b0319169055906125076002830182613b49565b612515600383016000613b49565b612523600483016000613b49565b5060006005820181905560068201819055600782018190556008820181905560098201819055600a918201805460ff1990811690915586825260208390526040822090920180549092166002179091555b6000858152601160205260409020548110156125c75760008581526011602052604090208054829081106125aa576125aa6143ff565b6000918252602082200155806125bf8161431b565b915050612574565b5060008481526011602052604081206125df91613b86565b50505050565b60006009826040516125f791906142e9565b9081526040519081900360200190205460ff161592915050565b600060608080838033816001600160a01b03821660009081526007602052604090206008015460ff16600281111561264b5761264b613c7f565b146126865760405162461bcd60e51b8152602060048201526016602482015260008051602061448083398151915260448201526064016108a1565b87600080828152600a60208190526040909120015460ff1660028111156126af576126af613c7f565b146126f05760405162461bcd60e51b8152602060048201526011602482015270139bdd0818481858dd1a5d994810985b9d607a1b60448201526064016108a1565b6000898152600a602052604090206001810154600582015460068301546002840180546001600160a01b03909416949093600382019360049092019290859061273890614292565b80601f016020809104026020016040519081016040528092919081815260200182805461276490614292565b80156127b15780601f10612786576101008083540402835291602001916127b1565b820191906000526020600020905b81548152906001019060200180831161279457829003601f168201915b505050505094508380546127c490614292565b80601f01602080910402602001604051908101604052809291908181526020018280546127f090614292565b801561283d5780601f106128125761010080835404028352916020019161283d565b820191906000526020600020905b81548152906001019060200180831161282057829003601f168201915b5050505050935082805461285090614292565b80601f016020809104026020016040519081016040528092919081815260200182805461287c90614292565b80156128c95780601f1061289e576101008083540402835291602001916128c9565b820191906000526020600020905b8154815290600101906020018083116128ac57829003601f168201915b50505050509250975097509750975097509750505091939550919395565b600054600160a01b900460ff161561293a5760405162461bcd60e51b81526020600482015260166024820152754461707020686173206265656e2073746f707065642160501b60448201526064016108a1565b3360008181526007602052604081206008015460ff16600281111561296157612961613c7f565b1461299c5760405162461bcd60e51b8152602060048201526016602482015260008051602061448083398151915260448201526064016108a1565b816009816040516129ad91906142e9565b9081526040519081900360200190205460ff1615612a0d5760405162461bcd60e51b815260206004820152601660248201527f557365726e616d6520616c72656164792074616b656e0000000000000000000060448201526064016108a1565b33600090815260076020908152604090912084516125df92600390920191860190613ac9565b600054600160a01b900460ff1615612a865760405162461bcd60e51b81526020600482015260166024820152754461707020686173206265656e2073746f707065642160501b60448201526064016108a1565b80600080828152600f602052604090206006015460ff166002811115612aae57612aae613c7f565b14612afb5760405162461bcd60e51b815260206004820152601460248201527f4e6f7420612061637469766520636f6d6d656e7400000000000000000000000060448201526064016108a1565b3360008181526007602052604081206008015460ff166002811115612b2257612b22613c7f565b14612b5d5760405162461bcd60e51b8152602060048201526016602482015260008051602061448083398151915260448201526064016108a1565b6000838152600f602052604090206001015483906001600160a01b03163314612bbe5760405162461bcd60e51b8152602060048201526013602482015272596f7520617265206e6f7420417574686f722160681b60448201526064016108a1565b6000848152600f602052604081208181556001810180546001600160a01b03191690556002810182905590612bf66003830182613b49565b50600060048201819055600582018190556006918201805460ff19908116909155958152600f60205260409020018054909416600217909355505050565b6000546001600160a01b03163314612c835760405162461bcd60e51b8152602060048201526012602482015271596f7520617265206e6f74206f776e65722160701b60448201526064016108a1565b600054600160a01b900460ff16612cdc5760405162461bcd60e51b815260206004820152600f60248201527f416c72656164792073746172746564000000000000000000000000000000000060448201526064016108a1565b6000805460ff60a01b19169055565b3360008181526007602052604081206008015460ff166002811115612d1257612d12613c7f565b14612d4d5760405162461bcd60e51b8152602060048201526016602482015260008051602061448083398151915260448201526064016108a1565b81600080828152600a60208190526040909120015460ff166002811115612d7657612d76613c7f565b14612db75760405162461bcd60e51b8152602060048201526011602482015270139bdd0818481858dd1a5d994810985b9d607a1b60448201526064016108a1565b6000838152600e6020908152604080832033845290915290205460ff16612ddd57600080fd5b6000838152600a6020526040902060060154612dfa906001613a52565b6000848152600a6020908152604080832060060193909355600e81528282203380845290825291839020805460ff191690558251868152908101919091527f13c0152416d5d86e3b466e451e45b05d4fccfe34955f9f2771143301f46df5e991016109f4565b6000546001600160a01b03163314612eaf5760405162461bcd60e51b8152602060048201526012602482015271596f7520617265206e6f74206f776e65722160701b60448201526064016108a1565b600080546001600160a01b0319166001600160a01b0392909216919091179055565b600054600160a01b900460ff1615612f245760405162461bcd60e51b81526020600482015260166024820152754461707020686173206265656e2073746f707065642160501b60448201526064016108a1565b3360008181526007602052604081206008015460ff166002811115612f4b57612f4b613c7f565b14612f865760405162461bcd60e51b8152602060048201526016602482015260008051602061448083398151915260448201526064016108a1565b82600080828152600f602052604090206006015460ff166002811115612fae57612fae613c7f565b14612ffb5760405162461bcd60e51b815260206004820152601460248201527f4e6f7420612061637469766520636f6d6d656e7400000000000000000000000060448201526064016108a1565b6000848152600f602052604090206001015484906001600160a01b0316331461305c5760405162461bcd60e51b8152602060048201526013602482015272596f7520617265206e6f7420417574686f722160681b60448201526064016108a1565b6000858152600f60209081526040909120855161308192600390920191870190613ac9565b505050505050565b6000546001600160a01b031633146130d85760405162461bcd60e51b8152602060048201526012602482015271596f7520617265206e6f74206f776e65722160701b60448201526064016108a1565b4781111561314d5760405162461bcd60e51b8152602060048201526024808201527f576974686472617720616d6f756e742067726561746572207468616e2062616c60448201527f616e63650000000000000000000000000000000000000000000000000000000060648201526084016108a1565b604051339082156108fc029083906000818181858888f1935050505015801561317a573d6000803e3d6000fd5b5050565b3360008181526007602052604081206008015460ff1660028111156131a5576131a5613c7f565b146131e05760405162461bcd60e51b8152602060048201526016602482015260008051602061448083398151915260448201526064016108a1565b81600080828152600a60208190526040909120015460ff16600281111561320957613209613c7f565b1461324a5760405162461bcd60e51b8152602060048201526011602482015270139bdd0818481858dd1a5d994810985b9d607a1b60448201526064016108a1565b6000838152600e6020908152604080832033845290915290205460ff161561327157600080fd5b6000838152600a602052604090206006015461328e9060016137d8565b6000848152600a6020908152604080832060060193909355600e81528282203380845290825291839020805460ff191660011790558251868152908101919091527f13ee249cb5fc790394054ccd4d13c57db8565a8999913e7a637e1b1d1256c69c91016109f4565b600054600160a01b900460ff161561334a5760405162461bcd60e51b81526020600482015260166024820152754461707020686173206265656e2073746f707065642160501b60448201526064016108a1565b83600080828152600a60208190526040909120015460ff16600281111561337357613373613c7f565b146133b45760405162461bcd60e51b8152602060048201526011602482015270139bdd0818481858dd1a5d994810985b9d607a1b60448201526064016108a1565b3360008181526007602052604081206008015460ff1660028111156133db576133db613c7f565b146134165760405162461bcd60e51b8152602060048201526016602482015260008051602061448083398151915260448201526064016108a1565b6000868152600a602052604090206001015486906001600160a01b031633146134775760405162461bcd60e51b8152602060048201526013602482015272596f7520617265206e6f7420417574686f722160681b60448201526064016108a1565b6000878152600a60209081526040909120875161349c92600290920191890190613ac9565b506000878152600a6020908152604090912086516134c292600390920191880190613ac9565b506000878152600a6020908152604090912085516134e892600490920191870190613ac9565b506040518781527f0561a8b8edddeeab34482799ca642511309607378eb55cdba66deb06f06b507f9060200160405180910390a150505050505050565b600054600160a01b900460ff16156135785760405162461bcd60e51b81526020600482015260166024820152754461707020686173206265656e2073746f707065642160501b60448201526064016108a1565b3360008181526007602052604081206008015460ff16600281111561359f5761359f613c7f565b146135da5760405162461bcd60e51b8152602060048201526016602482015260008051602061448083398151915260448201526064016108a1565b6003546135e89060016137d8565b600381905583516135f857600080fd5b600180549060006136088361431b565b9190505550604051806101600160405280828152602001336001600160a01b03168152602001868152602001858152602001848152602001428152602001600081526020016000815260200160008152602001600081526020016000600281111561367557613675613c7f565b90526000828152600a602090815260409182902083518155838201516001820180546001600160a01b0319166001600160a01b039092169190911790559183015180516136c89260028501920190613ac9565b50606082015180516136e4916003840191602090910190613ac9565b5060808201518051613700916004840191602090910190613ac9565b5060a0820151600582015560c0820151600682015560e0820151600782015561010082015160088201556101208201516009820155610140820151600a8201805460ff1916600183600281111561375957613759613c7f565b021790555050336000818152600b6020908152604080832060038054825460018101845592865284862090920191909155848452600790925280832054915490517fb1091a9f12f52e907000cb53318811bfa085f61b7649ec6645fa85b611eb839595506137c994938b91614415565b60405180910390a15050505050565b6000806137e58385614336565b9050838110156138375760405162461bcd60e51b815260206004820152601b60248201527f536166654d6174683a206164646974696f6e206f766572666c6f77000000000060448201526064016108a1565b9392505050565b600160098660405161385091906142e9565b908152604051908190036020019020805491151560ff1990921691909117905560055461387e9060016137d8565b600581905560408051610120810182528281526001600160a01b03898116602080840182815260608587018181528187018e9052608087018d905260a087018c905260c087018b905260e087018a90526000610100880181905294855260078452969093208551815590516001820180546001600160a01b031916919095161790935593518051919461391992600285019290910190613ba4565b5060608201518051613935916003840191602090910190613ac9565b5060808201518051613951916004840191602090910190613ac9565b5060a0820151805161396d916005840191602090910190613ac9565b5060c08201518051613989916006840191602090910190613ac9565b5060e082015180516139a5916007840191602090910190613ac9565b5061010082015160088201805460ff191660018360028111156139ca576139ca613c7f565b0217905550905050876008886040516139e391906142e9565b908152604080516020928190038301812080546001600160a01b0319166001600160a01b03958616179055600554938c168152918201929092527fabc58c36475157c4ac7669f9adfbb6f254d3a3578fb89676f6866ac3b9950eed910160405180910390a15050505050505050565b600061383783836040518060400160405280601e81526020017f536166654d6174683a207375627472616374696f6e206f766572666c6f77000081525060008184841115613ab35760405162461bcd60e51b81526004016108a19190614455565b506000613ac08486614468565b95945050505050565b828054613ad590614292565b90600052602060002090601f016020900481019282613af75760008555613b3d565b82601f10613b1057805160ff1916838001178555613b3d565b82800160010185558215613b3d579182015b82811115613b3d578251825591602001919060010190613b22565b50611b54929150613bf9565b508054613b5590614292565b6000825580601f10613b65575050565b601f016020900490600052602060002090810190613b839190613bf9565b50565b5080546000825590600052602060002090810190613b839190613bf9565b828054828255906000526020600020908101928215613b3d579160200282015b82811115613b3d57825182546001600160a01b0319166001600160a01b03909116178255602090920191600190910190613bc4565b5b80821115611b545760008155600101613bfa565b600060208284031215613c2057600080fd5b5035919050565b60005b83811015613c42578181015183820152602001613c2a565b838111156125df5750506000910152565b60008151808452613c6b816020860160208601613c27565b601f01601f19169290920160200192915050565b634e487b7160e01b600052602160045260246000fd5b60038110613b8357634e487b7160e01b600052602160045260246000fd5b6001600160a01b038716815285602082015260c060408201526000613cdb60c0830187613c53565b9050846060830152836080830152613cf283613c95565b8260a0830152979650505050505050565b6001600160a01b0381168114613b8357600080fd5b8035613d2381613d03565b919050565b600060208284031215613d3a57600080fd5b813561383781613d03565b60208101613d5283613c95565b91905290565b6020808252825182820181905260009190848201906040850190845b81811015613d9057835183529284019291840191600101613d74565b50909695505050505050565b634e487b7160e01b600052604160045260246000fd5b600082601f830112613dc357600080fd5b813567ffffffffffffffff80821115613dde57613dde613d9c565b604051601f8301601f19908116603f01168101908282118183101715613e0657613e06613d9c565b81604052838152866020858801011115613e1f57600080fd5b836020870160208301376000602085830101528094505050505092915050565b60008060008060008060c08789031215613e5857600080fd5b613e6187613d18565b9550602087013567ffffffffffffffff80821115613e7e57600080fd5b613e8a8a838b01613db2565b96506040890135915080821115613ea057600080fd5b613eac8a838b01613db2565b95506060890135915080821115613ec257600080fd5b613ece8a838b01613db2565b94506080890135915080821115613ee457600080fd5b613ef08a838b01613db2565b935060a0890135915080821115613f0657600080fd5b50613f1389828a01613db2565b9150509295509295509295565b60008060408385031215613f3357600080fd5b82359150602083013567ffffffffffffffff811115613f5157600080fd5b613f5d85828601613db2565b9150509250929050565b60008060408385031215613f7a57600080fd5b823591506020830135613f8c81613d03565b809150509250929050565b600080600080600060a08688031215613faf57600080fd5b853567ffffffffffffffff80821115613fc757600080fd5b613fd389838a01613db2565b96506020880135915080821115613fe957600080fd5b613ff589838a01613db2565b9550604088013591508082111561400b57600080fd5b61401789838a01613db2565b9450606088013591508082111561402d57600080fd5b61403989838a01613db2565b9350608088013591508082111561404f57600080fd5b5061405c88828901613db2565b9150509295509295909350565b86815260c06020820152600061408260c0830188613c53565b82810360408401526140948188613c53565b905082810360608401526140a88187613c53565b905082810360808401526140bc8186613c53565b905082810360a08401526140d08185613c53565b9998505050505050505050565b6000602082840312156140ef57600080fd5b813567ffffffffffffffff81111561410657600080fd5b61411284828501613db2565b949350505050565b6001600160a01b038716815260c06020820152600061413c60c0830188613c53565b828103604084015261414e8188613c53565b905082810360608401526141628187613c53565b6080840195909552505060a00152949350505050565b6000806000806080858703121561418e57600080fd5b84359350602085013567ffffffffffffffff808211156141ad57600080fd5b6141b988838901613db2565b945060408701359150808211156141cf57600080fd5b6141db88838901613db2565b935060608701359150808211156141f157600080fd5b506141fe87828801613db2565b91505092959194509250565b60008060006060848603121561421f57600080fd5b833567ffffffffffffffff8082111561423757600080fd5b61424387838801613db2565b9450602086013591508082111561425957600080fd5b61426587838801613db2565b9350604086013591508082111561427b57600080fd5b5061428886828701613db2565b9150509250925092565b600181811c908216806142a657607f821691505b60208210811415610d7257634e487b7160e01b600052602260045260246000fd5b6001600160a01b03831681526040602082015260006141126040830184613c53565b600082516142fb818460208701613c27565b9190910192915050565b634e487b7160e01b600052601160045260246000fd5b600060001982141561432f5761432f614305565b5060010190565b6000821982111561434957614349614305565b500190565b828152600060206040818401526000845481600182811c91508083168061437657607f831692505b85831081141561439457634e487b7160e01b85526022600452602485fd5b60408801839052606088018180156143b357600181146143c4576143ef565b60ff198616825287820196506143ef565b60008b81526020902060005b868110156143e9578154848201529085019089016143d0565b83019750505b50949a9950505050505050505050565b634e487b7160e01b600052603260045260246000fd5b6001600160a01b038616815284602082015283604082015260a06060820152600061444360a0830185613c53565b90508260808301529695505050505050565b6020815260006138376020830184613c53565b60008282101561447a5761447a614305565b50039056fe4e6f742061205265676973746572656420557365722100000000000000000000a2646970667358221220f23a959e41eaf92d576a6b5d11bc5cfe10a6e0fb9304943ce97ee07d8f67ccaa64736f6c63430008080033",
  "linkReferences": {},
  "deployedLinkReferences": {}
}