{
  "_format": "hh-sol-artifact-1",
  "contractName": "Dbanta",
  "sourceName": "contracts/dbanta.sol",
  "abi": [
    {
      "inputs": [],
      "stateMutability": "nonpayable",
      "type": "constructor"
    },
    {
      "anonymous": false,
      "inputs": [
        {
          "indexed": false,
          "internalType": "address payable",
          "name": "author",
          "type": "address"
        },
        {
          "indexed": false,
          "internalType": "uint256",
          "name": "userid",
          "type": "uint256"
        },
        {
          "indexed": false,
          "internalType": "uint256",
          "name": "bantid",
          "type": "uint256"
        },
        {
          "indexed": false,
          "internalType": "uint256",
          "name": "tipVote",
          "type": "uint256"
        }
      ],
      "name": "bantVoted",
      "type": "event"
    },
    {
      "anonymous": false,
      "inputs": [
        {
          "indexed": false,
          "internalType": "address payable",
          "name": "author",
          "type": "address"
        },
        {
          "indexed": false,
          "internalType": "uint256",
          "name": "userid",
          "type": "uint256"
        },
        {
          "indexed": false,
          "internalType": "uint256",
          "name": "bantid",
          "type": "uint256"
        },
        {
          "indexed": false,
          "internalType": "string",
          "name": "hashtag",
          "type": "string"
        },
        {
          "indexed": false,
          "internalType": "uint256",
          "name": "tipVote",
          "type": "uint256"
        }
      ],
      "name": "logBantCreated",
      "type": "event"
    },
    {
      "anonymous": false,
      "inputs": [
        {
          "indexed": false,
          "internalType": "uint256",
          "name": "id",
          "type": "uint256"
        },
        {
          "indexed": false,
          "internalType": "string",
          "name": "hashtag",
          "type": "string"
        }
      ],
      "name": "logBantDeleted",
      "type": "event"
    },
    {
      "anonymous": false,
      "inputs": [
        {
          "indexed": false,
          "internalType": "address",
          "name": "user",
          "type": "address"
        },
        {
          "indexed": false,
          "internalType": "uint256",
          "name": "id",
          "type": "uint256"
        }
      ],
      "name": "logRegisterUser",
      "type": "event"
    },
    {
      "anonymous": false,
      "inputs": [
        {
          "indexed": false,
          "internalType": "address",
          "name": "user",
          "type": "address"
        },
        {
          "indexed": false,
          "internalType": "uint256",
          "name": "id",
          "type": "uint256"
        }
      ],
      "name": "logUserBanned",
      "type": "event"
    },
    {
      "anonymous": false,
      "inputs": [
        {
          "indexed": false,
          "internalType": "address",
          "name": "user",
          "type": "address"
        },
        {
          "indexed": false,
          "internalType": "address",
          "name": "follower",
          "type": "address"
        }
      ],
      "name": "newfollowers",
      "type": "event"
    },
    {
      "stateMutability": "nonpayable",
      "type": "fallback"
    },
    {
      "inputs": [],
      "name": "bantCount",
      "outputs": [
        {
          "internalType": "uint256",
          "name": "",
          "type": "uint256"
        }
      ],
      "stateMutability": "view",
      "type": "function"
    },
    {
      "inputs": [
        {
          "internalType": "address payable",
          "name": "_newOwner",
          "type": "address"
        }
      ],
      "name": "changeOwner",
      "outputs": [],
      "stateMutability": "nonpayable",
      "type": "function"
    },
    {
      "inputs": [
        {
          "internalType": "string",
          "name": "_username",
          "type": "string"
        }
      ],
      "name": "changeUsername",
      "outputs": [],
      "stateMutability": "nonpayable",
      "type": "function"
    },
    {
      "inputs": [
        {
          "internalType": "string",
          "name": "_hashtag",
          "type": "string"
        },
        {
          "internalType": "string",
          "name": "_content",
          "type": "string"
        },
        {
          "internalType": "string",
          "name": "_imghash",
          "type": "string"
        }
      ],
      "name": "createBant",
      "outputs": [],
      "stateMutability": "nonpayable",
      "type": "function"
    },
    {
      "inputs": [
        {
          "internalType": "uint256",
          "name": "_bantid",
          "type": "uint256"
        },
        {
          "internalType": "string",
          "name": "_comment",
          "type": "string"
        }
      ],
      "name": "createComment",
      "outputs": [],
      "stateMutability": "nonpayable",
      "type": "function"
    },
    {
      "inputs": [
        {
          "internalType": "uint256",
          "name": "_id",
          "type": "uint256"
        }
      ],
      "name": "deleteBant",
      "outputs": [],
      "stateMutability": "nonpayable",
      "type": "function"
    },
    {
      "inputs": [
        {
          "internalType": "uint256",
          "name": "_id",
          "type": "uint256"
        }
      ],
      "name": "deleteComment",
      "outputs": [],
      "stateMutability": "nonpayable",
      "type": "function"
    },
    {
      "inputs": [
        {
          "internalType": "uint256",
          "name": "_id",
          "type": "uint256"
        },
        {
          "internalType": "string",
          "name": "_hashtag",
          "type": "string"
        },
        {
          "internalType": "string",
          "name": "_content",
          "type": "string"
        },
        {
          "internalType": "string",
          "name": "_imghash",
          "type": "string"
        }
      ],
      "name": "editBant",
      "outputs": [],
      "stateMutability": "nonpayable",
      "type": "function"
    },
    {
      "inputs": [
        {
          "internalType": "uint256",
          "name": "_commentid",
          "type": "uint256"
        },
        {
          "internalType": "string",
          "name": "_comment",
          "type": "string"
        }
      ],
      "name": "editComment",
      "outputs": [],
      "stateMutability": "nonpayable",
      "type": "function"
    },
    {
      "inputs": [
        {
          "internalType": "address",
          "name": "_person",
          "type": "address"
        }
      ],
      "name": "followusers",
      "outputs": [],
      "stateMutability": "nonpayable",
      "type": "function"
    },
    {
      "inputs": [],
      "name": "getBalance",
      "outputs": [
        {
          "internalType": "uint256",
          "name": "balance",
          "type": "uint256"
        }
      ],
      "stateMutability": "view",
      "type": "function"
    },
    {
      "inputs": [
        {
          "internalType": "uint256",
          "name": "_id",
          "type": "uint256"
        }
      ],
      "name": "getBant",
      "outputs": [
        {
          "internalType": "address",
          "name": "author",
          "type": "address"
        },
        {
          "internalType": "string",
          "name": "hashtag",
          "type": "string"
        },
        {
          "internalType": "string",
          "name": "content",
          "type": "string"
        },
        {
          "internalType": "string",
          "name": "imgHash",
          "type": "string"
        },
        {
          "internalType": "uint256",
          "name": "timestamp",
          "type": "uint256"
        },
        {
          "internalType": "uint256",
          "name": "likeCount",
          "type": "uint256"
        }
      ],
      "stateMutability": "view",
      "type": "function"
    },
    {
      "inputs": [
        {
          "internalType": "uint256",
          "name": "_id",
          "type": "uint256"
        }
      ],
      "name": "getBantComments",
      "outputs": [
        {
          "internalType": "uint256[]",
          "name": "list",
          "type": "uint256[]"
        }
      ],
      "stateMutability": "view",
      "type": "function"
    },
    {
      "inputs": [
        {
          "internalType": "uint256",
          "name": "_id",
          "type": "uint256"
        }
      ],
      "name": "getComment",
      "outputs": [
        {
          "internalType": "address",
          "name": "author",
          "type": "address"
        },
        {
          "internalType": "uint256",
          "name": "bantId",
          "type": "uint256"
        },
        {
          "internalType": "string",
          "name": "content",
          "type": "string"
        },
        {
          "internalType": "uint256",
          "name": "likeCount",
          "type": "uint256"
        },
        {
          "internalType": "uint256",
          "name": "timestamp",
          "type": "uint256"
        },
        {
          "internalType": "enum Dbanta.cdStatus",
          "name": "status",
          "type": "uint8"
        }
      ],
      "stateMutability": "view",
      "type": "function"
    },
    {
      "inputs": [],
      "name": "getTotalUserBants",
      "outputs": [
        {
          "internalType": "uint256",
          "name": "",
          "type": "uint256"
        }
      ],
      "stateMutability": "view",
      "type": "function"
    },
    {
      "inputs": [
        {
          "internalType": "address",
          "name": "_user",
          "type": "address"
        }
      ],
      "name": "getUser",
      "outputs": [
        {
          "internalType": "uint256",
          "name": "id",
          "type": "uint256"
        },
        {
          "internalType": "string",
          "name": "username",
          "type": "string"
        },
        {
          "internalType": "string",
          "name": "name",
          "type": "string"
        },
        {
          "internalType": "string",
          "name": "imghash",
          "type": "string"
        },
        {
          "internalType": "string",
          "name": "coverhash",
          "type": "string"
        },
        {
          "internalType": "string",
          "name": "bio",
          "type": "string"
        }
      ],
      "stateMutability": "view",
      "type": "function"
    },
    {
      "inputs": [],
      "name": "getUserBants",
      "outputs": [
        {
          "internalType": "uint256[]",
          "name": "bantList",
          "type": "uint256[]"
        }
      ],
      "stateMutability": "view",
      "type": "function"
    },
    {
      "inputs": [
        {
          "internalType": "address",
          "name": "_user",
          "type": "address"
        }
      ],
      "name": "getUserBants",
      "outputs": [
        {
          "internalType": "uint256[]",
          "name": "bantList",
          "type": "uint256[]"
        }
      ],
      "stateMutability": "view",
      "type": "function"
    },
    {
      "inputs": [
        {
          "internalType": "address",
          "name": "_user",
          "type": "address"
        }
      ],
      "name": "getUserComments",
      "outputs": [
        {
          "internalType": "uint256[]",
          "name": "commentList",
          "type": "uint256[]"
        }
      ],
      "stateMutability": "view",
      "type": "function"
    },
    {
      "inputs": [],
      "name": "getUserComments",
      "outputs": [
        {
          "internalType": "uint256[]",
          "name": "commentList",
          "type": "uint256[]"
        }
      ],
      "stateMutability": "view",
      "type": "function"
    },
    {
      "inputs": [
        {
          "internalType": "uint256",
          "name": "_id",
          "type": "uint256"
        }
      ],
      "name": "likeBant",
      "outputs": [],
      "stateMutability": "nonpayable",
      "type": "function"
    },
    {
      "inputs": [],
      "name": "owner",
      "outputs": [
        {
          "internalType": "address",
          "name": "",
          "type": "address"
        }
      ],
      "stateMutability": "view",
      "type": "function"
    },
    {
      "inputs": [
        {
          "internalType": "string",
          "name": "_username",
          "type": "string"
        },
        {
          "internalType": "string",
          "name": "_name",
          "type": "string"
        },
        {
          "internalType": "string",
          "name": "_imgHash",
          "type": "string"
        },
        {
          "internalType": "string",
          "name": "_coverHash",
          "type": "string"
        },
        {
          "internalType": "string",
          "name": "_bio",
          "type": "string"
        }
      ],
      "name": "registerUser",
      "outputs": [],
      "stateMutability": "nonpayable",
      "type": "function"
    },
    {
      "inputs": [],
      "name": "startDapp",
      "outputs": [],
      "stateMutability": "nonpayable",
      "type": "function"
    },
    {
      "inputs": [],
      "name": "stopDapp",
      "outputs": [],
      "stateMutability": "nonpayable",
      "type": "function"
    },
    {
      "inputs": [],
      "name": "stopped",
      "outputs": [
        {
          "internalType": "bool",
          "name": "",
          "type": "bool"
        }
      ],
      "stateMutability": "view",
      "type": "function"
    },
    {
      "inputs": [
        {
          "internalType": "uint256",
          "name": "_id",
          "type": "uint256"
        }
      ],
      "name": "tipPost",
      "outputs": [],
      "stateMutability": "payable",
      "type": "function"
    },
    {
      "inputs": [],
      "name": "totalBants",
      "outputs": [
        {
          "internalType": "uint256",
          "name": "",
          "type": "uint256"
        }
      ],
      "stateMutability": "view",
      "type": "function"
    },
    {
      "inputs": [],
      "name": "totalComments",
      "outputs": [
        {
          "internalType": "uint256",
          "name": "",
          "type": "uint256"
        }
      ],
      "stateMutability": "view",
      "type": "function"
    },
    {
      "inputs": [],
      "name": "totalUsers",
      "outputs": [
        {
          "internalType": "uint256",
          "name": "",
          "type": "uint256"
        }
      ],
      "stateMutability": "view",
      "type": "function"
    },
    {
      "inputs": [
        {
          "internalType": "uint256",
          "name": "_amount",
          "type": "uint256"
        }
      ],
      "name": "transferContractBalance",
      "outputs": [],
      "stateMutability": "nonpayable",
      "type": "function"
    },
    {
      "inputs": [
        {
          "internalType": "address",
          "name": "_useraddr",
          "type": "address"
        }
      ],
      "name": "userStatus",
      "outputs": [
        {
          "internalType": "enum Dbanta.accountStatus",
          "name": "status",
          "type": "uint8"
        }
      ],
      "stateMutability": "view",
      "type": "function"
    },
    {
      "inputs": [
        {
          "internalType": "string",
          "name": "_username",
          "type": "string"
        }
      ],
      "name": "usernameAvailable",
      "outputs": [
        {
          "internalType": "bool",
          "name": "status",
          "type": "bool"
        }
      ],
      "stateMutability": "view",
      "type": "function"
    }
  ],
  "bytecode": "0x60806040526000805460ff60a01b191681556001819055600281905560038190556004553480156200003057600080fd5b50600080546001600160a01b0319163317815560408051808201825260058082526437bbb732b960d91b6020808401829052845180860186528381528082018390528551808301875287815286518084018852978852865180880190975293865290850191909152620000a8949293909290620000ae565b6200065e565b600054600160a01b900460ff16156200010e5760405162461bcd60e51b815260206004820152601660248201527f4461707020686173206265656e2073746f70706564210000000000000000000060448201526064015b60405180910390fd5b3360008181526005602052604081206008015460ff166002811115620001385762000138620005a6565b14620001875760405162461bcd60e51b815260206004820152601760248201527f5573657220616c72656164792072656769737465726564000000000000000000604482015260640162000105565b856007816040516200019a9190620005bc565b9081526040519081900360200190205460ff1615620001fc5760405162461bcd60e51b815260206004820152601660248201527f557365726e616d6520616c72656164792074616b656e00000000000000000000604482015260640162000105565b6001600788604051620002109190620005bc565b908152602001604051809103902060006101000a81548160ff0219169083151502179055506200025260016004546200043e60201b620032061790919060201c565b6004819055604080516101208101825282815233602082015260609181018290528082018a90526080810189905260a0810188905260c0810187905260e081018690526101008101600090523360009081526005602090815260409182902083518155838201516001820180546001600160a01b0319166001600160a01b03909216919091179055918301518051620002f29260028501920190620004a8565b50606082015180516200031091600384019160209091019062000512565b50608082015180516200032e91600484019160209091019062000512565b5060a082015180516200034c91600584019160209091019062000512565b5060c082015180516200036a91600684019160209091019062000512565b5060e082015180516200038891600784019160209091019062000512565b5061010082015160088201805460ff19166001836002811115620003b057620003b0620005a6565b02179055509050503360068a604051620003cb9190620005bc565b908152604080516020928190038301812080546001600160a01b0319166001600160a01b039590951694909417909355600454338452918301919091527fabc58c36475157c4ac7669f9adfbb6f254d3a3578fb89676f6866ac3b9950eed910160405180910390a1505050505050505050565b6000806200044d8385620005fa565b905083811015620004a15760405162461bcd60e51b815260206004820152601b60248201527f536166654d6174683a206164646974696f6e206f766572666c6f770000000000604482015260640162000105565b9392505050565b82805482825590600052602060002090810192821562000500579160200282015b828111156200050057825182546001600160a01b0319166001600160a01b03909116178255602090920191600190910190620004c9565b506200050e9291506200058f565b5090565b828054620005209062000621565b90600052602060002090601f01602090048101928262000544576000855562000500565b82601f106200055f57805160ff191683800117855562000500565b8280016001018555821562000500579182015b828111156200050057825182559160200191906001019062000572565b5b808211156200050e576000815560010162000590565b634e487b7160e01b600052602160045260246000fd5b6000825160005b81811015620005df5760208186018101518583015201620005c3565b81811115620005ef576000828501525b509190910192915050565b600082198211156200061c57634e487b7160e01b600052601160045260246000fd5b500190565b600181811c908216806200063657607f821691505b602082108114156200065857634e487b7160e01b600052602260045260246000fd5b50919050565b613aeb806200066e6000396000f3fe6080604052600436106101fe5760003560e01c806374dfaa821161011d578063a6f9dae1116100b0578063beee20dc1161007f578063c039b58411610064578063c039b58414610614578063ef2f030d14610634578063ff99fa1f14610654576101fe565b8063beee20dc146105de578063bff1f9e1146105fe576101fe565b8063a6f9dae114610568578063ac9f0a4014610588578063ad816029146105a8578063b9394ad4146105c8576101fe565b806377c846af116100ec57806377c846af146104db5780637d0b1026146104fb5780638da5cb5b1461051b57806395d2cc9214610553576101fe565b806374dfaa821461043857806374ebaadc1461045857806375f12b2114610488578063764a614a146104a9576101fe565b806333aa01e91161019557806361936b811161016457806361936b81146103c85780636f77926b146103de578063719b741d1461041057806374d3c1f814610425576101fe565b806333aa01e91461035157806339629a361461036657806340a179851461038657806360a4e427146103a6576101fe565b8063225d29a1116101d1578063225d29a1146102b25780632b27465b146102fb5780632b3c6e2214610311578063325d748e14610331576101fe565b80630800e3001461021057806309175a571461024b57806312065fe01461026d578063223757cb14610290575b34801561020a57600080fd5b50600080fd5b34801561021c57600080fd5b5061023061022b3660046133b1565b610674565b60405161024296959493929190613456565b60405180910390f35b34801561025757600080fd5b50610260610852565b60405161024291906134a6565b34801561027957600080fd5b50610282610925565b604051908152602001610242565b34801561029c57600080fd5b506102b06102ab3660046134ff565b61097a565b005b3480156102be57600080fd5b506102ee6102cd3660046134ff565b6001600160a01b031660009081526005602052604090206008015460ff1690565b604051610242919061351c565b34801561030757600080fd5b5061028260025481565b34801561031d57600080fd5b5061026061032c3660046134ff565b6109fb565b34801561033d57600080fd5b5061026061034c3660046134ff565b610ad9565b34801561035d57600080fd5b506102b0610bb4565b34801561037257600080fd5b506102606103813660046133b1565b610c72565b34801561039257600080fd5b506102b06103a13660046135d2565b610daf565b3480156103b257600080fd5b5033600090815260096020526040902054610282565b3480156103d457600080fd5b5061028260035481565b3480156103ea57600080fd5b506103fe6103f93660046134ff565b611003565b60405161024296959493929190613619565b34801561041c57600080fd5b50610260611316565b6102b06104333660046133b1565b6113e6565b34801561044457600080fd5b506102b06104533660046133b1565b611b84565b34801561046457600080fd5b5061047861047336600461368d565b611e63565b6040519015158152602001610242565b34801561049457600080fd5b5060005461047890600160a01b900460ff1681565b3480156104b557600080fd5b506104c96104c43660046133b1565b611e8f565b604051610242969594939291906136ca565b3480156104e757600080fd5b506102b06104f636600461368d565b61216f565b34801561050757600080fd5b506102b06105163660046133b1565b6122c6565b34801561052757600080fd5b5060005461053b906001600160a01b031681565b6040516001600160a01b039091168152602001610242565b34801561055f57600080fd5b506102b06124d2565b34801561057457600080fd5b506102b06105833660046134ff565b612589565b34801561059457600080fd5b506102b06105a3366004613728565b6125fa565b3480156105b457600080fd5b506102b06105c33660046135d2565b61294d565b3480156105d457600080fd5b5061028260015481565b3480156105ea57600080fd5b506102b06105f93660046133b1565b612b10565b34801561060a57600080fd5b5061028260045481565b34801561062057600080fd5b506102b061062f3660046133b1565b612c05565b34801561064057600080fd5b506102b061064f3660046137fa565b612d55565b34801561066057600080fd5b506102b061066f36600461388c565b612f5a565b600080606081808033816001600160a01b03821660009081526005602052604090206008015460ff1660028111156106ae576106ae613422565b146106f95760405162461bcd60e51b81526020600482015260166024820152754e6f742061205265676973746572656420557365722160501b60448201526064015b60405180910390fd5b87600080828152600b602052604090206006015460ff16600281111561072157610721613422565b1461076e5760405162461bcd60e51b815260206004820152601460248201527f4e6f7420612061637469766520636f6d6d656e7400000000000000000000000060448201526064016106f0565b6000898152600b6020526040902060018101546002820154600483015460058401546006850154600390950180546001600160a01b03909516959394909360ff169084906107bb90613914565b80601f01602080910402602001604051908101604052809291908181526020018280546107e790613914565b80156108345780601f1061080957610100808354040283529160200191610834565b820191906000526020600020905b81548152906001019060200180831161081757829003601f168201915b50505050509350975097509750975097509750505091939550919395565b33600081815260056020526040812060080154606092919060ff16600281111561087e5761087e613422565b146108c45760405162461bcd60e51b81526020600482015260166024820152754e6f742061205265676973746572656420557365722160501b60448201526064016106f0565b336000908152600960209081526040918290208054835181840281018401909452808452909183018282801561091957602002820191906000526020600020905b815481526020019060010190808311610905575b505050505091505b5090565b600080546001600160a01b031633146109755760405162461bcd60e51b8152602060048201526012602482015271596f7520617265206e6f74206f776e65722160701b60448201526064016106f0565b504790565b6001600160a01b03811660008181526005602090815260408083206002810180546001810182559085529383902090930180546001600160a01b0319163390811790915581519485529184019190915290917fd9ac212dba415b860553899b53a3a0f59da2e3ff60d443bb4ae635f79c60b742910160405180910390a15050565b33600081815260056020526040812060080154606092919060ff166002811115610a2757610a27613422565b14610a6d5760405162461bcd60e51b81526020600482015260166024820152754e6f742061205265676973746572656420557365722160501b60448201526064016106f0565b6001600160a01b0383166000908152600c602090815260409182902080548351818402810184019094528084529091830182828015610acb57602002820191906000526020600020905b815481526020019060010190808311610ab7575b505050505091505b50919050565b33600081815260056020526040812060080154606092919060ff166002811115610b0557610b05613422565b14610b4b5760405162461bcd60e51b81526020600482015260166024820152754e6f742061205265676973746572656420557365722160501b60448201526064016106f0565b6001600160a01b03831660009081526009602090815260409182902080548351818402810184019094528084529091830182828015610acb5760200282019190600052602060002090815481526020019060010190808311610ab7575050505050915050919050565b6000546001600160a01b03163314610c035760405162461bcd60e51b8152602060048201526012602482015271596f7520617265206e6f74206f776e65722160701b60448201526064016106f0565b600054600160a01b900460ff1615610c5d5760405162461bcd60e51b815260206004820152600f60248201527f416c72656164792073746f70706564000000000000000000000000000000000060448201526064016106f0565b6000805460ff60a01b1916600160a01b179055565b33600081815260056020526040812060080154606092919060ff166002811115610c9e57610c9e613422565b14610ce45760405162461bcd60e51b81526020600482015260166024820152754e6f742061205265676973746572656420557365722160501b60448201526064016106f0565b826000808281526008602052604090206009015460ff166002811115610d0c57610d0c613422565b14610d4d5760405162461bcd60e51b8152602060048201526011602482015270139bdd0818481858dd1a5d994810985b9d607a1b60448201526064016106f0565b6000848152600d602090815260409182902080548351818402810184019094528084529091830182828015610da157602002820191906000526020600020905b815481526020019060010190808311610d8d575b505050505092505050919050565b600054600160a01b900460ff1615610e025760405162461bcd60e51b81526020600482015260166024820152754461707020686173206265656e2073746f707065642160501b60448201526064016106f0565b3360008181526005602052604081206008015460ff166002811115610e2957610e29613422565b14610e6f5760405162461bcd60e51b81526020600482015260166024820152754e6f742061205265676973746572656420557365722160501b60448201526064016106f0565b826000808281526008602052604090206009015460ff166002811115610e9757610e97613422565b14610ed85760405162461bcd60e51b8152602060048201526011602482015270139bdd0818481858dd1a5d994810985b9d607a1b60448201526064016106f0565b600354610ee6906001613206565b60038190556040805160e081018252828152336020820152908101869052606081018590526000608082018190524260a083015260c08201526000828152600b602090815260409182902083518155838201516001820180546001600160a01b0319166001600160a01b0390921691909117905591830151600283015560608301518051610f7a926003850192019061326c565b506080820151600482015560a0820151600582015560c082015160068201805460ff19166001836002811115610fb257610fb2613422565b021790555050336000908152600c60209081526040808320600380548254600181810185559387528587200155998452600d8352908320985489549182018a55988352912001959095555050505050565b6001600160a01b038116600090815260056020819052604082208054600382018054606094859485948594859491939092600481019291810191600682019160070190859061105190613914565b80601f016020809104026020016040519081016040528092919081815260200182805461107d90613914565b80156110ca5780601f1061109f576101008083540402835291602001916110ca565b820191906000526020600020905b8154815290600101906020018083116110ad57829003601f168201915b505050505094508380546110dd90613914565b80601f016020809104026020016040519081016040528092919081815260200182805461110990613914565b80156111565780601f1061112b57610100808354040283529160200191611156565b820191906000526020600020905b81548152906001019060200180831161113957829003601f168201915b5050505050935082805461116990613914565b80601f016020809104026020016040519081016040528092919081815260200182805461119590613914565b80156111e25780601f106111b7576101008083540402835291602001916111e2565b820191906000526020600020905b8154815290600101906020018083116111c557829003601f168201915b505050505092508180546111f590613914565b80601f016020809104026020016040519081016040528092919081815260200182805461122190613914565b801561126e5780601f106112435761010080835404028352916020019161126e565b820191906000526020600020905b81548152906001019060200180831161125157829003601f168201915b5050505050915080805461128190613914565b80601f01602080910402602001604051908101604052809291908181526020018280546112ad90613914565b80156112fa5780601f106112cf576101008083540402835291602001916112fa565b820191906000526020600020905b8154815290600101906020018083116112dd57829003601f168201915b5050505050905095509550955095509550955091939550919395565b33600081815260056020526040812060080154606092919060ff16600281111561134257611342613422565b146113885760405162461bcd60e51b81526020600482015260166024820152754e6f742061205265676973746572656420557365722160501b60448201526064016106f0565b336000908152600c602090815260409182902080548351818402810184019094528084529091830182828015610919576020028201919060005260206000209081548152602001906001019080831161090557505050505091505090565b6000811180156113f857506001548111155b61140157600080fd5b60008181526008602090815260408083208151610140810183528154815260018201546001600160a01b031693810193909352600281018054919284019161144890613914565b80601f016020809104026020016040519081016040528092919081815260200182805461147490613914565b80156114c15780601f10611496576101008083540402835291602001916114c1565b820191906000526020600020905b8154815290600101906020018083116114a457829003601f168201915b505050505081526020016003820180546114da90613914565b80601f016020809104026020016040519081016040528092919081815260200182805461150690613914565b80156115535780601f1061152857610100808354040283529160200191611553565b820191906000526020600020905b81548152906001019060200180831161153657829003601f168201915b5050505050815260200160048201805461156c90613914565b80601f016020809104026020016040519081016040528092919081815260200182805461159890613914565b80156115e55780601f106115ba576101008083540402835291602001916115e5565b820191906000526020600020905b8154815290600101906020018083116115c857829003601f168201915b505050918352505060058201546020820152600682015460408201526007820154606082015260088201546080820152600982015460a09091019060ff16600281111561163457611634613422565b600281111561164557611645613422565b9052503360009081526005602090815260408083208151610120810183528154815260018201546001600160a01b031681850152600282018054845181870281018701865281815297985095969195929493860193919290918301828280156116d757602002820191906000526020600020905b81546001600160a01b031681526001909101906020018083116116b9575b505050505081526020016003820180546116f090613914565b80601f016020809104026020016040519081016040528092919081815260200182805461171c90613914565b80156117695780601f1061173e57610100808354040283529160200191611769565b820191906000526020600020905b81548152906001019060200180831161174c57829003601f168201915b5050505050815260200160048201805461178290613914565b80601f01602080910402602001604051908101604052809291908181526020018280546117ae90613914565b80156117fb5780601f106117d0576101008083540402835291602001916117fb565b820191906000526020600020905b8154815290600101906020018083116117de57829003601f168201915b5050505050815260200160058201805461181490613914565b80601f016020809104026020016040519081016040528092919081815260200182805461184090613914565b801561188d5780601f106118625761010080835404028352916020019161188d565b820191906000526020600020905b81548152906001019060200180831161187057829003601f168201915b505050505081526020016006820180546118a690613914565b80601f01602080910402602001604051908101604052809291908181526020018280546118d290613914565b801561191f5780601f106118f45761010080835404028352916020019161191f565b820191906000526020600020905b81548152906001019060200180831161190257829003601f168201915b5050505050815260200160078201805461193890613914565b80601f016020809104026020016040519081016040528092919081815260200182805461196490613914565b80156119b15780601f10611986576101008083540402835291602001916119b1565b820191906000526020600020905b81548152906001019060200180831161199457829003601f168201915b5050509183525050600882015460209091019060ff1660028111156119d8576119d8613422565b60028111156119e9576119e9613422565b9052506020830151604051919250906001600160a01b038216903480156108fc02916000818181858888f19350505050158015611a2a573d6000803e3d6000fd5b5034836101000151611a3c919061395f565b61010084015260008481526008602090815260409182902085518155818601516001820180546001600160a01b0319166001600160a01b03909216919091179055918501518051869392611a9792600285019291019061326c565b5060608201518051611ab391600384019160209091019061326c565b5060808201518051611acf91600484019160209091019061326c565b5060a0820151600582015560c0820151600682015560e08201516007820155610100820151600882015561012082015160098201805460ff19166001836002811115611b1d57611b1d613422565b02179055505083518351610100860151604080516001600160a01b0387168152602081019490945283019190915260608201527f87f33b8c6f7b23d3afb937ea5ec3f31873744d11bb1c0d14d40c3d50c7a1f664915060800160405180910390a150505050565b806000808281526008602052604090206009015460ff166002811115611bac57611bac613422565b14611bed5760405162461bcd60e51b8152602060048201526011602482015270139bdd0818481858dd1a5d994810985b9d607a1b60448201526064016106f0565b3360008181526005602052604081206008015460ff166002811115611c1457611c14613422565b14611c5a5760405162461bcd60e51b81526020600482015260166024820152754e6f742061205265676973746572656420557365722160501b60448201526064016106f0565b600054600160a01b900460ff1615611cad5760405162461bcd60e51b81526020600482015260166024820152754461707020686173206265656e2073746f707065642160501b60448201526064016106f0565b60008381526008602052604090206001015483906001600160a01b03163314611d0e5760405162461bcd60e51b8152602060048201526013602482015272596f7520617265206e6f7420417574686f722160681b60448201526064016106f0565b6000848152600860205260409081902090517ff670bcb2dec244bf58dbd1f509b67af3cdf1916d2067fcb71fcb935c0c3566d391611d5191879160020190613977565b60405180910390a160008481526008602052604081208181556001810180546001600160a01b031916905590611d8a60028301826132ec565b611d986003830160006132ec565b611da66004830160006132ec565b50600060058201819055600682018190556007820181905560088083018290556009928301805460ff199081169091558783526020919091526040822090920180549092166002179091555b6000858152600d6020526040902054811015611e45576000858152600d60205260409020805482908110611e2857611e28613a28565b600091825260208220015580611e3d81613a3e565b915050611df2565b506000848152600d60205260408120611e5d91613329565b50505050565b6000600782604051611e759190613a59565b9081526040519081900360200190205460ff161592915050565b600060608080838033816001600160a01b03821660009081526005602052604090206008015460ff166002811115611ec957611ec9613422565b14611f0f5760405162461bcd60e51b81526020600482015260166024820152754e6f742061205265676973746572656420557365722160501b60448201526064016106f0565b876000808281526008602052604090206009015460ff166002811115611f3757611f37613422565b14611f785760405162461bcd60e51b8152602060048201526011602482015270139bdd0818481858dd1a5d994810985b9d607a1b60448201526064016106f0565b60008981526008602052604090206001810154600582015460068301546002840180546001600160a01b039094169490936003820193600490920192908590611fc090613914565b80601f0160208091040260200160405190810160405280929190818152602001828054611fec90613914565b80156120395780601f1061200e57610100808354040283529160200191612039565b820191906000526020600020905b81548152906001019060200180831161201c57829003601f168201915b5050505050945083805461204c90613914565b80601f016020809104026020016040519081016040528092919081815260200182805461207890613914565b80156120c55780601f1061209a576101008083540402835291602001916120c5565b820191906000526020600020905b8154815290600101906020018083116120a857829003601f168201915b505050505093508280546120d890613914565b80601f016020809104026020016040519081016040528092919081815260200182805461210490613914565b80156121515780601f1061212657610100808354040283529160200191612151565b820191906000526020600020905b81548152906001019060200180831161213457829003601f168201915b50505050509250975097509750975097509750505091939550919395565b600054600160a01b900460ff16156121c25760405162461bcd60e51b81526020600482015260166024820152754461707020686173206265656e2073746f707065642160501b60448201526064016106f0565b3360008181526005602052604081206008015460ff1660028111156121e9576121e9613422565b1461222f5760405162461bcd60e51b81526020600482015260166024820152754e6f742061205265676973746572656420557365722160501b60448201526064016106f0565b816007816040516122409190613a59565b9081526040519081900360200190205460ff16156122a05760405162461bcd60e51b815260206004820152601660248201527f557365726e616d6520616c72656164792074616b656e0000000000000000000060448201526064016106f0565b3360009081526005602090815260409091208451611e5d9260039092019186019061326c565b600054600160a01b900460ff16156123195760405162461bcd60e51b81526020600482015260166024820152754461707020686173206265656e2073746f707065642160501b60448201526064016106f0565b80600080828152600b602052604090206006015460ff16600281111561234157612341613422565b1461238e5760405162461bcd60e51b815260206004820152601460248201527f4e6f7420612061637469766520636f6d6d656e7400000000000000000000000060448201526064016106f0565b3360008181526005602052604081206008015460ff1660028111156123b5576123b5613422565b146123fb5760405162461bcd60e51b81526020600482015260166024820152754e6f742061205265676973746572656420557365722160501b60448201526064016106f0565b6000838152600b602052604090206001015483906001600160a01b0316331461245c5760405162461bcd60e51b8152602060048201526013602482015272596f7520617265206e6f7420417574686f722160681b60448201526064016106f0565b6000848152600b602052604081208181556001810180546001600160a01b0319169055600281018290559061249460038301826132ec565b50600060048201819055600582018190556006918201805460ff19908116909155958152600b60205260409020018054909416600217909355505050565b6000546001600160a01b031633146125215760405162461bcd60e51b8152602060048201526012602482015271596f7520617265206e6f74206f776e65722160701b60448201526064016106f0565b600054600160a01b900460ff1661257a5760405162461bcd60e51b815260206004820152600f60248201527f416c72656164792073746172746564000000000000000000000000000000000060448201526064016106f0565b6000805460ff60a01b19169055565b6000546001600160a01b031633146125d85760405162461bcd60e51b8152602060048201526012602482015271596f7520617265206e6f74206f776e65722160701b60448201526064016106f0565b600080546001600160a01b0319166001600160a01b0392909216919091179055565b600054600160a01b900460ff161561264d5760405162461bcd60e51b81526020600482015260166024820152754461707020686173206265656e2073746f707065642160501b60448201526064016106f0565b3360008181526005602052604081206008015460ff16600281111561267457612674613422565b146126c15760405162461bcd60e51b815260206004820152601760248201527f5573657220616c7265616479207265676973746572656400000000000000000060448201526064016106f0565b856007816040516126d29190613a59565b9081526040519081900360200190205460ff16156127325760405162461bcd60e51b815260206004820152601660248201527f557365726e616d6520616c72656164792074616b656e0000000000000000000060448201526064016106f0565b60016007886040516127449190613a59565b908152604051908190036020019020805491151560ff19909216919091179055600454612772906001613206565b6004819055604080516101208101825282815233602082015260609181018290528082018a90526080810189905260a0810188905260c0810187905260e081018690526101008101600090523360009081526005602090815260409182902083518155838201516001820180546001600160a01b0319166001600160a01b039092169190911790559183015180516128109260028501920190613347565b506060820151805161282c91600384019160209091019061326c565b506080820151805161284891600484019160209091019061326c565b5060a0820151805161286491600584019160209091019061326c565b5060c0820151805161288091600684019160209091019061326c565b5060e0820151805161289c91600784019160209091019061326c565b5061010082015160088201805460ff191660018360028111156128c1576128c1613422565b02179055509050503360068a6040516128da9190613a59565b908152604080516020928190038301812080546001600160a01b0319166001600160a01b039590951694909417909355600454338452918301919091527fabc58c36475157c4ac7669f9adfbb6f254d3a3578fb89676f6866ac3b9950eed910160405180910390a1505050505050505050565b600054600160a01b900460ff16156129a05760405162461bcd60e51b81526020600482015260166024820152754461707020686173206265656e2073746f707065642160501b60448201526064016106f0565b3360008181526005602052604081206008015460ff1660028111156129c7576129c7613422565b14612a0d5760405162461bcd60e51b81526020600482015260166024820152754e6f742061205265676973746572656420557365722160501b60448201526064016106f0565b82600080828152600b602052604090206006015460ff166002811115612a3557612a35613422565b14612a825760405162461bcd60e51b815260206004820152601460248201527f4e6f7420612061637469766520636f6d6d656e7400000000000000000000000060448201526064016106f0565b6000848152600b602052604090206001015484906001600160a01b03163314612ae35760405162461bcd60e51b8152602060048201526013602482015272596f7520617265206e6f7420417574686f722160681b60448201526064016106f0565b6000858152600b602090815260409091208551612b089260039092019187019061326c565b505050505050565b6000546001600160a01b03163314612b5f5760405162461bcd60e51b8152602060048201526012602482015271596f7520617265206e6f74206f776e65722160701b60448201526064016106f0565b47811115612bd45760405162461bcd60e51b8152602060048201526024808201527f576974686472617720616d6f756e742067726561746572207468616e2062616c60448201527f616e63650000000000000000000000000000000000000000000000000000000060648201526084016106f0565b604051339082156108fc029083906000818181858888f19350505050158015612c01573d6000803e3d6000fd5b5050565b3360008181526005602052604081206008015460ff166002811115612c2c57612c2c613422565b14612c725760405162461bcd60e51b81526020600482015260166024820152754e6f742061205265676973746572656420557365722160501b60448201526064016106f0565b816000808281526008602052604090206009015460ff166002811115612c9a57612c9a613422565b14612cdb5760405162461bcd60e51b8152602060048201526011602482015270139bdd0818481858dd1a5d994810985b9d607a1b60448201526064016106f0565b6000838152600a6020908152604080832033845290915290205460ff1615612d0257600080fd5b600083815260086020526040902060060154612d1f906001613206565b600093845260086020908152604080862060060192909255600a81528185203386529052909220805460ff191660011790555050565b600054600160a01b900460ff1615612da85760405162461bcd60e51b81526020600482015260166024820152754461707020686173206265656e2073746f707065642160501b60448201526064016106f0565b836000808281526008602052604090206009015460ff166002811115612dd057612dd0613422565b14612e115760405162461bcd60e51b8152602060048201526011602482015270139bdd0818481858dd1a5d994810985b9d607a1b60448201526064016106f0565b3360008181526005602052604081206008015460ff166002811115612e3857612e38613422565b14612e7e5760405162461bcd60e51b81526020600482015260166024820152754e6f742061205265676973746572656420557365722160501b60448201526064016106f0565b60008681526008602052604090206001015486906001600160a01b03163314612edf5760405162461bcd60e51b8152602060048201526013602482015272596f7520617265206e6f7420417574686f722160681b60448201526064016106f0565b60008781526008602090815260409091208751612f049260029092019189019061326c565b5060008781526008602090815260409091208651612f2a9260039092019188019061326c565b5060008781526008602090815260409091208551612f509260049092019187019061326c565b5050505050505050565b600054600160a01b900460ff1615612fad5760405162461bcd60e51b81526020600482015260166024820152754461707020686173206265656e2073746f707065642160501b60448201526064016106f0565b3360008181526005602052604081206008015460ff166002811115612fd457612fd4613422565b1461301a5760405162461bcd60e51b81526020600482015260166024820152754e6f742061205265676973746572656420557365722160501b60448201526064016106f0565b600254613028906001613206565b6002819055835161303857600080fd5b6001805490600061304883613a3e565b9190505550604051806101400160405280828152602001336001600160a01b03168152602001868152602001858152602001848152602001428152602001600081526020016000815260200160008152602001600060028111156130ae576130ae613422565b905260008281526008602090815260409182902083518155838201516001820180546001600160a01b0319166001600160a01b03909216919091179055918301518051613101926002850192019061326c565b506060820151805161311d91600384019160209091019061326c565b506080820151805161313991600484019160209091019061326c565b5060a0820151600582015560c0820151600682015560e08201516007820155610100820151600882015561012082015160098201805460ff1916600183600281111561318757613187613422565b02179055505033600081815260096020908152604080832060028054825460018101845592865284862090920191909155848452600590925280832054915490517fb1091a9f12f52e907000cb53318811bfa085f61b7649ec6645fa85b611eb839595506131f794938b91613a75565b60405180910390a15050505050565b600080613213838561395f565b9050838110156132655760405162461bcd60e51b815260206004820152601b60248201527f536166654d6174683a206164646974696f6e206f766572666c6f77000000000060448201526064016106f0565b9392505050565b82805461327890613914565b90600052602060002090601f01602090048101928261329a57600085556132e0565b82601f106132b357805160ff19168380011785556132e0565b828001600101855582156132e0579182015b828111156132e05782518255916020019190600101906132c5565b5061092192915061339c565b5080546132f890613914565b6000825580601f10613308575050565b601f016020900490600052602060002090810190613326919061339c565b50565b5080546000825590600052602060002090810190613326919061339c565b8280548282559060005260206000209081019282156132e0579160200282015b828111156132e057825182546001600160a01b0319166001600160a01b03909116178255602090920191600190910190613367565b5b80821115610921576000815560010161339d565b6000602082840312156133c357600080fd5b5035919050565b60005b838110156133e55781810151838201526020016133cd565b83811115611e5d5750506000910152565b6000815180845261340e8160208601602086016133ca565b601f01601f19169290920160200192915050565b634e487b7160e01b600052602160045260246000fd5b6003811061332657634e487b7160e01b600052602160045260246000fd5b6001600160a01b038716815285602082015260c06040820152600061347e60c08301876133f6565b905084606083015283608083015261349583613438565b8260a0830152979650505050505050565b6020808252825182820181905260009190848201906040850190845b818110156134de578351835292840192918401916001016134c2565b50909695505050505050565b6001600160a01b038116811461332657600080fd5b60006020828403121561351157600080fd5b8135613265816134ea565b6020810161352983613438565b91905290565b634e487b7160e01b600052604160045260246000fd5b600082601f83011261355657600080fd5b813567ffffffffffffffff808211156135715761357161352f565b604051601f8301601f19908116603f011681019082821181831017156135995761359961352f565b816040528381528660208588010111156135b257600080fd5b836020870160208301376000602085830101528094505050505092915050565b600080604083850312156135e557600080fd5b82359150602083013567ffffffffffffffff81111561360357600080fd5b61360f85828601613545565b9150509250929050565b86815260c06020820152600061363260c08301886133f6565b828103604084015261364481886133f6565b9050828103606084015261365881876133f6565b9050828103608084015261366c81866133f6565b905082810360a084015261368081856133f6565b9998505050505050505050565b60006020828403121561369f57600080fd5b813567ffffffffffffffff8111156136b657600080fd5b6136c284828501613545565b949350505050565b6001600160a01b038716815260c0602082015260006136ec60c08301886133f6565b82810360408401526136fe81886133f6565b9050828103606084015261371281876133f6565b6080840195909552505060a00152949350505050565b600080600080600060a0868803121561374057600080fd5b853567ffffffffffffffff8082111561375857600080fd5b61376489838a01613545565b9650602088013591508082111561377a57600080fd5b61378689838a01613545565b9550604088013591508082111561379c57600080fd5b6137a889838a01613545565b945060608801359150808211156137be57600080fd5b6137ca89838a01613545565b935060808801359150808211156137e057600080fd5b506137ed88828901613545565b9150509295509295909350565b6000806000806080858703121561381057600080fd5b84359350602085013567ffffffffffffffff8082111561382f57600080fd5b61383b88838901613545565b9450604087013591508082111561385157600080fd5b61385d88838901613545565b9350606087013591508082111561387357600080fd5b5061388087828801613545565b91505092959194509250565b6000806000606084860312156138a157600080fd5b833567ffffffffffffffff808211156138b957600080fd5b6138c587838801613545565b945060208601359150808211156138db57600080fd5b6138e787838801613545565b935060408601359150808211156138fd57600080fd5b5061390a86828701613545565b9150509250925092565b600181811c9082168061392857607f821691505b60208210811415610ad357634e487b7160e01b600052602260045260246000fd5b634e487b7160e01b600052601160045260246000fd5b6000821982111561397257613972613949565b500190565b828152600060206040818401526000845481600182811c91508083168061399f57607f831692505b8583108114156139bd57634e487b7160e01b85526022600452602485fd5b60408801839052606088018180156139dc57600181146139ed57613a18565b60ff19861682528782019650613a18565b60008b81526020902060005b86811015613a12578154848201529085019089016139f9565b83019750505b50949a9950505050505050505050565b634e487b7160e01b600052603260045260246000fd5b6000600019821415613a5257613a52613949565b5060010190565b60008251613a6b8184602087016133ca565b9190910192915050565b6001600160a01b038616815284602082015283604082015260a060608201526000613aa360a08301856133f6565b9050826080830152969550505050505056fea2646970667358221220a0a0238cab222fb6c75ca475bee72868b3eba6be5b3f977154df3bb6baae668b64736f6c63430008080033",
  "linkReferences": {},
  "deployedLinkReferences": {}
}