{
  "_format": "hh-sol-artifact-1",
  "contractName": "Dbanta",
  "sourceName": "contracts/dbanta.sol",
  "abi": [
    {
      "inputs": [
        {
          "internalType": "address",
          "name": "_nft",
          "type": "address"
        }
      ],
      "stateMutability": "nonpayable",
      "type": "constructor"
    },
    {
      "anonymous": false,
      "inputs": [
        {
          "indexed": false,
          "internalType": "address payable",
          "name": "author",
          "type": "address"
        },
        {
          "indexed": false,
          "internalType": "uint256",
          "name": "userid",
          "type": "uint256"
        },
        {
          "indexed": false,
          "internalType": "uint256",
          "name": "bantid",
          "type": "uint256"
        },
        {
          "indexed": false,
          "internalType": "string",
          "name": "hashtag",
          "type": "string"
        },
        {
          "indexed": false,
          "internalType": "uint256",
          "name": "tipVote",
          "type": "uint256"
        }
      ],
      "name": "BantCreated",
      "type": "event"
    },
    {
      "anonymous": false,
      "inputs": [
        {
          "indexed": false,
          "internalType": "uint256",
          "name": "id",
          "type": "uint256"
        },
        {
          "indexed": false,
          "internalType": "string",
          "name": "hashtag",
          "type": "string"
        }
      ],
      "name": "BantDeleted",
      "type": "event"
    },
    {
      "anonymous": false,
      "inputs": [
        {
          "indexed": false,
          "internalType": "uint256",
          "name": "id",
          "type": "uint256"
        }
      ],
      "name": "BantEdited",
      "type": "event"
    },
    {
      "anonymous": false,
      "inputs": [
        {
          "indexed": false,
          "internalType": "uint256",
          "name": "bantId",
          "type": "uint256"
        },
        {
          "indexed": false,
          "internalType": "address",
          "name": "user",
          "type": "address"
        }
      ],
      "name": "BantLiked",
      "type": "event"
    },
    {
      "anonymous": false,
      "inputs": [
        {
          "indexed": false,
          "internalType": "uint256",
          "name": "bantId",
          "type": "uint256"
        },
        {
          "indexed": false,
          "internalType": "address",
          "name": "user",
          "type": "address"
        }
      ],
      "name": "BantMinted",
      "type": "event"
    },
    {
      "anonymous": false,
      "inputs": [
        {
          "indexed": false,
          "internalType": "uint256",
          "name": "bantId",
          "type": "uint256"
        },
        {
          "indexed": false,
          "internalType": "address",
          "name": "user",
          "type": "address"
        }
      ],
      "name": "BantUnliked",
      "type": "event"
    },
    {
      "anonymous": false,
      "inputs": [
        {
          "indexed": false,
          "internalType": "address payable",
          "name": "author",
          "type": "address"
        },
        {
          "indexed": false,
          "internalType": "uint256",
          "name": "userid",
          "type": "uint256"
        },
        {
          "indexed": false,
          "internalType": "uint256",
          "name": "bantid",
          "type": "uint256"
        },
        {
          "indexed": false,
          "internalType": "uint256",
          "name": "tipVote",
          "type": "uint256"
        }
      ],
      "name": "BantVoted",
      "type": "event"
    },
    {
      "anonymous": false,
      "inputs": [
        {
          "indexed": false,
          "internalType": "address",
          "name": "user",
          "type": "address"
        },
        {
          "indexed": false,
          "internalType": "address",
          "name": "follower",
          "type": "address"
        }
      ],
      "name": "NewFollowers",
      "type": "event"
    },
    {
      "anonymous": false,
      "inputs": [
        {
          "indexed": false,
          "internalType": "address",
          "name": "user",
          "type": "address"
        },
        {
          "indexed": false,
          "internalType": "uint256",
          "name": "id",
          "type": "uint256"
        }
      ],
      "name": "UserBanned",
      "type": "event"
    },
    {
      "anonymous": false,
      "inputs": [
        {
          "indexed": false,
          "internalType": "address",
          "name": "user",
          "type": "address"
        },
        {
          "indexed": false,
          "internalType": "uint256",
          "name": "id",
          "type": "uint256"
        }
      ],
      "name": "UserRegistered",
      "type": "event"
    },
    {
      "anonymous": false,
      "inputs": [
        {
          "indexed": false,
          "internalType": "uint256",
          "name": "rebantid",
          "type": "uint256"
        },
        {
          "indexed": false,
          "internalType": "uint256",
          "name": "bantid",
          "type": "uint256"
        },
        {
          "indexed": false,
          "internalType": "address",
          "name": "user",
          "type": "address"
        }
      ],
      "name": "logRebantCreated",
      "type": "event"
    },
    {
      "stateMutability": "nonpayable",
      "type": "fallback"
    },
    {
      "inputs": [],
      "name": "bantCount",
      "outputs": [
        {
          "internalType": "uint256",
          "name": "",
          "type": "uint256"
        }
      ],
      "stateMutability": "view",
      "type": "function"
    },
    {
      "inputs": [
        {
          "internalType": "uint256",
          "name": "_id",
          "type": "uint256"
        }
      ],
      "name": "bantLikes",
      "outputs": [
        {
          "internalType": "uint256",
          "name": "",
          "type": "uint256"
        }
      ],
      "stateMutability": "view",
      "type": "function"
    },
    {
      "inputs": [
        {
          "internalType": "address payable",
          "name": "_newOwner",
          "type": "address"
        }
      ],
      "name": "changeOwner",
      "outputs": [],
      "stateMutability": "nonpayable",
      "type": "function"
    },
    {
      "inputs": [
        {
          "internalType": "string",
          "name": "_username",
          "type": "string"
        }
      ],
      "name": "changeUsername",
      "outputs": [],
      "stateMutability": "nonpayable",
      "type": "function"
    },
    {
      "inputs": [
        {
          "internalType": "string",
          "name": "_hashtag",
          "type": "string"
        },
        {
          "internalType": "string",
          "name": "_content",
          "type": "string"
        },
        {
          "internalType": "string",
          "name": "_imghash",
          "type": "string"
        }
      ],
      "name": "createBant",
      "outputs": [],
      "stateMutability": "nonpayable",
      "type": "function"
    },
    {
      "inputs": [
        {
          "internalType": "uint256",
          "name": "_bantid",
          "type": "uint256"
        },
        {
          "internalType": "string",
          "name": "_comment",
          "type": "string"
        }
      ],
      "name": "createComment",
      "outputs": [],
      "stateMutability": "nonpayable",
      "type": "function"
    },
    {
      "inputs": [
        {
          "internalType": "uint256",
          "name": "_id",
          "type": "uint256"
        }
      ],
      "name": "deleteBant",
      "outputs": [],
      "stateMutability": "nonpayable",
      "type": "function"
    },
    {
      "inputs": [
        {
          "internalType": "uint256",
          "name": "_id",
          "type": "uint256"
        }
      ],
      "name": "deleteComment",
      "outputs": [],
      "stateMutability": "nonpayable",
      "type": "function"
    },
    {
      "inputs": [
        {
          "internalType": "uint256",
          "name": "_id",
          "type": "uint256"
        },
        {
          "internalType": "string",
          "name": "_hashtag",
          "type": "string"
        },
        {
          "internalType": "string",
          "name": "_content",
          "type": "string"
        },
        {
          "internalType": "string",
          "name": "_imghash",
          "type": "string"
        }
      ],
      "name": "editBant",
      "outputs": [],
      "stateMutability": "nonpayable",
      "type": "function"
    },
    {
      "inputs": [
        {
          "internalType": "uint256",
          "name": "_commentid",
          "type": "uint256"
        },
        {
          "internalType": "string",
          "name": "_comment",
          "type": "string"
        }
      ],
      "name": "editComment",
      "outputs": [],
      "stateMutability": "nonpayable",
      "type": "function"
    },
    {
      "inputs": [
        {
          "internalType": "address",
          "name": "_person",
          "type": "address"
        }
      ],
      "name": "followusers",
      "outputs": [],
      "stateMutability": "nonpayable",
      "type": "function"
    },
    {
      "inputs": [],
      "name": "getBalance",
      "outputs": [
        {
          "internalType": "uint256",
          "name": "balance",
          "type": "uint256"
        }
      ],
      "stateMutability": "view",
      "type": "function"
    },
    {
      "inputs": [
        {
          "internalType": "uint256",
          "name": "_id",
          "type": "uint256"
        }
      ],
      "name": "getBant",
      "outputs": [
        {
          "internalType": "address",
          "name": "author",
          "type": "address"
        },
        {
          "internalType": "string",
          "name": "hashtag",
          "type": "string"
        },
        {
          "internalType": "string",
          "name": "content",
          "type": "string"
        },
        {
          "internalType": "string",
          "name": "imgHash",
          "type": "string"
        },
        {
          "internalType": "uint256",
          "name": "timestamp",
          "type": "uint256"
        },
        {
          "internalType": "uint256",
          "name": "likeCount",
          "type": "uint256"
        }
      ],
      "stateMutability": "view",
      "type": "function"
    },
    {
      "inputs": [
        {
          "internalType": "uint256",
          "name": "_id",
          "type": "uint256"
        }
      ],
      "name": "getBantComments",
      "outputs": [
        {
          "internalType": "uint256[]",
          "name": "list",
          "type": "uint256[]"
        }
      ],
      "stateMutability": "view",
      "type": "function"
    },
    {
      "inputs": [
        {
          "internalType": "uint256",
          "name": "_id",
          "type": "uint256"
        }
      ],
      "name": "getComment",
      "outputs": [
        {
          "internalType": "address",
          "name": "author",
          "type": "address"
        },
        {
          "internalType": "uint256",
          "name": "bantId",
          "type": "uint256"
        },
        {
          "internalType": "string",
          "name": "content",
          "type": "string"
        },
        {
          "internalType": "uint256",
          "name": "likeCount",
          "type": "uint256"
        },
        {
          "internalType": "uint256",
          "name": "timestamp",
          "type": "uint256"
        },
        {
          "internalType": "enum Dbanta.cdStatus",
          "name": "status",
          "type": "uint8"
        }
      ],
      "stateMutability": "view",
      "type": "function"
    },
    {
      "inputs": [],
      "name": "getTotalUserBants",
      "outputs": [
        {
          "internalType": "uint256",
          "name": "",
          "type": "uint256"
        }
      ],
      "stateMutability": "view",
      "type": "function"
    },
    {
      "inputs": [
        {
          "internalType": "address",
          "name": "_user",
          "type": "address"
        }
      ],
      "name": "getUser",
      "outputs": [
        {
          "internalType": "uint256",
          "name": "id",
          "type": "uint256"
        },
        {
          "internalType": "string",
          "name": "username",
          "type": "string"
        },
        {
          "internalType": "string",
          "name": "name",
          "type": "string"
        },
        {
          "internalType": "string",
          "name": "imghash",
          "type": "string"
        },
        {
          "internalType": "string",
          "name": "coverhash",
          "type": "string"
        },
        {
          "internalType": "string",
          "name": "bio",
          "type": "string"
        }
      ],
      "stateMutability": "view",
      "type": "function"
    },
    {
      "inputs": [
        {
          "internalType": "address",
          "name": "_user",
          "type": "address"
        }
      ],
      "name": "getUserBants",
      "outputs": [
        {
          "internalType": "uint256[]",
          "name": "bantList",
          "type": "uint256[]"
        }
      ],
      "stateMutability": "view",
      "type": "function"
    },
    {
      "inputs": [
        {
          "internalType": "uint256",
          "name": "_id",
          "type": "uint256"
        }
      ],
      "name": "getUserById",
      "outputs": [
        {
          "internalType": "uint256",
          "name": "id",
          "type": "uint256"
        },
        {
          "internalType": "string",
          "name": "username",
          "type": "string"
        },
        {
          "internalType": "string",
          "name": "name",
          "type": "string"
        },
        {
          "internalType": "string",
          "name": "imgHash",
          "type": "string"
        },
        {
          "internalType": "string",
          "name": "coverHash",
          "type": "string"
        },
        {
          "internalType": "string",
          "name": "bio",
          "type": "string"
        }
      ],
      "stateMutability": "view",
      "type": "function"
    },
    {
      "inputs": [
        {
          "internalType": "address",
          "name": "_user",
          "type": "address"
        }
      ],
      "name": "getUserComments",
      "outputs": [
        {
          "internalType": "uint256[]",
          "name": "commentList",
          "type": "uint256[]"
        }
      ],
      "stateMutability": "view",
      "type": "function"
    },
    {
      "inputs": [],
      "name": "getUserComments",
      "outputs": [
        {
          "internalType": "uint256[]",
          "name": "commentList",
          "type": "uint256[]"
        }
      ],
      "stateMutability": "view",
      "type": "function"
    },
    {
      "inputs": [
        {
          "internalType": "uint256",
          "name": "_id",
          "type": "uint256"
        }
      ],
      "name": "likeBant",
      "outputs": [],
      "stateMutability": "nonpayable",
      "type": "function"
    },
    {
      "inputs": [
        {
          "internalType": "uint256",
          "name": "_id",
          "type": "uint256"
        }
      ],
      "name": "mintBant",
      "outputs": [],
      "stateMutability": "nonpayable",
      "type": "function"
    },
    {
      "inputs": [],
      "name": "nft",
      "outputs": [
        {
          "internalType": "contract IDbantaNFT",
          "name": "",
          "type": "address"
        }
      ],
      "stateMutability": "view",
      "type": "function"
    },
    {
      "inputs": [],
      "name": "owner",
      "outputs": [
        {
          "internalType": "address",
          "name": "",
          "type": "address"
        }
      ],
      "stateMutability": "view",
      "type": "function"
    },
    {
      "inputs": [
        {
          "internalType": "uint256",
          "name": "_id",
          "type": "uint256"
        }
      ],
      "name": "rebantusersbant",
      "outputs": [
        {
          "internalType": "uint256",
          "name": "",
          "type": "uint256"
        }
      ],
      "stateMutability": "nonpayable",
      "type": "function"
    },
    {
      "inputs": [
        {
          "internalType": "string",
          "name": "_username",
          "type": "string"
        },
        {
          "internalType": "string",
          "name": "_name",
          "type": "string"
        },
        {
          "internalType": "string",
          "name": "_imgHash",
          "type": "string"
        },
        {
          "internalType": "string",
          "name": "_coverHash",
          "type": "string"
        },
        {
          "internalType": "string",
          "name": "_bio",
          "type": "string"
        }
      ],
      "name": "register",
      "outputs": [],
      "stateMutability": "nonpayable",
      "type": "function"
    },
    {
      "inputs": [
        {
          "internalType": "address",
          "name": "_user",
          "type": "address"
        },
        {
          "internalType": "string",
          "name": "_username",
          "type": "string"
        },
        {
          "internalType": "string",
          "name": "_name",
          "type": "string"
        },
        {
          "internalType": "string",
          "name": "_imgHash",
          "type": "string"
        },
        {
          "internalType": "string",
          "name": "_coverHash",
          "type": "string"
        },
        {
          "internalType": "string",
          "name": "_bio",
          "type": "string"
        }
      ],
      "name": "registerUser",
      "outputs": [],
      "stateMutability": "nonpayable",
      "type": "function"
    },
    {
      "inputs": [],
      "name": "startDapp",
      "outputs": [],
      "stateMutability": "nonpayable",
      "type": "function"
    },
    {
      "inputs": [],
      "name": "stopDapp",
      "outputs": [],
      "stateMutability": "nonpayable",
      "type": "function"
    },
    {
      "inputs": [],
      "name": "stopped",
      "outputs": [
        {
          "internalType": "bool",
          "name": "",
          "type": "bool"
        }
      ],
      "stateMutability": "view",
      "type": "function"
    },
    {
      "inputs": [
        {
          "internalType": "uint256",
          "name": "_id",
          "type": "uint256"
        }
      ],
      "name": "tipPost",
      "outputs": [],
      "stateMutability": "payable",
      "type": "function"
    },
    {
      "inputs": [],
      "name": "totalBants",
      "outputs": [
        {
          "internalType": "uint256",
          "name": "",
          "type": "uint256"
        }
      ],
      "stateMutability": "view",
      "type": "function"
    },
    {
      "inputs": [],
      "name": "totalComments",
      "outputs": [
        {
          "internalType": "uint256",
          "name": "",
          "type": "uint256"
        }
      ],
      "stateMutability": "view",
      "type": "function"
    },
    {
      "inputs": [],
      "name": "totalRebants",
      "outputs": [
        {
          "internalType": "uint256",
          "name": "",
          "type": "uint256"
        }
      ],
      "stateMutability": "view",
      "type": "function"
    },
    {
      "inputs": [],
      "name": "totalUsers",
      "outputs": [
        {
          "internalType": "uint256",
          "name": "",
          "type": "uint256"
        }
      ],
      "stateMutability": "view",
      "type": "function"
    },
    {
      "inputs": [
        {
          "internalType": "uint256",
          "name": "_amount",
          "type": "uint256"
        }
      ],
      "name": "transferContractBalance",
      "outputs": [],
      "stateMutability": "nonpayable",
      "type": "function"
    },
    {
      "inputs": [
        {
          "internalType": "uint256",
          "name": "_id",
          "type": "uint256"
        }
      ],
      "name": "unlikeBant",
      "outputs": [],
      "stateMutability": "nonpayable",
      "type": "function"
    },
    {
      "inputs": [
        {
          "internalType": "uint256",
          "name": "_id",
          "type": "uint256"
        },
        {
          "internalType": "address",
          "name": "_user",
          "type": "address"
        }
      ],
      "name": "userLikesBant",
      "outputs": [
        {
          "internalType": "bool",
          "name": "",
          "type": "bool"
        }
      ],
      "stateMutability": "view",
      "type": "function"
    },
    {
      "inputs": [
        {
          "internalType": "address",
          "name": "_useraddr",
          "type": "address"
        }
      ],
      "name": "userStatus",
      "outputs": [
        {
          "internalType": "enum Dbanta.accountStatus",
          "name": "status",
          "type": "uint8"
        }
      ],
      "stateMutability": "view",
      "type": "function"
    },
    {
      "inputs": [
        {
          "internalType": "string",
          "name": "_username",
          "type": "string"
        }
      ],
      "name": "usernameAvailable",
      "outputs": [
        {
          "internalType": "bool",
          "name": "status",
          "type": "bool"
        }
      ],
      "stateMutability": "view",
      "type": "function"
    }
  ],
  "bytecode": "0x60806040526000805460ff60a01b1916815560018190556003819055600481905560058190556006553480156200003557600080fd5b5060405162004c8538038062004c8583398101604081905262000058916200061e565b60008054336001600160a01b0319918216178255600280549091166001600160a01b03841617905560408051808201825260058082526437bbb732b960d91b6020808401829052845180860186528381528082018390528551808301875287815286518084018852978852865180880190975293865290850191909152620000e5949293909290620000ec565b5062000701565b600054600160a01b900460ff16156200014c5760405162461bcd60e51b815260206004820152601660248201527f4461707020686173206265656e2073746f70706564210000000000000000000060448201526064015b60405180910390fd5b3360008181526007602052604081206008015460ff16600281111562000176576200017662000649565b14620001c55760405162461bcd60e51b815260206004820152601760248201527f5573657220616c72656164792072656769737465726564000000000000000000604482015260640162000143565b85600a81604051620001d891906200065f565b9081526040519081900360200190205460ff16156200023a5760405162461bcd60e51b815260206004820152601660248201527f557365726e616d6520616c72656164792074616b656e00000000000000000000604482015260640162000143565b6200024a33888888888862000253565b50505050505050565b6001600a866040516200026791906200065f565b908152602001604051809103902060006101000a81548160ff021916908315150217905550620002a96001600554620004b660201b6200353d1790919060201c565b600581905560408051610120810182528281526001600160a01b03898116602080840182815260608587018181528187018e9052608087018d905260a087018c905260c087018b905260e087018a90526000610100880181905294855260078452969093208551815590516001820180546001600160a01b0319169190951617909355935180519194620003469260028501929091019062000520565b5060608201518051620003649160038401916020909101906200058a565b5060808201518051620003829160048401916020909101906200058a565b5060a08201518051620003a09160058401916020909101906200058a565b5060c08201518051620003be9160068401916020909101906200058a565b5060e08201518051620003dc9160078401916020909101906200058a565b5061010082015160088201805460ff1916600183600281111562000404576200040462000649565b021790555050506000828152600860205260409081902080546001600160a01b0319166001600160a01b038b1617905551889060099062000447908a906200065f565b908152604080516020928190038301812080546001600160a01b0319166001600160a01b03958616179055600554938c168152918201929092527fe29d35093005f4d575e1003753426b57a7f64378ba73332eef9c6ccc2b8decd6910160405180910390a15050505050505050565b600080620004c583856200069d565b905083811015620005195760405162461bcd60e51b815260206004820152601b60248201527f536166654d6174683a206164646974696f6e206f766572666c6f770000000000604482015260640162000143565b9392505050565b82805482825590600052602060002090810192821562000578579160200282015b828111156200057857825182546001600160a01b0319166001600160a01b0390911617825560209092019160019091019062000541565b506200058692915062000607565b5090565b8280546200059890620006c4565b90600052602060002090601f016020900481019282620005bc576000855562000578565b82601f10620005d757805160ff191683800117855562000578565b8280016001018555821562000578579182015b8281111562000578578251825591602001919060010190620005ea565b5b8082111562000586576000815560010162000608565b6000602082840312156200063157600080fd5b81516001600160a01b03811681146200051957600080fd5b634e487b7160e01b600052602160045260246000fd5b6000825160005b8181101562000682576020818601810151858301520162000666565b8181111562000692576000828501525b509190910192915050565b60008219821115620006bf57634e487b7160e01b600052601160045260246000fd5b500190565b600181811c90821680620006d957607f821691505b60208210811415620006fb57634e487b7160e01b600052602260045260246000fd5b50919050565b61457480620007116000396000f3fe6080604052600436106102c65760003560e01c80636f77926b116101795780638da5cb5b116100d6578063b9394ad41161008a578063c039b58411610064578063c039b5841461080f578063ef2f030d1461082f578063ff99fa1f1461084f576102c6565b8063b9394ad4146107c3578063beee20dc146107d9578063bff1f9e1146107f9576102c6565b806399620348116100bb5780639962034814610763578063a6f9dae114610783578063ad816029146107a3576102c6565b80638da5cb5b1461072e57806395d2cc921461074e576102c6565b806375f12b211161012d57806377c846af1161011257806377c846af146106be5780637d0b1026146106de578063818552d9146106fe576102c6565b806375f12b211461066b578063764a614a1461068c576102c6565b806374d3c1f81161015e57806374d3c1f81461061857806374dfaa821461062b57806374ebaadc1461064b576102c6565b80636f77926b146105e3578063719b741d14610603576102c6565b806335075ff01161022757806354b1607a116101db57806360a4e427116101c057806360a4e4271461057957806361936b811461059b5780636ed6da9e146105b1576102c6565b806354b1607a146105035780635a09007b14610559576102c6565b806340a179851161020c57806340a179851461048b57806347ccca02146104ab5780635020ab8a146104e3576102c6565b806335075ff01461044b57806339629a361461046b576102c6565b8063225d29a11161027e5780632b3c6e22116102635780632b3c6e22146103e9578063325d748e1461041657806333aa01e914610436576102c6565b8063225d29a11461038a5780632b27465b146103d3576102c6565b80630800e300116102af5780630800e3001461032357806312065fe014610355578063223757cb1461036a576102c6565b806305c703e6146102d857806307428a89146102fa575b3480156102d257600080fd5b50600080fd5b3480156102e457600080fd5b506102f86102f3366004613cad565b61086f565b005b34801561030657600080fd5b5061031060065481565b6040519081526020015b60405180910390f35b34801561032f57600080fd5b5061034361033e366004613cad565b610a2c565b60405161031a96959493929190613d52565b34801561036157600080fd5b50610310610bfa565b34801561037657600080fd5b506102f8610385366004613dc7565b610c4f565b34801561039657600080fd5b506103c66103a5366004613dc7565b6001600160a01b031660009081526007602052604090206008015460ff1690565b60405161031a9190613de4565b3480156103df57600080fd5b5061031060035481565b3480156103f557600080fd5b50610409610404366004613dc7565b610cd0565b60405161031a9190613df7565b34801561042257600080fd5b50610409610431366004613dc7565b610da3565b34801561044257600080fd5b506102f8610e73565b34801561045757600080fd5b506102f8610466366004613ede565b610f31565b34801561047757600080fd5b50610409610486366004613cad565b6110dc565b34801561049757600080fd5b506102f86104a6366004613fbf565b61120e565b3480156104b757600080fd5b506002546104cb906001600160a01b031681565b6040516001600160a01b03909116815260200161031a565b3480156104ef57600080fd5b506103106104fe366004613cad565b611457565b34801561050f57600080fd5b5061054961051e366004614006565b6000918252600f602090815260408084206001600160a01b0393909316845291905290205460ff1690565b604051901515815260200161031a565b34801561056557600080fd5b506102f8610574366004614036565b611658565b34801561058557600080fd5b50336000908152600c6020526040902054610310565b3480156105a757600080fd5b5061031060045481565b3480156105bd57600080fd5b506105d16105cc366004613cad565b6117a7565b60405161031a96959493929190614108565b3480156105ef57600080fd5b506105d16105fe366004613dc7565b6117e7565b34801561060f57600080fd5b506104096117fa565b6102f8610626366004613cad565b6118c2565b34801561063757600080fd5b506102f8610646366004613cad565b612075565b34801561065757600080fd5b5061054961066636600461417c565b61234e565b34801561067757600080fd5b5060005461054990600160a01b900460ff1681565b34801561069857600080fd5b506106ac6106a7366004613cad565b61237a565b60405161031a969594939291906141b9565b3480156106ca57600080fd5b506102f86106d936600461417c565b61264f565b3480156106ea57600080fd5b506102f86106f9366004613cad565b61279b565b34801561070a57600080fd5b50610310610719366004613cad565b6000908152600b602052604090206006015490565b34801561073a57600080fd5b506000546104cb906001600160a01b031681565b34801561075a57600080fd5b506102f861299c565b34801561076f57600080fd5b506102f861077e366004613cad565b612a53565b34801561078f57600080fd5b506102f861079e366004613dc7565b612bc7565b3480156107af57600080fd5b506102f86107be366004613fbf565b612c38565b3480156107cf57600080fd5b5061031060015481565b3480156107e557600080fd5b506102f86107f4366004613cad565b612df0565b34801561080557600080fd5b5061031060055481565b34801561081b57600080fd5b506102f861082a366004613cad565b612ee5565b34801561083b57600080fd5b506102f861084a366004614217565b61305d565b34801561085b57600080fd5b506102f861086a3660046142a9565b61328a565b6000818152600b602052604090206001015481906001600160a01b031633146108d55760405162461bcd60e51b8152602060048201526013602482015272596f7520617265206e6f7420417574686f722160681b60448201526064015b60405180910390fd5b6000828152600b6020526040812060030180546108f190614331565b80601f016020809104026020016040519081016040528092919081815260200182805461091d90614331565b801561096a5780601f1061093f5761010080835404028352916020019161096a565b820191906000526020600020905b81548152906001019060200180831161094d57829003601f168201915b50506002546040517fd204c45e0000000000000000000000000000000000000000000000000000000081529495506001600160a01b03169363d204c45e93506109bb92503391508590600401614366565b600060405180830381600087803b1580156109d557600080fd5b505af11580156109e9573d6000803e3d6000fd5b5050604080518681523360208201527fc987a0b975ad7e2b67fca529121c6bf00cf38bc1e19a74287ecff6f2e194166093500190505b60405180910390a1505050565b600080606081808033816001600160a01b03821660009081526007602052604090206008015460ff166002811115610a6657610a66613d1e565b14610aa15760405162461bcd60e51b8152602060048201526016602482015260008051602061451f83398151915260448201526064016108cc565b876000808281526010602052604090206006015460ff166002811115610ac957610ac9613d1e565b14610b165760405162461bcd60e51b815260206004820152601460248201527f4e6f7420612061637469766520636f6d6d656e7400000000000000000000000060448201526064016108cc565b600089815260106020526040902060018101546002820154600483015460058401546006850154600390950180546001600160a01b03909516959394909360ff16908490610b6390614331565b80601f0160208091040260200160405190810160405280929190818152602001828054610b8f90614331565b8015610bdc5780601f10610bb157610100808354040283529160200191610bdc565b820191906000526020600020905b815481529060010190602001808311610bbf57829003601f168201915b50505050509350975097509750975097509750505091939550919395565b600080546001600160a01b03163314610c4a5760405162461bcd60e51b8152602060048201526012602482015271596f7520617265206e6f74206f776e65722160701b60448201526064016108cc565b504790565b6001600160a01b03811660008181526007602090815260408083206002810180546001810182559085529383902090930180546001600160a01b0319163390811790915581519485529184019190915290917fbd80bbbc018daa7243739066d4ce198640b3b92c525f8d57757ea32b8b1f5fa9910160405180910390a15050565b33600081815260076020526040812060080154606092919060ff166002811115610cfc57610cfc613d1e565b14610d375760405162461bcd60e51b8152602060048201526016602482015260008051602061451f83398151915260448201526064016108cc565b6001600160a01b03831660009081526011602090815260409182902080548351818402810184019094528084529091830182828015610d9557602002820191906000526020600020905b815481526020019060010190808311610d81575b505050505091505b50919050565b33600081815260076020526040812060080154606092919060ff166002811115610dcf57610dcf613d1e565b14610e0a5760405162461bcd60e51b8152602060048201526016602482015260008051602061451f83398151915260448201526064016108cc565b6001600160a01b0383166000908152600c602090815260409182902080548351818402810184019094528084529091830182828015610d955760200282019190600052602060002090815481526020019060010190808311610d81575050505050915050919050565b6000546001600160a01b03163314610ec25760405162461bcd60e51b8152602060048201526012602482015271596f7520617265206e6f74206f776e65722160701b60448201526064016108cc565b600054600160a01b900460ff1615610f1c5760405162461bcd60e51b815260206004820152600f60248201527f416c72656164792073746f70706564000000000000000000000000000000000060448201526064016108cc565b6000805460ff60a01b1916600160a01b179055565b600054600160a01b900460ff1615610f845760405162461bcd60e51b81526020600482015260166024820152754461707020686173206265656e2073746f707065642160501b60448201526064016108cc565b8560006001600160a01b03821660009081526007602052604090206008015460ff166002811115610fb757610fb7613d1e565b146110045760405162461bcd60e51b815260206004820152601760248201527f5573657220616c7265616479207265676973746572656400000000000000000060448201526064016108cc565b85600a816040516110159190614388565b9081526040519081900360200190205460ff16156110755760405162461bcd60e51b815260206004820152601660248201527f557365726e616d6520616c72656164792074616b656e0000000000000000000060448201526064016108cc565b6000546001600160a01b031633146110c45760405162461bcd60e51b8152602060048201526012602482015271596f7520617265206e6f74206f776e65722160701b60448201526064016108cc565b6110d28888888888886135a3565b5050505050505050565b33600081815260076020526040812060080154606092919060ff16600281111561110857611108613d1e565b146111435760405162461bcd60e51b8152602060048201526016602482015260008051602061451f83398151915260448201526064016108cc565b82600080828152600b60205260409020600a015460ff16600281111561116b5761116b613d1e565b146111ac5760405162461bcd60e51b8152602060048201526011602482015270139bdd0818481858dd1a5d994810985b9d607a1b60448201526064016108cc565b6000848152601260209081526040918290208054835181840281018401909452808452909183018282801561120057602002820191906000526020600020905b8154815260200190600101908083116111ec575b505050505092505050919050565b600054600160a01b900460ff16156112615760405162461bcd60e51b81526020600482015260166024820152754461707020686173206265656e2073746f707065642160501b60448201526064016108cc565b3360008181526007602052604081206008015460ff16600281111561128857611288613d1e565b146112c35760405162461bcd60e51b8152602060048201526016602482015260008051602061451f83398151915260448201526064016108cc565b82600080828152600b60205260409020600a015460ff1660028111156112eb576112eb613d1e565b1461132c5760405162461bcd60e51b8152602060048201526011602482015270139bdd0818481858dd1a5d994810985b9d607a1b60448201526064016108cc565b60045461133a90600161353d565b60048190556040805160e081018252828152336020820152908101869052606081018590526000608082018190524260a083015260c082015260008281526010602090815260409182902083518155838201516001820180546001600160a01b0319166001600160a01b03909216919091179055918301516002830155606083015180516113ce9260038501920190613b68565b506080820151600482015560a0820151600582015560c082015160068201805460ff1916600183600281111561140657611406613d1e565b02179055505033600090815260116020908152604080832060048054825460018181018555938752858720015599845260128352908320985489549182018a55988352912001959095555050505050565b60008054600160a01b900460ff16156114ab5760405162461bcd60e51b81526020600482015260166024820152754461707020686173206265656e2073746f707065642160501b60448201526064016108cc565b3360008181526007602052604081206008015460ff1660028111156114d2576114d2613d1e565b1461150d5760405162461bcd60e51b8152602060048201526016602482015260008051602061451f83398151915260448201526064016108cc565b6000838152600b6020526040902060018101546001600160a01b031661153257600080fd5b600781018054906000611544836143ba565b909155505060065461155790600161353d565b600681905560408051608081018252835481526020808201848152428385019081523360608086018281526000898152600e875288812088518155865160018083019190915586516002808401919091558451600393840180546001600160a01b03199081166001600160a01b0393841617909155888652600d8c528d862080548086018255908752958c90208d5160049097020195865599519285019290925596519683019690965591519101805490951693169290921790925586548551878152938401529382015290917fab81b9ce2ed04b74dc52357e6997b479a6cea1f632b03a6f3644b5533133c07c910160405180910390a150949350505050565b600054600160a01b900460ff16156116ab5760405162461bcd60e51b81526020600482015260166024820152754461707020686173206265656e2073746f707065642160501b60448201526064016108cc565b3360008181526007602052604081206008015460ff1660028111156116d2576116d2613d1e565b1461171f5760405162461bcd60e51b815260206004820152601760248201527f5573657220616c7265616479207265676973746572656400000000000000000060448201526064016108cc565b85600a816040516117309190614388565b9081526040519081900360200190205460ff16156117905760405162461bcd60e51b815260206004820152601660248201527f557365726e616d6520616c72656164792074616b656e0000000000000000000060448201526064016108cc565b61179e3388888888886135a3565b50505050505050565b60008181526008602052604081205460609081908190819081906117d3906001600160a01b03166137df565b949c939b5091995097509550909350915050565b600060608060608060606117d3876137df565b33600081815260076020526040812060080154606092919060ff16600281111561182657611826613d1e565b146118615760405162461bcd60e51b8152602060048201526016602482015260008051602061451f83398151915260448201526064016108cc565b33600090815260116020908152604091829020805483518184028101840190945280845290918301828280156118b657602002820191906000526020600020905b8154815260200190600101908083116118a2575b505050505091505b5090565b6000811180156118d457506001548111155b6118dd57600080fd5b6000818152600b602090815260408083208151610160810183528154815260018201546001600160a01b031693810193909352600281018054919284019161192490614331565b80601f016020809104026020016040519081016040528092919081815260200182805461195090614331565b801561199d5780601f106119725761010080835404028352916020019161199d565b820191906000526020600020905b81548152906001019060200180831161198057829003601f168201915b505050505081526020016003820180546119b690614331565b80601f01602080910402602001604051908101604052809291908181526020018280546119e290614331565b8015611a2f5780601f10611a0457610100808354040283529160200191611a2f565b820191906000526020600020905b815481529060010190602001808311611a1257829003601f168201915b50505050508152602001600482018054611a4890614331565b80601f0160208091040260200160405190810160405280929190818152602001828054611a7490614331565b8015611ac15780601f10611a9657610100808354040283529160200191611ac1565b820191906000526020600020905b815481529060010190602001808311611aa457829003601f168201915b505050918352505060058201546020820152600682015460408201526007820154606082015260088201546080820152600982015460a0820152600a82015460c09091019060ff166002811115611b1a57611b1a613d1e565b6002811115611b2b57611b2b613d1e565b9052503360009081526007602090815260408083208151610120810183528154815260018201546001600160a01b03168185015260028201805484518187028101870186528181529798509596919592949386019391929091830182828015611bbd57602002820191906000526020600020905b81546001600160a01b03168152600190910190602001808311611b9f575b50505050508152602001600382018054611bd690614331565b80601f0160208091040260200160405190810160405280929190818152602001828054611c0290614331565b8015611c4f5780601f10611c2457610100808354040283529160200191611c4f565b820191906000526020600020905b815481529060010190602001808311611c3257829003601f168201915b50505050508152602001600482018054611c6890614331565b80601f0160208091040260200160405190810160405280929190818152602001828054611c9490614331565b8015611ce15780601f10611cb657610100808354040283529160200191611ce1565b820191906000526020600020905b815481529060010190602001808311611cc457829003601f168201915b50505050508152602001600582018054611cfa90614331565b80601f0160208091040260200160405190810160405280929190818152602001828054611d2690614331565b8015611d735780601f10611d4857610100808354040283529160200191611d73565b820191906000526020600020905b815481529060010190602001808311611d5657829003601f168201915b50505050508152602001600682018054611d8c90614331565b80601f0160208091040260200160405190810160405280929190818152602001828054611db890614331565b8015611e055780601f10611dda57610100808354040283529160200191611e05565b820191906000526020600020905b815481529060010190602001808311611de857829003601f168201915b50505050508152602001600782018054611e1e90614331565b80601f0160208091040260200160405190810160405280929190818152602001828054611e4a90614331565b8015611e975780601f10611e6c57610100808354040283529160200191611e97565b820191906000526020600020905b815481529060010190602001808311611e7a57829003601f168201915b5050509183525050600882015460209091019060ff166002811115611ebe57611ebe613d1e565b6002811115611ecf57611ecf613d1e565b9052506020830151604051919250906001600160a01b038216903480156108fc02916000818181858888f19350505050158015611f10573d6000803e3d6000fd5b5034836101200151611f2291906143d5565b6101208401526000848152600b602090815260409182902085518155818601516001820180546001600160a01b0319166001600160a01b03909216919091179055918501518051869392611f7d926002850192910190613b68565b5060608201518051611f99916003840191602090910190613b68565b5060808201518051611fb5916004840191602090910190613b68565b5060a0820151600582015560c0820151600682015560e0820151600782015561010082015160088201556101208201516009820155610140820151600a8201805460ff1916600183600281111561200e5761200e613d1e565b02179055505083518351610120860151604080516001600160a01b0387168152602081019490945283019190915260608201527f1294a2583ce04c8089508f0b8d12a6a2149062763a48f8e583e5e751d6136c1f915060800160405180910390a150505050565b80600080828152600b60205260409020600a015460ff16600281111561209d5761209d613d1e565b146120de5760405162461bcd60e51b8152602060048201526011602482015270139bdd0818481858dd1a5d994810985b9d607a1b60448201526064016108cc565b3360008181526007602052604081206008015460ff16600281111561210557612105613d1e565b146121405760405162461bcd60e51b8152602060048201526016602482015260008051602061451f83398151915260448201526064016108cc565b600054600160a01b900460ff16156121935760405162461bcd60e51b81526020600482015260166024820152754461707020686173206265656e2073746f707065642160501b60448201526064016108cc565b6000838152600b602052604090206001015483906001600160a01b031633146121f45760405162461bcd60e51b8152602060048201526013602482015272596f7520617265206e6f7420417574686f722160681b60448201526064016108cc565b6000848152600b60205260409081902090517f0cff0e089582017160d1997ed1b8c7c4c8dbaef323ef3555ec873ebd8ab0038491612237918791600201906143ed565b60405180910390a16000848152600b602052604081208181556001810180546001600160a01b0319169055906122706002830182613be8565b61227e600383016000613be8565b61228c600483016000613be8565b5060006005820181905560068201819055600782018190556008820181905560098201819055600a918201805460ff19908116909155868252600b6020526040822090920180549092166002179091555b6000858152601260205260409020548110156123305760008581526012602052604090208054829081106123135761231361449e565b600091825260208220015580612328816143ba565b9150506122dd565b50600084815260126020526040812061234891613c25565b50505050565b6000600a826040516123609190614388565b9081526040519081900360200190205460ff161592915050565b600060608080838033816001600160a01b03821660009081526007602052604090206008015460ff1660028111156123b4576123b4613d1e565b146123ef5760405162461bcd60e51b8152602060048201526016602482015260008051602061451f83398151915260448201526064016108cc565b87600080828152600b60205260409020600a015460ff16600281111561241757612417613d1e565b146124585760405162461bcd60e51b8152602060048201526011602482015270139bdd0818481858dd1a5d994810985b9d607a1b60448201526064016108cc565b6000898152600b602052604090206001810154600582015460068301546002840180546001600160a01b0390941694909360038201936004909201929085906124a090614331565b80601f01602080910402602001604051908101604052809291908181526020018280546124cc90614331565b80156125195780601f106124ee57610100808354040283529160200191612519565b820191906000526020600020905b8154815290600101906020018083116124fc57829003601f168201915b5050505050945083805461252c90614331565b80601f016020809104026020016040519081016040528092919081815260200182805461255890614331565b80156125a55780601f1061257a576101008083540402835291602001916125a5565b820191906000526020600020905b81548152906001019060200180831161258857829003601f168201915b505050505093508280546125b890614331565b80601f01602080910402602001604051908101604052809291908181526020018280546125e490614331565b80156126315780601f1061260657610100808354040283529160200191612631565b820191906000526020600020905b81548152906001019060200180831161261457829003601f168201915b50505050509250975097509750975097509750505091939550919395565b600054600160a01b900460ff16156126a25760405162461bcd60e51b81526020600482015260166024820152754461707020686173206265656e2073746f707065642160501b60448201526064016108cc565b3360008181526007602052604081206008015460ff1660028111156126c9576126c9613d1e565b146127045760405162461bcd60e51b8152602060048201526016602482015260008051602061451f83398151915260448201526064016108cc565b81600a816040516127159190614388565b9081526040519081900360200190205460ff16156127755760405162461bcd60e51b815260206004820152601660248201527f557365726e616d6520616c72656164792074616b656e0000000000000000000060448201526064016108cc565b336000908152600760209081526040909120845161234892600390920191860190613b68565b600054600160a01b900460ff16156127ee5760405162461bcd60e51b81526020600482015260166024820152754461707020686173206265656e2073746f707065642160501b60448201526064016108cc565b806000808281526010602052604090206006015460ff16600281111561281657612816613d1e565b146128635760405162461bcd60e51b815260206004820152601460248201527f4e6f7420612061637469766520636f6d6d656e7400000000000000000000000060448201526064016108cc565b3360008181526007602052604081206008015460ff16600281111561288a5761288a613d1e565b146128c55760405162461bcd60e51b8152602060048201526016602482015260008051602061451f83398151915260448201526064016108cc565b60008381526010602052604090206001015483906001600160a01b031633146129265760405162461bcd60e51b8152602060048201526013602482015272596f7520617265206e6f7420417574686f722160681b60448201526064016108cc565b60008481526010602052604081208181556001810180546001600160a01b0319169055600281018290559061295e6003830182613be8565b50600060048201819055600582018190556006918201805460ff19908116909155958152601060205260409020018054909416600217909355505050565b6000546001600160a01b031633146129eb5760405162461bcd60e51b8152602060048201526012602482015271596f7520617265206e6f74206f776e65722160701b60448201526064016108cc565b600054600160a01b900460ff16612a445760405162461bcd60e51b815260206004820152600f60248201527f416c72656164792073746172746564000000000000000000000000000000000060448201526064016108cc565b6000805460ff60a01b19169055565b3360008181526007602052604081206008015460ff166002811115612a7a57612a7a613d1e565b14612ab55760405162461bcd60e51b8152602060048201526016602482015260008051602061451f83398151915260448201526064016108cc565b81600080828152600b60205260409020600a015460ff166002811115612add57612add613d1e565b14612b1e5760405162461bcd60e51b8152602060048201526011602482015270139bdd0818481858dd1a5d994810985b9d607a1b60448201526064016108cc565b6000838152600f6020908152604080832033845290915290205460ff16612b4457600080fd5b6000838152600b6020526040902060060154612b61906001613af1565b6000848152600b6020908152604080832060060193909355600f81528282203380845290825291839020805460ff191690558251868152908101919091527f13c0152416d5d86e3b466e451e45b05d4fccfe34955f9f2771143301f46df5e99101610a1f565b6000546001600160a01b03163314612c165760405162461bcd60e51b8152602060048201526012602482015271596f7520617265206e6f74206f776e65722160701b60448201526064016108cc565b600080546001600160a01b0319166001600160a01b0392909216919091179055565b600054600160a01b900460ff1615612c8b5760405162461bcd60e51b81526020600482015260166024820152754461707020686173206265656e2073746f707065642160501b60448201526064016108cc565b3360008181526007602052604081206008015460ff166002811115612cb257612cb2613d1e565b14612ced5760405162461bcd60e51b8152602060048201526016602482015260008051602061451f83398151915260448201526064016108cc565b826000808281526010602052604090206006015460ff166002811115612d1557612d15613d1e565b14612d625760405162461bcd60e51b815260206004820152601460248201527f4e6f7420612061637469766520636f6d6d656e7400000000000000000000000060448201526064016108cc565b60008481526010602052604090206001015484906001600160a01b03163314612dc35760405162461bcd60e51b8152602060048201526013602482015272596f7520617265206e6f7420417574686f722160681b60448201526064016108cc565b60008581526010602090815260409091208551612de892600390920191870190613b68565b505050505050565b6000546001600160a01b03163314612e3f5760405162461bcd60e51b8152602060048201526012602482015271596f7520617265206e6f74206f776e65722160701b60448201526064016108cc565b47811115612eb45760405162461bcd60e51b8152602060048201526024808201527f576974686472617720616d6f756e742067726561746572207468616e2062616c60448201527f616e63650000000000000000000000000000000000000000000000000000000060648201526084016108cc565b604051339082156108fc029083906000818181858888f19350505050158015612ee1573d6000803e3d6000fd5b5050565b3360008181526007602052604081206008015460ff166002811115612f0c57612f0c613d1e565b14612f475760405162461bcd60e51b8152602060048201526016602482015260008051602061451f83398151915260448201526064016108cc565b81600080828152600b60205260409020600a015460ff166002811115612f6f57612f6f613d1e565b14612fb05760405162461bcd60e51b8152602060048201526011602482015270139bdd0818481858dd1a5d994810985b9d607a1b60448201526064016108cc565b6000838152600f6020908152604080832033845290915290205460ff1615612fd757600080fd5b6000838152600b6020526040902060060154612ff490600161353d565b6000848152600b6020908152604080832060060193909355600f81528282203380845290825291839020805460ff191660011790558251868152908101919091527f13ee249cb5fc790394054ccd4d13c57db8565a8999913e7a637e1b1d1256c69c9101610a1f565b600054600160a01b900460ff16156130b05760405162461bcd60e51b81526020600482015260166024820152754461707020686173206265656e2073746f707065642160501b60448201526064016108cc565b83600080828152600b60205260409020600a015460ff1660028111156130d8576130d8613d1e565b146131195760405162461bcd60e51b8152602060048201526011602482015270139bdd0818481858dd1a5d994810985b9d607a1b60448201526064016108cc565b3360008181526007602052604081206008015460ff16600281111561314057613140613d1e565b1461317b5760405162461bcd60e51b8152602060048201526016602482015260008051602061451f83398151915260448201526064016108cc565b6000868152600b602052604090206001015486906001600160a01b031633146131dc5760405162461bcd60e51b8152602060048201526013602482015272596f7520617265206e6f7420417574686f722160681b60448201526064016108cc565b6000878152600b60209081526040909120875161320192600290920191890190613b68565b506000878152600b60209081526040909120865161322792600390920191880190613b68565b506000878152600b60209081526040909120855161324d92600490920191870190613b68565b506040518781527f45c75eeddbeddde42521c4eb0305ed17ceada14e1cfdba30ae0cc9106c2335759060200160405180910390a150505050505050565b600054600160a01b900460ff16156132dd5760405162461bcd60e51b81526020600482015260166024820152754461707020686173206265656e2073746f707065642160501b60448201526064016108cc565b3360008181526007602052604081206008015460ff16600281111561330457613304613d1e565b1461333f5760405162461bcd60e51b8152602060048201526016602482015260008051602061451f83398151915260448201526064016108cc565b60035461334d90600161353d565b6003819055835161335d57600080fd5b6001805490600061336d836143ba565b9190505550604051806101600160405280828152602001336001600160a01b0316815260200186815260200185815260200184815260200142815260200160008152602001600081526020016000815260200160008152602001600060028111156133da576133da613d1e565b90526000828152600b602090815260409182902083518155838201516001820180546001600160a01b0319166001600160a01b0390921691909117905591830151805161342d9260028501920190613b68565b5060608201518051613449916003840191602090910190613b68565b5060808201518051613465916004840191602090910190613b68565b5060a0820151600582015560c0820151600682015560e0820151600782015561010082015160088201556101208201516009820155610140820151600a8201805460ff191660018360028111156134be576134be613d1e565b021790555050336000818152600c6020908152604080832060038054825460018101845592865284862090920191909155848452600790925280832054915490517fd38b2b935dd03702b5450b6f0b0aa42ae9526b11e33435582b192151f2e5030c955061352e94938b916144b4565b60405180910390a15050505050565b60008061354a83856143d5565b90508381101561359c5760405162461bcd60e51b815260206004820152601b60248201527f536166654d6174683a206164646974696f6e206f766572666c6f77000000000060448201526064016108cc565b9392505050565b6001600a866040516135b59190614388565b908152604051908190036020019020805491151560ff199092169190911790556005546135e390600161353d565b600581905560408051610120810182528281526001600160a01b03898116602080840182815260608587018181528187018e9052608087018d905260a087018c905260c087018b905260e087018a90526000610100880181905294855260078452969093208551815590516001820180546001600160a01b031916919095161790935593518051919461367e92600285019290910190613c43565b506060820151805161369a916003840191602090910190613b68565b50608082015180516136b6916004840191602090910190613b68565b5060a082015180516136d2916005840191602090910190613b68565b5060c082015180516136ee916006840191602090910190613b68565b5060e0820151805161370a916007840191602090910190613b68565b5061010082015160088201805460ff1916600183600281111561372f5761372f613d1e565b021790555050506000828152600860205260409081902080546001600160a01b0319166001600160a01b038b16179055518890600990613770908a90614388565b908152604080516020928190038301812080546001600160a01b0319166001600160a01b03958616179055600554938c168152918201929092527fe29d35093005f4d575e1003753426b57a7f64378ba73332eef9c6ccc2b8decd6910160405180910390a15050505050505050565b6001600160a01b0381166000908152600760208190526040822080546003820180546060948594859485948594919390926004810192600582019260068301920190859061382c90614331565b80601f016020809104026020016040519081016040528092919081815260200182805461385890614331565b80156138a55780601f1061387a576101008083540402835291602001916138a5565b820191906000526020600020905b81548152906001019060200180831161388857829003601f168201915b505050505094508380546138b890614331565b80601f01602080910402602001604051908101604052809291908181526020018280546138e490614331565b80156139315780601f1061390657610100808354040283529160200191613931565b820191906000526020600020905b81548152906001019060200180831161391457829003601f168201915b5050505050935082805461394490614331565b80601f016020809104026020016040519081016040528092919081815260200182805461397090614331565b80156139bd5780601f10613992576101008083540402835291602001916139bd565b820191906000526020600020905b8154815290600101906020018083116139a057829003601f168201915b505050505092508180546139d090614331565b80601f01602080910402602001604051908101604052809291908181526020018280546139fc90614331565b8015613a495780601f10613a1e57610100808354040283529160200191613a49565b820191906000526020600020905b815481529060010190602001808311613a2c57829003601f168201915b50505050509150808054613a5c90614331565b80601f0160208091040260200160405190810160405280929190818152602001828054613a8890614331565b8015613ad55780601f10613aaa57610100808354040283529160200191613ad5565b820191906000526020600020905b815481529060010190602001808311613ab857829003601f168201915b5050505050905095509550955095509550955091939550919395565b600061359c83836040518060400160405280601e81526020017f536166654d6174683a207375627472616374696f6e206f766572666c6f77000081525060008184841115613b525760405162461bcd60e51b81526004016108cc91906144f4565b506000613b5f8486614507565b95945050505050565b828054613b7490614331565b90600052602060002090601f016020900481019282613b965760008555613bdc565b82601f10613baf57805160ff1916838001178555613bdc565b82800160010185558215613bdc579182015b82811115613bdc578251825591602001919060010190613bc1565b506118be929150613c98565b508054613bf490614331565b6000825580601f10613c04575050565b601f016020900490600052602060002090810190613c229190613c98565b50565b5080546000825590600052602060002090810190613c229190613c98565b828054828255906000526020600020908101928215613bdc579160200282015b82811115613bdc57825182546001600160a01b0319166001600160a01b03909116178255602090920191600190910190613c63565b5b808211156118be5760008155600101613c99565b600060208284031215613cbf57600080fd5b5035919050565b60005b83811015613ce1578181015183820152602001613cc9565b838111156123485750506000910152565b60008151808452613d0a816020860160208601613cc6565b601f01601f19169290920160200192915050565b634e487b7160e01b600052602160045260246000fd5b60038110613c2257634e487b7160e01b600052602160045260246000fd5b6001600160a01b038716815285602082015260c060408201526000613d7a60c0830187613cf2565b9050846060830152836080830152613d9183613d34565b8260a0830152979650505050505050565b6001600160a01b0381168114613c2257600080fd5b8035613dc281613da2565b919050565b600060208284031215613dd957600080fd5b813561359c81613da2565b60208101613df183613d34565b91905290565b6020808252825182820181905260009190848201906040850190845b81811015613e2f57835183529284019291840191600101613e13565b50909695505050505050565b634e487b7160e01b600052604160045260246000fd5b600082601f830112613e6257600080fd5b813567ffffffffffffffff80821115613e7d57613e7d613e3b565b604051601f8301601f19908116603f01168101908282118183101715613ea557613ea5613e3b565b81604052838152866020858801011115613ebe57600080fd5b836020870160208301376000602085830101528094505050505092915050565b60008060008060008060c08789031215613ef757600080fd5b613f0087613db7565b9550602087013567ffffffffffffffff80821115613f1d57600080fd5b613f298a838b01613e51565b96506040890135915080821115613f3f57600080fd5b613f4b8a838b01613e51565b95506060890135915080821115613f6157600080fd5b613f6d8a838b01613e51565b94506080890135915080821115613f8357600080fd5b613f8f8a838b01613e51565b935060a0890135915080821115613fa557600080fd5b50613fb289828a01613e51565b9150509295509295509295565b60008060408385031215613fd257600080fd5b82359150602083013567ffffffffffffffff811115613ff057600080fd5b613ffc85828601613e51565b9150509250929050565b6000806040838503121561401957600080fd5b82359150602083013561402b81613da2565b809150509250929050565b600080600080600060a0868803121561404e57600080fd5b853567ffffffffffffffff8082111561406657600080fd5b61407289838a01613e51565b9650602088013591508082111561408857600080fd5b61409489838a01613e51565b955060408801359150808211156140aa57600080fd5b6140b689838a01613e51565b945060608801359150808211156140cc57600080fd5b6140d889838a01613e51565b935060808801359150808211156140ee57600080fd5b506140fb88828901613e51565b9150509295509295909350565b86815260c06020820152600061412160c0830188613cf2565b82810360408401526141338188613cf2565b905082810360608401526141478187613cf2565b9050828103608084015261415b8186613cf2565b905082810360a084015261416f8185613cf2565b9998505050505050505050565b60006020828403121561418e57600080fd5b813567ffffffffffffffff8111156141a557600080fd5b6141b184828501613e51565b949350505050565b6001600160a01b038716815260c0602082015260006141db60c0830188613cf2565b82810360408401526141ed8188613cf2565b905082810360608401526142018187613cf2565b6080840195909552505060a00152949350505050565b6000806000806080858703121561422d57600080fd5b84359350602085013567ffffffffffffffff8082111561424c57600080fd5b61425888838901613e51565b9450604087013591508082111561426e57600080fd5b61427a88838901613e51565b9350606087013591508082111561429057600080fd5b5061429d87828801613e51565b91505092959194509250565b6000806000606084860312156142be57600080fd5b833567ffffffffffffffff808211156142d657600080fd5b6142e287838801613e51565b945060208601359150808211156142f857600080fd5b61430487838801613e51565b9350604086013591508082111561431a57600080fd5b5061432786828701613e51565b9150509250925092565b600181811c9082168061434557607f821691505b60208210811415610d9d57634e487b7160e01b600052602260045260246000fd5b6001600160a01b03831681526040602082015260006141b16040830184613cf2565b6000825161439a818460208701613cc6565b9190910192915050565b634e487b7160e01b600052601160045260246000fd5b60006000198214156143ce576143ce6143a4565b5060010190565b600082198211156143e8576143e86143a4565b500190565b828152600060206040818401526000845481600182811c91508083168061441557607f831692505b85831081141561443357634e487b7160e01b85526022600452602485fd5b604088018390526060880181801561445257600181146144635761448e565b60ff1986168252878201965061448e565b60008b81526020902060005b868110156144885781548482015290850190890161446f565b83019750505b50949a9950505050505050505050565b634e487b7160e01b600052603260045260246000fd5b6001600160a01b038616815284602082015283604082015260a0606082015260006144e260a0830185613cf2565b90508260808301529695505050505050565b60208152600061359c6020830184613cf2565b600082821015614519576145196143a4565b50039056fe4e6f742061205265676973746572656420557365722100000000000000000000a2646970667358221220fa02334161ff676a34f3b51b4f7d0af64ae1da491ac2e404113062b018850b8d64736f6c63430008080033",
  "linkReferences": {},
  "deployedLinkReferences": {}
}