{
  "_format": "hh-sol-artifact-1",
  "contractName": "Dbanta",
  "sourceName": "contracts/dbanta.sol",
  "abi": [
    {
      "inputs": [
        {
          "internalType": "address",
          "name": "_nft",
          "type": "address"
        }
      ],
      "stateMutability": "nonpayable",
      "type": "constructor"
    },
    {
      "anonymous": false,
      "inputs": [
        {
          "indexed": false,
          "internalType": "uint256",
          "name": "bantId",
          "type": "uint256"
        },
        {
          "indexed": false,
          "internalType": "address",
          "name": "user",
          "type": "address"
        }
      ],
      "name": "BantMinted",
      "type": "event"
    },
    {
      "anonymous": false,
      "inputs": [
        {
          "indexed": false,
          "internalType": "address payable",
          "name": "author",
          "type": "address"
        },
        {
          "indexed": false,
          "internalType": "uint256",
          "name": "userid",
          "type": "uint256"
        },
        {
          "indexed": false,
          "internalType": "uint256",
          "name": "bantid",
          "type": "uint256"
        },
        {
          "indexed": false,
          "internalType": "uint256",
          "name": "tipVote",
          "type": "uint256"
        }
      ],
      "name": "bantVoted",
      "type": "event"
    },
    {
      "anonymous": false,
      "inputs": [
        {
          "indexed": false,
          "internalType": "address payable",
          "name": "author",
          "type": "address"
        },
        {
          "indexed": false,
          "internalType": "uint256",
          "name": "userid",
          "type": "uint256"
        },
        {
          "indexed": false,
          "internalType": "uint256",
          "name": "bantid",
          "type": "uint256"
        },
        {
          "indexed": false,
          "internalType": "string",
          "name": "hashtag",
          "type": "string"
        },
        {
          "indexed": false,
          "internalType": "uint256",
          "name": "tipVote",
          "type": "uint256"
        }
      ],
      "name": "logBantCreated",
      "type": "event"
    },
    {
      "anonymous": false,
      "inputs": [
        {
          "indexed": false,
          "internalType": "uint256",
          "name": "id",
          "type": "uint256"
        },
        {
          "indexed": false,
          "internalType": "string",
          "name": "hashtag",
          "type": "string"
        }
      ],
      "name": "logBantDeleted",
      "type": "event"
    },
    {
      "anonymous": false,
      "inputs": [
        {
          "indexed": false,
          "internalType": "uint256",
          "name": "id",
          "type": "uint256"
        }
      ],
      "name": "logBantEdited",
      "type": "event"
    },
    {
      "anonymous": false,
      "inputs": [
        {
          "indexed": false,
          "internalType": "uint256",
          "name": "rebantid",
          "type": "uint256"
        },
        {
          "indexed": false,
          "internalType": "uint256",
          "name": "bantid",
          "type": "uint256"
        },
        {
          "indexed": false,
          "internalType": "address",
          "name": "user",
          "type": "address"
        }
      ],
      "name": "logRebantCreated",
      "type": "event"
    },
    {
      "anonymous": false,
      "inputs": [
        {
          "indexed": false,
          "internalType": "address",
          "name": "user",
          "type": "address"
        },
        {
          "indexed": false,
          "internalType": "uint256",
          "name": "id",
          "type": "uint256"
        }
      ],
      "name": "logRegisterUser",
      "type": "event"
    },
    {
      "anonymous": false,
      "inputs": [
        {
          "indexed": false,
          "internalType": "address",
          "name": "user",
          "type": "address"
        },
        {
          "indexed": false,
          "internalType": "uint256",
          "name": "id",
          "type": "uint256"
        }
      ],
      "name": "logUserBanned",
      "type": "event"
    },
    {
      "anonymous": false,
      "inputs": [
        {
          "indexed": false,
          "internalType": "address",
          "name": "user",
          "type": "address"
        },
        {
          "indexed": false,
          "internalType": "address",
          "name": "follower",
          "type": "address"
        }
      ],
      "name": "newfollowers",
      "type": "event"
    },
    {
      "stateMutability": "nonpayable",
      "type": "fallback"
    },
    {
      "inputs": [],
      "name": "bantCount",
      "outputs": [
        {
          "internalType": "uint256",
          "name": "",
          "type": "uint256"
        }
      ],
      "stateMutability": "view",
      "type": "function"
    },
    {
      "inputs": [
        {
          "internalType": "address payable",
          "name": "_newOwner",
          "type": "address"
        }
      ],
      "name": "changeOwner",
      "outputs": [],
      "stateMutability": "nonpayable",
      "type": "function"
    },
    {
      "inputs": [
        {
          "internalType": "string",
          "name": "_username",
          "type": "string"
        }
      ],
      "name": "changeUsername",
      "outputs": [],
      "stateMutability": "nonpayable",
      "type": "function"
    },
    {
      "inputs": [
        {
          "internalType": "string",
          "name": "_hashtag",
          "type": "string"
        },
        {
          "internalType": "string",
          "name": "_content",
          "type": "string"
        },
        {
          "internalType": "string",
          "name": "_imghash",
          "type": "string"
        }
      ],
      "name": "createBant",
      "outputs": [],
      "stateMutability": "nonpayable",
      "type": "function"
    },
    {
      "inputs": [
        {
          "internalType": "uint256",
          "name": "_bantid",
          "type": "uint256"
        },
        {
          "internalType": "string",
          "name": "_comment",
          "type": "string"
        }
      ],
      "name": "createComment",
      "outputs": [],
      "stateMutability": "nonpayable",
      "type": "function"
    },
    {
      "inputs": [
        {
          "internalType": "uint256",
          "name": "_id",
          "type": "uint256"
        }
      ],
      "name": "deleteBant",
      "outputs": [],
      "stateMutability": "nonpayable",
      "type": "function"
    },
    {
      "inputs": [
        {
          "internalType": "uint256",
          "name": "_id",
          "type": "uint256"
        }
      ],
      "name": "deleteComment",
      "outputs": [],
      "stateMutability": "nonpayable",
      "type": "function"
    },
    {
      "inputs": [
        {
          "internalType": "uint256",
          "name": "_id",
          "type": "uint256"
        },
        {
          "internalType": "string",
          "name": "_hashtag",
          "type": "string"
        },
        {
          "internalType": "string",
          "name": "_content",
          "type": "string"
        },
        {
          "internalType": "string",
          "name": "_imghash",
          "type": "string"
        }
      ],
      "name": "editBant",
      "outputs": [],
      "stateMutability": "nonpayable",
      "type": "function"
    },
    {
      "inputs": [
        {
          "internalType": "uint256",
          "name": "_commentid",
          "type": "uint256"
        },
        {
          "internalType": "string",
          "name": "_comment",
          "type": "string"
        }
      ],
      "name": "editComment",
      "outputs": [],
      "stateMutability": "nonpayable",
      "type": "function"
    },
    {
      "inputs": [
        {
          "internalType": "address",
          "name": "_person",
          "type": "address"
        }
      ],
      "name": "followusers",
      "outputs": [],
      "stateMutability": "nonpayable",
      "type": "function"
    },
    {
      "inputs": [],
      "name": "getBalance",
      "outputs": [
        {
          "internalType": "uint256",
          "name": "balance",
          "type": "uint256"
        }
      ],
      "stateMutability": "view",
      "type": "function"
    },
    {
      "inputs": [
        {
          "internalType": "uint256",
          "name": "_id",
          "type": "uint256"
        }
      ],
      "name": "getBant",
      "outputs": [
        {
          "internalType": "address",
          "name": "author",
          "type": "address"
        },
        {
          "internalType": "string",
          "name": "hashtag",
          "type": "string"
        },
        {
          "internalType": "string",
          "name": "content",
          "type": "string"
        },
        {
          "internalType": "string",
          "name": "imgHash",
          "type": "string"
        },
        {
          "internalType": "uint256",
          "name": "timestamp",
          "type": "uint256"
        },
        {
          "internalType": "uint256",
          "name": "likeCount",
          "type": "uint256"
        }
      ],
      "stateMutability": "view",
      "type": "function"
    },
    {
      "inputs": [
        {
          "internalType": "uint256",
          "name": "_id",
          "type": "uint256"
        }
      ],
      "name": "getBantComments",
      "outputs": [
        {
          "internalType": "uint256[]",
          "name": "list",
          "type": "uint256[]"
        }
      ],
      "stateMutability": "view",
      "type": "function"
    },
    {
      "inputs": [
        {
          "internalType": "uint256",
          "name": "_id",
          "type": "uint256"
        }
      ],
      "name": "getComment",
      "outputs": [
        {
          "internalType": "address",
          "name": "author",
          "type": "address"
        },
        {
          "internalType": "uint256",
          "name": "bantId",
          "type": "uint256"
        },
        {
          "internalType": "string",
          "name": "content",
          "type": "string"
        },
        {
          "internalType": "uint256",
          "name": "likeCount",
          "type": "uint256"
        },
        {
          "internalType": "uint256",
          "name": "timestamp",
          "type": "uint256"
        },
        {
          "internalType": "enum Dbanta.cdStatus",
          "name": "status",
          "type": "uint8"
        }
      ],
      "stateMutability": "view",
      "type": "function"
    },
    {
      "inputs": [],
      "name": "getTotalUserBants",
      "outputs": [
        {
          "internalType": "uint256",
          "name": "",
          "type": "uint256"
        }
      ],
      "stateMutability": "view",
      "type": "function"
    },
    {
      "inputs": [
        {
          "internalType": "address",
          "name": "_user",
          "type": "address"
        }
      ],
      "name": "getUser",
      "outputs": [
        {
          "internalType": "uint256",
          "name": "id",
          "type": "uint256"
        },
        {
          "internalType": "string",
          "name": "username",
          "type": "string"
        },
        {
          "internalType": "string",
          "name": "name",
          "type": "string"
        },
        {
          "internalType": "string",
          "name": "imghash",
          "type": "string"
        },
        {
          "internalType": "string",
          "name": "coverhash",
          "type": "string"
        },
        {
          "internalType": "string",
          "name": "bio",
          "type": "string"
        }
      ],
      "stateMutability": "view",
      "type": "function"
    },
    {
      "inputs": [
        {
          "internalType": "address",
          "name": "_user",
          "type": "address"
        }
      ],
      "name": "getUserBants",
      "outputs": [
        {
          "internalType": "uint256[]",
          "name": "bantList",
          "type": "uint256[]"
        }
      ],
      "stateMutability": "view",
      "type": "function"
    },
    {
      "inputs": [
        {
          "internalType": "address",
          "name": "_user",
          "type": "address"
        }
      ],
      "name": "getUserComments",
      "outputs": [
        {
          "internalType": "uint256[]",
          "name": "commentList",
          "type": "uint256[]"
        }
      ],
      "stateMutability": "view",
      "type": "function"
    },
    {
      "inputs": [],
      "name": "getUserComments",
      "outputs": [
        {
          "internalType": "uint256[]",
          "name": "commentList",
          "type": "uint256[]"
        }
      ],
      "stateMutability": "view",
      "type": "function"
    },
    {
      "inputs": [
        {
          "internalType": "uint256",
          "name": "_id",
          "type": "uint256"
        }
      ],
      "name": "likeBant",
      "outputs": [],
      "stateMutability": "nonpayable",
      "type": "function"
    },
    {
      "inputs": [
        {
          "internalType": "uint256",
          "name": "_id",
          "type": "uint256"
        }
      ],
      "name": "mintBant",
      "outputs": [],
      "stateMutability": "nonpayable",
      "type": "function"
    },
    {
      "inputs": [],
      "name": "nft",
      "outputs": [
        {
          "internalType": "contract IDbantaNFT",
          "name": "",
          "type": "address"
        }
      ],
      "stateMutability": "view",
      "type": "function"
    },
    {
      "inputs": [],
      "name": "owner",
      "outputs": [
        {
          "internalType": "address",
          "name": "",
          "type": "address"
        }
      ],
      "stateMutability": "view",
      "type": "function"
    },
    {
      "inputs": [
        {
          "internalType": "uint256",
          "name": "_id",
          "type": "uint256"
        }
      ],
      "name": "rebantusersbant",
      "outputs": [
        {
          "internalType": "uint256",
          "name": "",
          "type": "uint256"
        }
      ],
      "stateMutability": "nonpayable",
      "type": "function"
    },
    {
      "inputs": [
        {
          "internalType": "string",
          "name": "_username",
          "type": "string"
        },
        {
          "internalType": "string",
          "name": "_name",
          "type": "string"
        },
        {
          "internalType": "string",
          "name": "_imgHash",
          "type": "string"
        },
        {
          "internalType": "string",
          "name": "_coverHash",
          "type": "string"
        },
        {
          "internalType": "string",
          "name": "_bio",
          "type": "string"
        }
      ],
      "name": "registerUser",
      "outputs": [],
      "stateMutability": "nonpayable",
      "type": "function"
    },
    {
      "inputs": [],
      "name": "startDapp",
      "outputs": [],
      "stateMutability": "nonpayable",
      "type": "function"
    },
    {
      "inputs": [],
      "name": "stopDapp",
      "outputs": [],
      "stateMutability": "nonpayable",
      "type": "function"
    },
    {
      "inputs": [],
      "name": "stopped",
      "outputs": [
        {
          "internalType": "bool",
          "name": "",
          "type": "bool"
        }
      ],
      "stateMutability": "view",
      "type": "function"
    },
    {
      "inputs": [
        {
          "internalType": "uint256",
          "name": "_id",
          "type": "uint256"
        }
      ],
      "name": "tipPost",
      "outputs": [],
      "stateMutability": "payable",
      "type": "function"
    },
    {
      "inputs": [],
      "name": "totalBants",
      "outputs": [
        {
          "internalType": "uint256",
          "name": "",
          "type": "uint256"
        }
      ],
      "stateMutability": "view",
      "type": "function"
    },
    {
      "inputs": [],
      "name": "totalComments",
      "outputs": [
        {
          "internalType": "uint256",
          "name": "",
          "type": "uint256"
        }
      ],
      "stateMutability": "view",
      "type": "function"
    },
    {
      "inputs": [],
      "name": "totalRebants",
      "outputs": [
        {
          "internalType": "uint256",
          "name": "",
          "type": "uint256"
        }
      ],
      "stateMutability": "view",
      "type": "function"
    },
    {
      "inputs": [],
      "name": "totalUsers",
      "outputs": [
        {
          "internalType": "uint256",
          "name": "",
          "type": "uint256"
        }
      ],
      "stateMutability": "view",
      "type": "function"
    },
    {
      "inputs": [
        {
          "internalType": "uint256",
          "name": "_amount",
          "type": "uint256"
        }
      ],
      "name": "transferContractBalance",
      "outputs": [],
      "stateMutability": "nonpayable",
      "type": "function"
    },
    {
      "inputs": [
        {
          "internalType": "address",
          "name": "_useraddr",
          "type": "address"
        }
      ],
      "name": "userStatus",
      "outputs": [
        {
          "internalType": "enum Dbanta.accountStatus",
          "name": "status",
          "type": "uint8"
        }
      ],
      "stateMutability": "view",
      "type": "function"
    },
    {
      "inputs": [
        {
          "internalType": "string",
          "name": "_username",
          "type": "string"
        }
      ],
      "name": "usernameAvailable",
      "outputs": [
        {
          "internalType": "bool",
          "name": "status",
          "type": "bool"
        }
      ],
      "stateMutability": "view",
      "type": "function"
    }
  ],
  "bytecode": "0x60806040526000805460ff60a01b1916815560018190556003819055600481905560058190556006553480156200003557600080fd5b50604051620045e9380380620045e98339810160408190526200005891620005e4565b60008054336001600160a01b0319918216178255600280549091166001600160a01b03841617905560408051808201825260058082526437bbb732b960d91b6020808401829052845180860186528381528082018390528551808301875287815286518084018852978852865180880190975293865290850191909152620000e5949293909290620000ec565b50620006c7565b600054600160a01b900460ff16156200014c5760405162461bcd60e51b815260206004820152601660248201527f4461707020686173206265656e2073746f70706564210000000000000000000060448201526064015b60405180910390fd5b3360008181526007602052604081206008015460ff1660028111156200017657620001766200060f565b14620001c55760405162461bcd60e51b815260206004820152601760248201527f5573657220616c72656164792072656769737465726564000000000000000000604482015260640162000143565b85600981604051620001d8919062000625565b9081526040519081900360200190205460ff16156200023a5760405162461bcd60e51b815260206004820152601660248201527f557365726e616d6520616c72656164792074616b656e00000000000000000000604482015260640162000143565b60016009886040516200024e919062000625565b908152602001604051809103902060006101000a81548160ff0219169083151502179055506200029060016005546200047c60201b6200360b1790919060201c565b6005819055604080516101208101825282815233602082015260609181018290528082018a90526080810189905260a0810188905260c0810187905260e081018690526101008101600090523360009081526007602090815260409182902083518155838201516001820180546001600160a01b0319166001600160a01b03909216919091179055918301518051620003309260028501920190620004e6565b50606082015180516200034e91600384019160209091019062000550565b50608082015180516200036c91600484019160209091019062000550565b5060a082015180516200038a91600584019160209091019062000550565b5060c08201518051620003a891600684019160209091019062000550565b5060e08201518051620003c691600784019160209091019062000550565b5061010082015160088201805460ff19166001836002811115620003ee57620003ee6200060f565b02179055509050503360088a60405162000409919062000625565b908152604080516020928190038301812080546001600160a01b0319166001600160a01b039590951694909417909355600554338452918301919091527fabc58c36475157c4ac7669f9adfbb6f254d3a3578fb89676f6866ac3b9950eed910160405180910390a1505050505050505050565b6000806200048b838562000663565b905083811015620004df5760405162461bcd60e51b815260206004820152601b60248201527f536166654d6174683a206164646974696f6e206f766572666c6f770000000000604482015260640162000143565b9392505050565b8280548282559060005260206000209081019282156200053e579160200282015b828111156200053e57825182546001600160a01b0319166001600160a01b0390911617825560209092019160019091019062000507565b506200054c929150620005cd565b5090565b8280546200055e906200068a565b90600052602060002090601f0160209004810192826200058257600085556200053e565b82601f106200059d57805160ff19168380011785556200053e565b828001600101855582156200053e579182015b828111156200053e578251825591602001919060010190620005b0565b5b808211156200054c5760008155600101620005ce565b600060208284031215620005f757600080fd5b81516001600160a01b0381168114620004df57600080fd5b634e487b7160e01b600052602160045260246000fd5b6000825160005b818110156200064857602081860181015185830152016200062c565b8181111562000658576000828501525b509190910192915050565b600082198211156200068557634e487b7160e01b600052601160045260246000fd5b500190565b600181811c908216806200069f57607f821691505b60208210811415620006c157634e487b7160e01b600052602260045260246000fd5b50919050565b613f1280620006d76000396000f3fe60806040526004361061024f5760003560e01c806374d3c1f811610138578063a6f9dae1116100b0578063beee20dc1161007f578063c039b58411610064578063c039b584146106c2578063ef2f030d146106e2578063ff99fa1f146107025761024f565b8063beee20dc1461068c578063bff1f9e1146106ac5761024f565b8063a6f9dae114610616578063ac9f0a4014610636578063ad81602914610656578063b9394ad4146106765761024f565b8063764a614a116101075780637d0b1026116100ec5780637d0b1026146105c15780638da5cb5b146105e157806395d2cc92146106015761024f565b8063764a614a1461056f57806377c846af146105a15761024f565b806374d3c1f8146104eb57806374dfaa82146104fe57806374ebaadc1461051e57806375f12b211461054e5761024f565b806333aa01e9116101cb5780635020ab8a1161019a57806361936b811161017f57806361936b811461048e5780636f77926b146104a4578063719b741d146104d65761024f565b80635020ab8a1461044c57806360a4e4271461046c5761024f565b806333aa01e9146103bf57806339629a36146103d457806340a17985146103f457806347ccca02146104145761024f565b8063223757cb116102225780632b27465b116102075780632b27465b1461035c5780632b3c6e2214610372578063325d748e1461039f5761024f565b8063223757cb146102f3578063225d29a1146103135761024f565b806305c703e61461026157806307428a89146102835780630800e300146102ac57806312065fe0146102de575b34801561025b57600080fd5b50600080fd5b34801561026d57600080fd5b5061028161027c3660046137b6565b610722565b005b34801561028f57600080fd5b5061029960065481565b6040519081526020015b60405180910390f35b3480156102b857600080fd5b506102cc6102c73660046137b6565b6108de565b6040516102a39695949392919061385b565b3480156102ea57600080fd5b50610299610ab7565b3480156102ff57600080fd5b5061028161030e3660046138c0565b610b0c565b34801561031f57600080fd5b5061034f61032e3660046138c0565b6001600160a01b031660009081526007602052604090206008015460ff1690565b6040516102a391906138dd565b34801561036857600080fd5b5061029960035481565b34801561037e57600080fd5b5061039261038d3660046138c0565b610b8d565b6040516102a391906138f0565b3480156103ab57600080fd5b506103926103ba3660046138c0565b610c6b565b3480156103cb57600080fd5b50610281610d46565b3480156103e057600080fd5b506103926103ef3660046137b6565b610e04565b34801561040057600080fd5b5061028161040f3660046139d7565b610f42565b34801561042057600080fd5b50600254610434906001600160a01b031681565b6040516001600160a01b0390911681526020016102a3565b34801561045857600080fd5b506102996104673660046137b6565b611197565b34801561047857600080fd5b50336000908152600b6020526040902054610299565b34801561049a57600080fd5b5061029960045481565b3480156104b057600080fd5b506104c46104bf3660046138c0565b6113a3565b6040516102a396959493929190613a1e565b3480156104e257600080fd5b506103926116b5565b6102816104f93660046137b6565b611788565b34801561050a57600080fd5b506102816105193660046137b6565b611f3b565b34801561052a57600080fd5b5061053e610539366004613a92565b612220565b60405190151581526020016102a3565b34801561055a57600080fd5b5060005461053e90600160a01b900460ff1681565b34801561057b57600080fd5b5061058f61058a3660046137b6565b61224c565b6040516102a396959493929190613acf565b3480156105ad57600080fd5b506102816105bc366004613a92565b61252d565b3480156105cd57600080fd5b506102816105dc3660046137b6565b612684565b3480156105ed57600080fd5b50600054610434906001600160a01b031681565b34801561060d57600080fd5b50610281612890565b34801561062257600080fd5b506102816106313660046138c0565b612947565b34801561064257600080fd5b50610281610651366004613b2d565b6129b8565b34801561066257600080fd5b506102816106713660046139d7565b612d0b565b34801561068257600080fd5b5061029960015481565b34801561069857600080fd5b506102816106a73660046137b6565b612ece565b3480156106b857600080fd5b5061029960055481565b3480156106ce57600080fd5b506102816106dd3660046137b6565b612fc3565b3480156106ee57600080fd5b506102816106fd366004613bff565b613114565b34801561070e57600080fd5b5061028161071d366004613c91565b61334d565b6000818152600a602052604090206001015481906001600160a01b031633146107885760405162461bcd60e51b8152602060048201526013602482015272596f7520617265206e6f7420417574686f722160681b60448201526064015b60405180910390fd5b6000828152600a6020526040812060030180546107a490613d19565b80601f01602080910402602001604051908101604052809291908181526020018280546107d090613d19565b801561081d5780601f106107f25761010080835404028352916020019161081d565b820191906000526020600020905b81548152906001019060200180831161080057829003601f168201915b50506002546040517fd204c45e0000000000000000000000000000000000000000000000000000000081529495506001600160a01b03169363d204c45e935061086e92503391508590600401613d4e565b600060405180830381600087803b15801561088857600080fd5b505af115801561089c573d6000803e3d6000fd5b5050604080518681523360208201527fc987a0b975ad7e2b67fca529121c6bf00cf38bc1e19a74287ecff6f2e1941660935001905060405180910390a1505050565b600080606081808033816001600160a01b03821660009081526007602052604090206008015460ff16600281111561091857610918613827565b1461095e5760405162461bcd60e51b81526020600482015260166024820152754e6f742061205265676973746572656420557365722160501b604482015260640161077f565b87600080828152600f602052604090206006015460ff16600281111561098657610986613827565b146109d35760405162461bcd60e51b815260206004820152601460248201527f4e6f7420612061637469766520636f6d6d656e74000000000000000000000000604482015260640161077f565b6000898152600f6020526040902060018101546002820154600483015460058401546006850154600390950180546001600160a01b03909516959394909360ff16908490610a2090613d19565b80601f0160208091040260200160405190810160405280929190818152602001828054610a4c90613d19565b8015610a995780601f10610a6e57610100808354040283529160200191610a99565b820191906000526020600020905b815481529060010190602001808311610a7c57829003601f168201915b50505050509350975097509750975097509750505091939550919395565b600080546001600160a01b03163314610b075760405162461bcd60e51b8152602060048201526012602482015271596f7520617265206e6f74206f776e65722160701b604482015260640161077f565b504790565b6001600160a01b03811660008181526007602090815260408083206002810180546001810182559085529383902090930180546001600160a01b0319163390811790915581519485529184019190915290917fd9ac212dba415b860553899b53a3a0f59da2e3ff60d443bb4ae635f79c60b742910160405180910390a15050565b33600081815260076020526040812060080154606092919060ff166002811115610bb957610bb9613827565b14610bff5760405162461bcd60e51b81526020600482015260166024820152754e6f742061205265676973746572656420557365722160501b604482015260640161077f565b6001600160a01b03831660009081526010602090815260409182902080548351818402810184019094528084529091830182828015610c5d57602002820191906000526020600020905b815481526020019060010190808311610c49575b505050505091505b50919050565b33600081815260076020526040812060080154606092919060ff166002811115610c9757610c97613827565b14610cdd5760405162461bcd60e51b81526020600482015260166024820152754e6f742061205265676973746572656420557365722160501b604482015260640161077f565b6001600160a01b0383166000908152600b602090815260409182902080548351818402810184019094528084529091830182828015610c5d5760200282019190600052602060002090815481526020019060010190808311610c49575050505050915050919050565b6000546001600160a01b03163314610d955760405162461bcd60e51b8152602060048201526012602482015271596f7520617265206e6f74206f776e65722160701b604482015260640161077f565b600054600160a01b900460ff1615610def5760405162461bcd60e51b815260206004820152600f60248201527f416c72656164792073746f707065640000000000000000000000000000000000604482015260640161077f565b6000805460ff60a01b1916600160a01b179055565b33600081815260076020526040812060080154606092919060ff166002811115610e3057610e30613827565b14610e765760405162461bcd60e51b81526020600482015260166024820152754e6f742061205265676973746572656420557365722160501b604482015260640161077f565b82600080828152600a60208190526040909120015460ff166002811115610e9f57610e9f613827565b14610ee05760405162461bcd60e51b8152602060048201526011602482015270139bdd0818481858dd1a5d994810985b9d607a1b604482015260640161077f565b60008481526011602090815260409182902080548351818402810184019094528084529091830182828015610f3457602002820191906000526020600020905b815481526020019060010190808311610f20575b505050505092505050919050565b600054600160a01b900460ff1615610f955760405162461bcd60e51b81526020600482015260166024820152754461707020686173206265656e2073746f707065642160501b604482015260640161077f565b3360008181526007602052604081206008015460ff166002811115610fbc57610fbc613827565b146110025760405162461bcd60e51b81526020600482015260166024820152754e6f742061205265676973746572656420557365722160501b604482015260640161077f565b82600080828152600a60208190526040909120015460ff16600281111561102b5761102b613827565b1461106c5760405162461bcd60e51b8152602060048201526011602482015270139bdd0818481858dd1a5d994810985b9d607a1b604482015260640161077f565b60045461107a90600161360b565b60048190556040805160e081018252828152336020820152908101869052606081018590526000608082018190524260a083015260c08201526000828152600f602090815260409182902083518155838201516001820180546001600160a01b0319166001600160a01b039092169190911790559183015160028301556060830151805161110e9260038501920190613671565b506080820151600482015560a0820151600582015560c082015160068201805460ff1916600183600281111561114657611146613827565b02179055505033600090815260106020908152604080832060048054825460018181018555938752858720015599845260118352908320985489549182018a55988352912001959095555050505050565b60008054600160a01b900460ff16156111eb5760405162461bcd60e51b81526020600482015260166024820152754461707020686173206265656e2073746f707065642160501b604482015260640161077f565b3360008181526007602052604081206008015460ff16600281111561121257611212613827565b146112585760405162461bcd60e51b81526020600482015260166024820152754e6f742061205265676973746572656420557365722160501b604482015260640161077f565b6000838152600a6020526040902060018101546001600160a01b031661127d57600080fd5b60078101805490600061128f83613d86565b90915550506006546112a290600161360b565b600681905560408051608081018252835481526020808201848152428385019081523360608086018281526000898152600d875288812088518155865160018083019190915586516002808401919091558451600393840180546001600160a01b03199081166001600160a01b0393841617909155888652600c8c528d862080548086018255908752958c90208d5160049097020195865599519285019290925596519683019690965591519101805490951693169290921790925586548551878152938401529382015290917fab81b9ce2ed04b74dc52357e6997b479a6cea1f632b03a6f3644b5533133c07c910160405180910390a150949350505050565b6001600160a01b038116600090815260076020819052604082208054600382018054606094859485948594859491939092600481019260058201926006830192019085906113f090613d19565b80601f016020809104026020016040519081016040528092919081815260200182805461141c90613d19565b80156114695780601f1061143e57610100808354040283529160200191611469565b820191906000526020600020905b81548152906001019060200180831161144c57829003601f168201915b5050505050945083805461147c90613d19565b80601f01602080910402602001604051908101604052809291908181526020018280546114a890613d19565b80156114f55780601f106114ca576101008083540402835291602001916114f5565b820191906000526020600020905b8154815290600101906020018083116114d857829003601f168201915b5050505050935082805461150890613d19565b80601f016020809104026020016040519081016040528092919081815260200182805461153490613d19565b80156115815780601f1061155657610100808354040283529160200191611581565b820191906000526020600020905b81548152906001019060200180831161156457829003601f168201915b5050505050925081805461159490613d19565b80601f01602080910402602001604051908101604052809291908181526020018280546115c090613d19565b801561160d5780601f106115e25761010080835404028352916020019161160d565b820191906000526020600020905b8154815290600101906020018083116115f057829003601f168201915b5050505050915080805461162090613d19565b80601f016020809104026020016040519081016040528092919081815260200182805461164c90613d19565b80156116995780601f1061166e57610100808354040283529160200191611699565b820191906000526020600020905b81548152906001019060200180831161167c57829003601f168201915b5050505050905095509550955095509550955091939550919395565b33600081815260076020526040812060080154606092919060ff1660028111156116e1576116e1613827565b146117275760405162461bcd60e51b81526020600482015260166024820152754e6f742061205265676973746572656420557365722160501b604482015260640161077f565b336000908152601060209081526040918290208054835181840281018401909452808452909183018282801561177c57602002820191906000526020600020905b815481526020019060010190808311611768575b505050505091505b5090565b60008111801561179a57506001548111155b6117a357600080fd5b6000818152600a602090815260408083208151610160810183528154815260018201546001600160a01b03169381019390935260028101805491928401916117ea90613d19565b80601f016020809104026020016040519081016040528092919081815260200182805461181690613d19565b80156118635780601f1061183857610100808354040283529160200191611863565b820191906000526020600020905b81548152906001019060200180831161184657829003601f168201915b5050505050815260200160038201805461187c90613d19565b80601f01602080910402602001604051908101604052809291908181526020018280546118a890613d19565b80156118f55780601f106118ca576101008083540402835291602001916118f5565b820191906000526020600020905b8154815290600101906020018083116118d857829003601f168201915b5050505050815260200160048201805461190e90613d19565b80601f016020809104026020016040519081016040528092919081815260200182805461193a90613d19565b80156119875780601f1061195c57610100808354040283529160200191611987565b820191906000526020600020905b81548152906001019060200180831161196a57829003601f168201915b505050918352505060058201546020820152600682015460408201526007820154606082015260088201546080820152600982015460a0820152600a82015460c09091019060ff1660028111156119e0576119e0613827565b60028111156119f1576119f1613827565b9052503360009081526007602090815260408083208151610120810183528154815260018201546001600160a01b03168185015260028201805484518187028101870186528181529798509596919592949386019391929091830182828015611a8357602002820191906000526020600020905b81546001600160a01b03168152600190910190602001808311611a65575b50505050508152602001600382018054611a9c90613d19565b80601f0160208091040260200160405190810160405280929190818152602001828054611ac890613d19565b8015611b155780601f10611aea57610100808354040283529160200191611b15565b820191906000526020600020905b815481529060010190602001808311611af857829003601f168201915b50505050508152602001600482018054611b2e90613d19565b80601f0160208091040260200160405190810160405280929190818152602001828054611b5a90613d19565b8015611ba75780601f10611b7c57610100808354040283529160200191611ba7565b820191906000526020600020905b815481529060010190602001808311611b8a57829003601f168201915b50505050508152602001600582018054611bc090613d19565b80601f0160208091040260200160405190810160405280929190818152602001828054611bec90613d19565b8015611c395780601f10611c0e57610100808354040283529160200191611c39565b820191906000526020600020905b815481529060010190602001808311611c1c57829003601f168201915b50505050508152602001600682018054611c5290613d19565b80601f0160208091040260200160405190810160405280929190818152602001828054611c7e90613d19565b8015611ccb5780601f10611ca057610100808354040283529160200191611ccb565b820191906000526020600020905b815481529060010190602001808311611cae57829003601f168201915b50505050508152602001600782018054611ce490613d19565b80601f0160208091040260200160405190810160405280929190818152602001828054611d1090613d19565b8015611d5d5780601f10611d3257610100808354040283529160200191611d5d565b820191906000526020600020905b815481529060010190602001808311611d4057829003601f168201915b5050509183525050600882015460209091019060ff166002811115611d8457611d84613827565b6002811115611d9557611d95613827565b9052506020830151604051919250906001600160a01b038216903480156108fc02916000818181858888f19350505050158015611dd6573d6000803e3d6000fd5b5034836101200151611de89190613da1565b6101208401526000848152600a602090815260409182902085518155818601516001820180546001600160a01b0319166001600160a01b03909216919091179055918501518051869392611e43926002850192910190613671565b5060608201518051611e5f916003840191602090910190613671565b5060808201518051611e7b916004840191602090910190613671565b5060a0820151600582015560c0820151600682015560e0820151600782015561010082015160088201556101208201516009820155610140820151600a8201805460ff19166001836002811115611ed457611ed4613827565b02179055505083518351610120860151604080516001600160a01b0387168152602081019490945283019190915260608201527f87f33b8c6f7b23d3afb937ea5ec3f31873744d11bb1c0d14d40c3d50c7a1f664915060800160405180910390a150505050565b80600080828152600a60208190526040909120015460ff166002811115611f6457611f64613827565b14611fa55760405162461bcd60e51b8152602060048201526011602482015270139bdd0818481858dd1a5d994810985b9d607a1b604482015260640161077f565b3360008181526007602052604081206008015460ff166002811115611fcc57611fcc613827565b146120125760405162461bcd60e51b81526020600482015260166024820152754e6f742061205265676973746572656420557365722160501b604482015260640161077f565b600054600160a01b900460ff16156120655760405162461bcd60e51b81526020600482015260166024820152754461707020686173206265656e2073746f707065642160501b604482015260640161077f565b6000838152600a602052604090206001015483906001600160a01b031633146120c65760405162461bcd60e51b8152602060048201526013602482015272596f7520617265206e6f7420417574686f722160681b604482015260640161077f565b6000848152600a60205260409081902090517ff670bcb2dec244bf58dbd1f509b67af3cdf1916d2067fcb71fcb935c0c3566d39161210991879160020190613db9565b60405180910390a16000848152600a602052604081208181556001810180546001600160a01b03191690559061214260028301826136f1565b6121506003830160006136f1565b61215e6004830160006136f1565b5060006005820181905560068201819055600782018190556008820181905560098201819055600a918201805460ff1990811690915586825260208390526040822090920180549092166002179091555b6000858152601160205260409020548110156122025760008581526011602052604090208054829081106121e5576121e5613e6a565b6000918252602082200155806121fa81613d86565b9150506121af565b50600084815260116020526040812061221a9161372e565b50505050565b60006009826040516122329190613e80565b9081526040519081900360200190205460ff161592915050565b600060608080838033816001600160a01b03821660009081526007602052604090206008015460ff16600281111561228657612286613827565b146122cc5760405162461bcd60e51b81526020600482015260166024820152754e6f742061205265676973746572656420557365722160501b604482015260640161077f565b87600080828152600a60208190526040909120015460ff1660028111156122f5576122f5613827565b146123365760405162461bcd60e51b8152602060048201526011602482015270139bdd0818481858dd1a5d994810985b9d607a1b604482015260640161077f565b6000898152600a602052604090206001810154600582015460068301546002840180546001600160a01b03909416949093600382019360049092019290859061237e90613d19565b80601f01602080910402602001604051908101604052809291908181526020018280546123aa90613d19565b80156123f75780601f106123cc576101008083540402835291602001916123f7565b820191906000526020600020905b8154815290600101906020018083116123da57829003601f168201915b5050505050945083805461240a90613d19565b80601f016020809104026020016040519081016040528092919081815260200182805461243690613d19565b80156124835780601f1061245857610100808354040283529160200191612483565b820191906000526020600020905b81548152906001019060200180831161246657829003601f168201915b5050505050935082805461249690613d19565b80601f01602080910402602001604051908101604052809291908181526020018280546124c290613d19565b801561250f5780601f106124e45761010080835404028352916020019161250f565b820191906000526020600020905b8154815290600101906020018083116124f257829003601f168201915b50505050509250975097509750975097509750505091939550919395565b600054600160a01b900460ff16156125805760405162461bcd60e51b81526020600482015260166024820152754461707020686173206265656e2073746f707065642160501b604482015260640161077f565b3360008181526007602052604081206008015460ff1660028111156125a7576125a7613827565b146125ed5760405162461bcd60e51b81526020600482015260166024820152754e6f742061205265676973746572656420557365722160501b604482015260640161077f565b816009816040516125fe9190613e80565b9081526040519081900360200190205460ff161561265e5760405162461bcd60e51b815260206004820152601660248201527f557365726e616d6520616c72656164792074616b656e00000000000000000000604482015260640161077f565b336000908152600760209081526040909120845161221a92600390920191860190613671565b600054600160a01b900460ff16156126d75760405162461bcd60e51b81526020600482015260166024820152754461707020686173206265656e2073746f707065642160501b604482015260640161077f565b80600080828152600f602052604090206006015460ff1660028111156126ff576126ff613827565b1461274c5760405162461bcd60e51b815260206004820152601460248201527f4e6f7420612061637469766520636f6d6d656e74000000000000000000000000604482015260640161077f565b3360008181526007602052604081206008015460ff16600281111561277357612773613827565b146127b95760405162461bcd60e51b81526020600482015260166024820152754e6f742061205265676973746572656420557365722160501b604482015260640161077f565b6000838152600f602052604090206001015483906001600160a01b0316331461281a5760405162461bcd60e51b8152602060048201526013602482015272596f7520617265206e6f7420417574686f722160681b604482015260640161077f565b6000848152600f602052604081208181556001810180546001600160a01b0319169055600281018290559061285260038301826136f1565b50600060048201819055600582018190556006918201805460ff19908116909155958152600f60205260409020018054909416600217909355505050565b6000546001600160a01b031633146128df5760405162461bcd60e51b8152602060048201526012602482015271596f7520617265206e6f74206f776e65722160701b604482015260640161077f565b600054600160a01b900460ff166129385760405162461bcd60e51b815260206004820152600f60248201527f416c726561647920737461727465640000000000000000000000000000000000604482015260640161077f565b6000805460ff60a01b19169055565b6000546001600160a01b031633146129965760405162461bcd60e51b8152602060048201526012602482015271596f7520617265206e6f74206f776e65722160701b604482015260640161077f565b600080546001600160a01b0319166001600160a01b0392909216919091179055565b600054600160a01b900460ff1615612a0b5760405162461bcd60e51b81526020600482015260166024820152754461707020686173206265656e2073746f707065642160501b604482015260640161077f565b3360008181526007602052604081206008015460ff166002811115612a3257612a32613827565b14612a7f5760405162461bcd60e51b815260206004820152601760248201527f5573657220616c72656164792072656769737465726564000000000000000000604482015260640161077f565b85600981604051612a909190613e80565b9081526040519081900360200190205460ff1615612af05760405162461bcd60e51b815260206004820152601660248201527f557365726e616d6520616c72656164792074616b656e00000000000000000000604482015260640161077f565b6001600988604051612b029190613e80565b908152604051908190036020019020805491151560ff19909216919091179055600554612b3090600161360b565b6005819055604080516101208101825282815233602082015260609181018290528082018a90526080810189905260a0810188905260c0810187905260e081018690526101008101600090523360009081526007602090815260409182902083518155838201516001820180546001600160a01b0319166001600160a01b03909216919091179055918301518051612bce926002850192019061374c565b5060608201518051612bea916003840191602090910190613671565b5060808201518051612c06916004840191602090910190613671565b5060a08201518051612c22916005840191602090910190613671565b5060c08201518051612c3e916006840191602090910190613671565b5060e08201518051612c5a916007840191602090910190613671565b5061010082015160088201805460ff19166001836002811115612c7f57612c7f613827565b02179055509050503360088a604051612c989190613e80565b908152604080516020928190038301812080546001600160a01b0319166001600160a01b039590951694909417909355600554338452918301919091527fabc58c36475157c4ac7669f9adfbb6f254d3a3578fb89676f6866ac3b9950eed910160405180910390a1505050505050505050565b600054600160a01b900460ff1615612d5e5760405162461bcd60e51b81526020600482015260166024820152754461707020686173206265656e2073746f707065642160501b604482015260640161077f565b3360008181526007602052604081206008015460ff166002811115612d8557612d85613827565b14612dcb5760405162461bcd60e51b81526020600482015260166024820152754e6f742061205265676973746572656420557365722160501b604482015260640161077f565b82600080828152600f602052604090206006015460ff166002811115612df357612df3613827565b14612e405760405162461bcd60e51b815260206004820152601460248201527f4e6f7420612061637469766520636f6d6d656e74000000000000000000000000604482015260640161077f565b6000848152600f602052604090206001015484906001600160a01b03163314612ea15760405162461bcd60e51b8152602060048201526013602482015272596f7520617265206e6f7420417574686f722160681b604482015260640161077f565b6000858152600f602090815260409091208551612ec692600390920191870190613671565b505050505050565b6000546001600160a01b03163314612f1d5760405162461bcd60e51b8152602060048201526012602482015271596f7520617265206e6f74206f776e65722160701b604482015260640161077f565b47811115612f925760405162461bcd60e51b8152602060048201526024808201527f576974686472617720616d6f756e742067726561746572207468616e2062616c60448201527f616e636500000000000000000000000000000000000000000000000000000000606482015260840161077f565b604051339082156108fc029083906000818181858888f19350505050158015612fbf573d6000803e3d6000fd5b5050565b3360008181526007602052604081206008015460ff166002811115612fea57612fea613827565b146130305760405162461bcd60e51b81526020600482015260166024820152754e6f742061205265676973746572656420557365722160501b604482015260640161077f565b81600080828152600a60208190526040909120015460ff16600281111561305957613059613827565b1461309a5760405162461bcd60e51b8152602060048201526011602482015270139bdd0818481858dd1a5d994810985b9d607a1b604482015260640161077f565b6000838152600e6020908152604080832033845290915290205460ff16156130c157600080fd5b6000838152600a60205260409020600601546130de90600161360b565b6000938452600a6020908152604080862060060192909255600e81528185203386529052909220805460ff191660011790555050565b600054600160a01b900460ff16156131675760405162461bcd60e51b81526020600482015260166024820152754461707020686173206265656e2073746f707065642160501b604482015260640161077f565b83600080828152600a60208190526040909120015460ff16600281111561319057613190613827565b146131d15760405162461bcd60e51b8152602060048201526011602482015270139bdd0818481858dd1a5d994810985b9d607a1b604482015260640161077f565b3360008181526007602052604081206008015460ff1660028111156131f8576131f8613827565b1461323e5760405162461bcd60e51b81526020600482015260166024820152754e6f742061205265676973746572656420557365722160501b604482015260640161077f565b6000868152600a602052604090206001015486906001600160a01b0316331461329f5760405162461bcd60e51b8152602060048201526013602482015272596f7520617265206e6f7420417574686f722160681b604482015260640161077f565b6000878152600a6020908152604090912087516132c492600290920191890190613671565b506000878152600a6020908152604090912086516132ea92600390920191880190613671565b506000878152600a60209081526040909120855161331092600490920191870190613671565b506040518781527f0561a8b8edddeeab34482799ca642511309607378eb55cdba66deb06f06b507f9060200160405180910390a150505050505050565b600054600160a01b900460ff16156133a05760405162461bcd60e51b81526020600482015260166024820152754461707020686173206265656e2073746f707065642160501b604482015260640161077f565b3360008181526007602052604081206008015460ff1660028111156133c7576133c7613827565b1461340d5760405162461bcd60e51b81526020600482015260166024820152754e6f742061205265676973746572656420557365722160501b604482015260640161077f565b60035461341b90600161360b565b6003819055835161342b57600080fd5b6001805490600061343b83613d86565b9190505550604051806101600160405280828152602001336001600160a01b0316815260200186815260200185815260200184815260200142815260200160008152602001600081526020016000815260200160008152602001600060028111156134a8576134a8613827565b90526000828152600a602090815260409182902083518155838201516001820180546001600160a01b0319166001600160a01b039092169190911790559183015180516134fb9260028501920190613671565b5060608201518051613517916003840191602090910190613671565b5060808201518051613533916004840191602090910190613671565b5060a0820151600582015560c0820151600682015560e0820151600782015561010082015160088201556101208201516009820155610140820151600a8201805460ff1916600183600281111561358c5761358c613827565b021790555050336000818152600b6020908152604080832060038054825460018101845592865284862090920191909155848452600790925280832054915490517fb1091a9f12f52e907000cb53318811bfa085f61b7649ec6645fa85b611eb839595506135fc94938b91613e9c565b60405180910390a15050505050565b6000806136188385613da1565b90508381101561366a5760405162461bcd60e51b815260206004820152601b60248201527f536166654d6174683a206164646974696f6e206f766572666c6f770000000000604482015260640161077f565b9392505050565b82805461367d90613d19565b90600052602060002090601f01602090048101928261369f57600085556136e5565b82601f106136b857805160ff19168380011785556136e5565b828001600101855582156136e5579182015b828111156136e55782518255916020019190600101906136ca565b506117849291506137a1565b5080546136fd90613d19565b6000825580601f1061370d575050565b601f01602090049060005260206000209081019061372b91906137a1565b50565b508054600082559060005260206000209081019061372b91906137a1565b8280548282559060005260206000209081019282156136e5579160200282015b828111156136e557825182546001600160a01b0319166001600160a01b0390911617825560209092019160019091019061376c565b5b8082111561178457600081556001016137a2565b6000602082840312156137c857600080fd5b5035919050565b60005b838110156137ea5781810151838201526020016137d2565b8381111561221a5750506000910152565b600081518084526138138160208601602086016137cf565b601f01601f19169290920160200192915050565b634e487b7160e01b600052602160045260246000fd5b6003811061372b57634e487b7160e01b600052602160045260246000fd5b6001600160a01b038716815285602082015260c06040820152600061388360c08301876137fb565b905084606083015283608083015261389a8361383d565b8260a0830152979650505050505050565b6001600160a01b038116811461372b57600080fd5b6000602082840312156138d257600080fd5b813561366a816138ab565b602081016138ea8361383d565b91905290565b6020808252825182820181905260009190848201906040850190845b818110156139285783518352928401929184019160010161390c565b50909695505050505050565b634e487b7160e01b600052604160045260246000fd5b600082601f83011261395b57600080fd5b813567ffffffffffffffff8082111561397657613976613934565b604051601f8301601f19908116603f0116810190828211818310171561399e5761399e613934565b816040528381528660208588010111156139b757600080fd5b836020870160208301376000602085830101528094505050505092915050565b600080604083850312156139ea57600080fd5b82359150602083013567ffffffffffffffff811115613a0857600080fd5b613a148582860161394a565b9150509250929050565b86815260c060208201526000613a3760c08301886137fb565b8281036040840152613a4981886137fb565b90508281036060840152613a5d81876137fb565b90508281036080840152613a7181866137fb565b905082810360a0840152613a8581856137fb565b9998505050505050505050565b600060208284031215613aa457600080fd5b813567ffffffffffffffff811115613abb57600080fd5b613ac78482850161394a565b949350505050565b6001600160a01b038716815260c060208201526000613af160c08301886137fb565b8281036040840152613b0381886137fb565b90508281036060840152613b1781876137fb565b6080840195909552505060a00152949350505050565b600080600080600060a08688031215613b4557600080fd5b853567ffffffffffffffff80821115613b5d57600080fd5b613b6989838a0161394a565b96506020880135915080821115613b7f57600080fd5b613b8b89838a0161394a565b95506040880135915080821115613ba157600080fd5b613bad89838a0161394a565b94506060880135915080821115613bc357600080fd5b613bcf89838a0161394a565b93506080880135915080821115613be557600080fd5b50613bf28882890161394a565b9150509295509295909350565b60008060008060808587031215613c1557600080fd5b84359350602085013567ffffffffffffffff80821115613c3457600080fd5b613c408883890161394a565b94506040870135915080821115613c5657600080fd5b613c628883890161394a565b93506060870135915080821115613c7857600080fd5b50613c858782880161394a565b91505092959194509250565b600080600060608486031215613ca657600080fd5b833567ffffffffffffffff80821115613cbe57600080fd5b613cca8783880161394a565b94506020860135915080821115613ce057600080fd5b613cec8783880161394a565b93506040860135915080821115613d0257600080fd5b50613d0f8682870161394a565b9150509250925092565b600181811c90821680613d2d57607f821691505b60208210811415610c6557634e487b7160e01b600052602260045260246000fd5b6001600160a01b0383168152604060208201526000613ac760408301846137fb565b634e487b7160e01b600052601160045260246000fd5b6000600019821415613d9a57613d9a613d70565b5060010190565b60008219821115613db457613db4613d70565b500190565b828152600060206040818401526000845481600182811c915080831680613de157607f831692505b858310811415613dff57634e487b7160e01b85526022600452602485fd5b6040880183905260608801818015613e1e5760018114613e2f57613e5a565b60ff19861682528782019650613e5a565b60008b81526020902060005b86811015613e5457815484820152908501908901613e3b565b83019750505b50949a9950505050505050505050565b634e487b7160e01b600052603260045260246000fd5b60008251613e928184602087016137cf565b9190910192915050565b6001600160a01b038616815284602082015283604082015260a060608201526000613eca60a08301856137fb565b9050826080830152969550505050505056fea26469706673582212203bc4d602e6ba795bc79e7e51cffca5398684806d3ed3f0cdb406fc832e895cf164736f6c63430008080033",
  "linkReferences": {},
  "deployedLinkReferences": {}
}