{
  "_format": "hh-sol-artifact-1",
  "contractName": "Dbanta",
  "sourceName": "contracts/dbanta.sol",
  "abi": [
    {
      "inputs": [],
      "stateMutability": "nonpayable",
      "type": "constructor"
    },
    {
      "anonymous": false,
      "inputs": [
        {
          "indexed": false,
          "internalType": "address payable",
          "name": "author",
          "type": "address"
        },
        {
          "indexed": false,
          "internalType": "uint256",
          "name": "userid",
          "type": "uint256"
        },
        {
          "indexed": false,
          "internalType": "uint256",
          "name": "bantid",
          "type": "uint256"
        },
        {
          "indexed": false,
          "internalType": "uint256",
          "name": "tipVote",
          "type": "uint256"
        }
      ],
      "name": "bantVoted",
      "type": "event"
    },
    {
      "anonymous": false,
      "inputs": [
        {
          "indexed": false,
          "internalType": "address payable",
          "name": "author",
          "type": "address"
        },
        {
          "indexed": false,
          "internalType": "uint256",
          "name": "userid",
          "type": "uint256"
        },
        {
          "indexed": false,
          "internalType": "uint256",
          "name": "bantid",
          "type": "uint256"
        },
        {
          "indexed": false,
          "internalType": "string",
          "name": "hashtag",
          "type": "string"
        },
        {
          "indexed": false,
          "internalType": "uint256",
          "name": "tipVote",
          "type": "uint256"
        }
      ],
      "name": "logBantCreated",
      "type": "event"
    },
    {
      "anonymous": false,
      "inputs": [
        {
          "indexed": false,
          "internalType": "uint256",
          "name": "id",
          "type": "uint256"
        },
        {
          "indexed": false,
          "internalType": "string",
          "name": "hashtag",
          "type": "string"
        }
      ],
      "name": "logBantDeleted",
      "type": "event"
    },
    {
      "anonymous": false,
      "inputs": [
        {
          "indexed": false,
          "internalType": "uint256",
          "name": "id",
          "type": "uint256"
        }
      ],
      "name": "logBantEdited",
      "type": "event"
    },
    {
      "anonymous": false,
      "inputs": [
        {
          "indexed": false,
          "internalType": "uint256",
          "name": "rebantid",
          "type": "uint256"
        },
        {
          "indexed": false,
          "internalType": "uint256",
          "name": "bantid",
          "type": "uint256"
        },
        {
          "indexed": false,
          "internalType": "address",
          "name": "user",
          "type": "address"
        }
      ],
      "name": "logRebantCreated",
      "type": "event"
    },
    {
      "anonymous": false,
      "inputs": [
        {
          "indexed": false,
          "internalType": "address",
          "name": "user",
          "type": "address"
        },
        {
          "indexed": false,
          "internalType": "uint256",
          "name": "id",
          "type": "uint256"
        }
      ],
      "name": "logRegisterUser",
      "type": "event"
    },
    {
      "anonymous": false,
      "inputs": [
        {
          "indexed": false,
          "internalType": "address",
          "name": "user",
          "type": "address"
        },
        {
          "indexed": false,
          "internalType": "uint256",
          "name": "id",
          "type": "uint256"
        }
      ],
      "name": "logUserBanned",
      "type": "event"
    },
    {
      "anonymous": false,
      "inputs": [
        {
          "indexed": false,
          "internalType": "address",
          "name": "user",
          "type": "address"
        },
        {
          "indexed": false,
          "internalType": "address",
          "name": "follower",
          "type": "address"
        }
      ],
      "name": "newfollowers",
      "type": "event"
    },
    {
      "stateMutability": "nonpayable",
      "type": "fallback"
    },
    {
      "inputs": [],
      "name": "bantCount",
      "outputs": [
        {
          "internalType": "uint256",
          "name": "",
          "type": "uint256"
        }
      ],
      "stateMutability": "view",
      "type": "function"
    },
    {
      "inputs": [
        {
          "internalType": "address payable",
          "name": "_newOwner",
          "type": "address"
        }
      ],
      "name": "changeOwner",
      "outputs": [],
      "stateMutability": "nonpayable",
      "type": "function"
    },
    {
      "inputs": [
        {
          "internalType": "string",
          "name": "_username",
          "type": "string"
        }
      ],
      "name": "changeUsername",
      "outputs": [],
      "stateMutability": "nonpayable",
      "type": "function"
    },
    {
      "inputs": [
        {
          "internalType": "string",
          "name": "_hashtag",
          "type": "string"
        },
        {
          "internalType": "string",
          "name": "_content",
          "type": "string"
        },
        {
          "internalType": "string",
          "name": "_imghash",
          "type": "string"
        }
      ],
      "name": "createBant",
      "outputs": [],
      "stateMutability": "nonpayable",
      "type": "function"
    },
    {
      "inputs": [
        {
          "internalType": "uint256",
          "name": "_bantid",
          "type": "uint256"
        },
        {
          "internalType": "string",
          "name": "_comment",
          "type": "string"
        }
      ],
      "name": "createComment",
      "outputs": [],
      "stateMutability": "nonpayable",
      "type": "function"
    },
    {
      "inputs": [
        {
          "internalType": "uint256",
          "name": "_id",
          "type": "uint256"
        }
      ],
      "name": "deleteBant",
      "outputs": [],
      "stateMutability": "nonpayable",
      "type": "function"
    },
    {
      "inputs": [
        {
          "internalType": "uint256",
          "name": "_id",
          "type": "uint256"
        }
      ],
      "name": "deleteComment",
      "outputs": [],
      "stateMutability": "nonpayable",
      "type": "function"
    },
    {
      "inputs": [
        {
          "internalType": "uint256",
          "name": "_id",
          "type": "uint256"
        },
        {
          "internalType": "string",
          "name": "_hashtag",
          "type": "string"
        },
        {
          "internalType": "string",
          "name": "_content",
          "type": "string"
        },
        {
          "internalType": "string",
          "name": "_imghash",
          "type": "string"
        }
      ],
      "name": "editBant",
      "outputs": [],
      "stateMutability": "nonpayable",
      "type": "function"
    },
    {
      "inputs": [
        {
          "internalType": "uint256",
          "name": "_commentid",
          "type": "uint256"
        },
        {
          "internalType": "string",
          "name": "_comment",
          "type": "string"
        }
      ],
      "name": "editComment",
      "outputs": [],
      "stateMutability": "nonpayable",
      "type": "function"
    },
    {
      "inputs": [
        {
          "internalType": "address",
          "name": "_person",
          "type": "address"
        }
      ],
      "name": "followusers",
      "outputs": [],
      "stateMutability": "nonpayable",
      "type": "function"
    },
    {
      "inputs": [],
      "name": "getBalance",
      "outputs": [
        {
          "internalType": "uint256",
          "name": "balance",
          "type": "uint256"
        }
      ],
      "stateMutability": "view",
      "type": "function"
    },
    {
      "inputs": [
        {
          "internalType": "uint256",
          "name": "_id",
          "type": "uint256"
        }
      ],
      "name": "getBant",
      "outputs": [
        {
          "internalType": "address",
          "name": "author",
          "type": "address"
        },
        {
          "internalType": "string",
          "name": "hashtag",
          "type": "string"
        },
        {
          "internalType": "string",
          "name": "content",
          "type": "string"
        },
        {
          "internalType": "string",
          "name": "imgHash",
          "type": "string"
        },
        {
          "internalType": "uint256",
          "name": "timestamp",
          "type": "uint256"
        },
        {
          "internalType": "uint256",
          "name": "likeCount",
          "type": "uint256"
        }
      ],
      "stateMutability": "view",
      "type": "function"
    },
    {
      "inputs": [
        {
          "internalType": "uint256",
          "name": "_id",
          "type": "uint256"
        }
      ],
      "name": "getBantComments",
      "outputs": [
        {
          "internalType": "uint256[]",
          "name": "list",
          "type": "uint256[]"
        }
      ],
      "stateMutability": "view",
      "type": "function"
    },
    {
      "inputs": [
        {
          "internalType": "uint256",
          "name": "_id",
          "type": "uint256"
        }
      ],
      "name": "getComment",
      "outputs": [
        {
          "internalType": "address",
          "name": "author",
          "type": "address"
        },
        {
          "internalType": "uint256",
          "name": "bantId",
          "type": "uint256"
        },
        {
          "internalType": "string",
          "name": "content",
          "type": "string"
        },
        {
          "internalType": "uint256",
          "name": "likeCount",
          "type": "uint256"
        },
        {
          "internalType": "uint256",
          "name": "timestamp",
          "type": "uint256"
        },
        {
          "internalType": "enum Dbanta.cdStatus",
          "name": "status",
          "type": "uint8"
        }
      ],
      "stateMutability": "view",
      "type": "function"
    },
    {
      "inputs": [],
      "name": "getTotalUserBants",
      "outputs": [
        {
          "internalType": "uint256",
          "name": "",
          "type": "uint256"
        }
      ],
      "stateMutability": "view",
      "type": "function"
    },
    {
      "inputs": [
        {
          "internalType": "address",
          "name": "_user",
          "type": "address"
        }
      ],
      "name": "getUser",
      "outputs": [
        {
          "internalType": "uint256",
          "name": "id",
          "type": "uint256"
        },
        {
          "internalType": "string",
          "name": "username",
          "type": "string"
        },
        {
          "internalType": "string",
          "name": "name",
          "type": "string"
        },
        {
          "internalType": "string",
          "name": "imghash",
          "type": "string"
        },
        {
          "internalType": "string",
          "name": "coverhash",
          "type": "string"
        },
        {
          "internalType": "string",
          "name": "bio",
          "type": "string"
        }
      ],
      "stateMutability": "view",
      "type": "function"
    },
    {
      "inputs": [],
      "name": "getUserBants",
      "outputs": [
        {
          "internalType": "uint256[]",
          "name": "bantList",
          "type": "uint256[]"
        }
      ],
      "stateMutability": "view",
      "type": "function"
    },
    {
      "inputs": [
        {
          "internalType": "address",
          "name": "_user",
          "type": "address"
        }
      ],
      "name": "getUserBants",
      "outputs": [
        {
          "internalType": "uint256[]",
          "name": "bantList",
          "type": "uint256[]"
        }
      ],
      "stateMutability": "view",
      "type": "function"
    },
    {
      "inputs": [
        {
          "internalType": "address",
          "name": "_user",
          "type": "address"
        }
      ],
      "name": "getUserComments",
      "outputs": [
        {
          "internalType": "uint256[]",
          "name": "commentList",
          "type": "uint256[]"
        }
      ],
      "stateMutability": "view",
      "type": "function"
    },
    {
      "inputs": [],
      "name": "getUserComments",
      "outputs": [
        {
          "internalType": "uint256[]",
          "name": "commentList",
          "type": "uint256[]"
        }
      ],
      "stateMutability": "view",
      "type": "function"
    },
    {
      "inputs": [
        {
          "internalType": "uint256",
          "name": "_id",
          "type": "uint256"
        }
      ],
      "name": "likeBant",
      "outputs": [],
      "stateMutability": "nonpayable",
      "type": "function"
    },
    {
      "inputs": [],
      "name": "owner",
      "outputs": [
        {
          "internalType": "address",
          "name": "",
          "type": "address"
        }
      ],
      "stateMutability": "view",
      "type": "function"
    },
    {
      "inputs": [
        {
          "internalType": "uint256",
          "name": "_id",
          "type": "uint256"
        },
        {
          "internalType": "uint256",
          "name": "_rebantid",
          "type": "uint256"
        }
      ],
      "name": "rebantusersbant",
      "outputs": [
        {
          "internalType": "uint256",
          "name": "",
          "type": "uint256"
        }
      ],
      "stateMutability": "nonpayable",
      "type": "function"
    },
    {
      "inputs": [
        {
          "internalType": "string",
          "name": "_username",
          "type": "string"
        },
        {
          "internalType": "string",
          "name": "_name",
          "type": "string"
        },
        {
          "internalType": "string",
          "name": "_imgHash",
          "type": "string"
        },
        {
          "internalType": "string",
          "name": "_coverHash",
          "type": "string"
        },
        {
          "internalType": "string",
          "name": "_bio",
          "type": "string"
        }
      ],
      "name": "registerUser",
      "outputs": [],
      "stateMutability": "nonpayable",
      "type": "function"
    },
    {
      "inputs": [],
      "name": "startDapp",
      "outputs": [],
      "stateMutability": "nonpayable",
      "type": "function"
    },
    {
      "inputs": [],
      "name": "stopDapp",
      "outputs": [],
      "stateMutability": "nonpayable",
      "type": "function"
    },
    {
      "inputs": [],
      "name": "stopped",
      "outputs": [
        {
          "internalType": "bool",
          "name": "",
          "type": "bool"
        }
      ],
      "stateMutability": "view",
      "type": "function"
    },
    {
      "inputs": [
        {
          "internalType": "uint256",
          "name": "_id",
          "type": "uint256"
        }
      ],
      "name": "tipPost",
      "outputs": [],
      "stateMutability": "payable",
      "type": "function"
    },
    {
      "inputs": [],
      "name": "totalBants",
      "outputs": [
        {
          "internalType": "uint256",
          "name": "",
          "type": "uint256"
        }
      ],
      "stateMutability": "view",
      "type": "function"
    },
    {
      "inputs": [],
      "name": "totalComments",
      "outputs": [
        {
          "internalType": "uint256",
          "name": "",
          "type": "uint256"
        }
      ],
      "stateMutability": "view",
      "type": "function"
    },
    {
      "inputs": [],
      "name": "totalRebants",
      "outputs": [
        {
          "internalType": "uint256",
          "name": "",
          "type": "uint256"
        }
      ],
      "stateMutability": "view",
      "type": "function"
    },
    {
      "inputs": [],
      "name": "totalUsers",
      "outputs": [
        {
          "internalType": "uint256",
          "name": "",
          "type": "uint256"
        }
      ],
      "stateMutability": "view",
      "type": "function"
    },
    {
      "inputs": [
        {
          "internalType": "uint256",
          "name": "_amount",
          "type": "uint256"
        }
      ],
      "name": "transferContractBalance",
      "outputs": [],
      "stateMutability": "nonpayable",
      "type": "function"
    },
    {
      "inputs": [
        {
          "internalType": "address",
          "name": "_useraddr",
          "type": "address"
        }
      ],
      "name": "userStatus",
      "outputs": [
        {
          "internalType": "enum Dbanta.accountStatus",
          "name": "status",
          "type": "uint8"
        }
      ],
      "stateMutability": "view",
      "type": "function"
    },
    {
      "inputs": [
        {
          "internalType": "string",
          "name": "_username",
          "type": "string"
        }
      ],
      "name": "usernameAvailable",
      "outputs": [
        {
          "internalType": "bool",
          "name": "status",
          "type": "bool"
        }
      ],
      "stateMutability": "view",
      "type": "function"
    }
  ],
  "bytecode": "0x60806040526000805460ff60a01b1916815560018190556002819055600381905560048190556005553480156200003557600080fd5b50600080546001600160a01b0319163317815560408051808201825260058082526437bbb732b960d91b6020808401829052845180860186528381528082018390528551808301875287815286518084018852978852865180880190975293865290850191909152620000ad949293909290620000b3565b62000663565b600054600160a01b900460ff1615620001135760405162461bcd60e51b815260206004820152601660248201527f4461707020686173206265656e2073746f70706564210000000000000000000060448201526064015b60405180910390fd5b3360008181526006602052604081206008015460ff1660028111156200013d576200013d620005ab565b146200018c5760405162461bcd60e51b815260206004820152601760248201527f5573657220616c7265616479207265676973746572656400000000000000000060448201526064016200010a565b856008816040516200019f9190620005c1565b9081526040519081900360200190205460ff1615620002015760405162461bcd60e51b815260206004820152601660248201527f557365726e616d6520616c72656164792074616b656e0000000000000000000060448201526064016200010a565b6001600888604051620002159190620005c1565b908152602001604051809103902060006101000a81548160ff0219169083151502179055506200025760016004546200044360201b6200366c1790919060201c565b6004819055604080516101208101825282815233602082015260609181018290528082018a90526080810189905260a0810188905260c0810187905260e081018690526101008101600090523360009081526006602090815260409182902083518155838201516001820180546001600160a01b0319166001600160a01b03909216919091179055918301518051620002f79260028501920190620004ad565b50606082015180516200031591600384019160209091019062000517565b50608082015180516200033391600484019160209091019062000517565b5060a082015180516200035191600584019160209091019062000517565b5060c082015180516200036f91600684019160209091019062000517565b5060e082015180516200038d91600784019160209091019062000517565b5061010082015160088201805460ff19166001836002811115620003b557620003b5620005ab565b02179055509050503360078a604051620003d09190620005c1565b908152604080516020928190038301812080546001600160a01b0319166001600160a01b039590951694909417909355600454338452918301919091527fabc58c36475157c4ac7669f9adfbb6f254d3a3578fb89676f6866ac3b9950eed910160405180910390a1505050505050505050565b600080620004528385620005ff565b905083811015620004a65760405162461bcd60e51b815260206004820152601b60248201527f536166654d6174683a206164646974696f6e206f766572666c6f77000000000060448201526064016200010a565b9392505050565b82805482825590600052602060002090810192821562000505579160200282015b828111156200050557825182546001600160a01b0319166001600160a01b03909116178255602090920191600190910190620004ce565b506200051392915062000594565b5090565b828054620005259062000626565b90600052602060002090601f01602090048101928262000549576000855562000505565b82601f106200056457805160ff191683800117855562000505565b8280016001018555821562000505579182015b828111156200050557825182559160200191906001019062000577565b5b8082111562000513576000815560010162000595565b634e487b7160e01b600052602160045260246000fd5b6000825160005b81811015620005e45760208186018101518583015201620005c8565b81811115620005f4576000828501525b509190910192915050565b600082198211156200062157634e487b7160e01b600052601160045260246000fd5b500190565b600181811c908216806200063b57607f821691505b602082108114156200065d57634e487b7160e01b600052602260045260246000fd5b50919050565b613f9380620006736000396000f3fe6080604052600436106102345760003560e01c806374dfaa8211610138578063ac9f0a40116100b0578063beee20dc1161007f578063c039b58411610064578063c039b5841461067c578063ef2f030d1461069c578063ff99fa1f146106bc57610234565b8063beee20dc14610646578063bff1f9e11461066657610234565b8063ac9f0a40146105d0578063ad816029146105f0578063b42c9f4214610610578063b9394ad41461063057610234565b806377c846af116101075780638da5cb5b116100ec5780638da5cb5b1461056357806395d2cc921461059b578063a6f9dae1146105b057610234565b806377c846af146105235780637d0b10261461054357610234565b806374dfaa821461048057806374ebaadc146104a057806375f12b21146104d0578063764a614a146104f157610234565b8063325d748e116101cb57806360a4e4271161019a5780636f77926b1161017f5780636f77926b14610426578063719b741d1461045857806374d3c1f81461046d57610234565b806360a4e427146103ee57806361936b811461041057610234565b8063325d748e1461037957806333aa01e91461039957806339629a36146103ae57806340a17985146103ce57610234565b8063223757cb11610207578063223757cb146102d8578063225d29a1146102fa5780632b27465b146103435780632b3c6e221461035957610234565b806307428a89146102465780630800e3001461026f57806309175a57146102a157806312065fe0146102c3575b34801561024057600080fd5b50600080fd5b34801561025257600080fd5b5061025c60055481565b6040519081526020015b60405180910390f35b34801561027b57600080fd5b5061028f61028a366004613817565b6106dc565b604051610266969594939291906138bc565b3480156102ad57600080fd5b506102b66108af565b604051610266919061390c565b3480156102cf57600080fd5b5061025c610977565b3480156102e457600080fd5b506102f86102f3366004613965565b6109cc565b005b34801561030657600080fd5b50610336610315366004613965565b6001600160a01b031660009081526006602052604090206008015460ff1690565b6040516102669190613982565b34801561034f57600080fd5b5061025c60025481565b34801561036557600080fd5b506102b6610374366004613965565b610a4d565b34801561038557600080fd5b506102b6610394366004613965565b610b20565b3480156103a557600080fd5b506102f8610bf0565b3480156103ba57600080fd5b506102b66103c9366004613817565b610cae565b3480156103da57600080fd5b506102f86103e9366004613a38565b610de1565b3480156103fa57600080fd5b50336000908152600a602052604090205461025c565b34801561041c57600080fd5b5061025c60035481565b34801561043257600080fd5b50610446610441366004613965565b61102b565b60405161026696959493929190613a7f565b34801561046457600080fd5b506102b661133d565b6102f861047b366004613817565b611402565b34801561048c57600080fd5b506102f861049b366004613817565b611ba0565b3480156104ac57600080fd5b506104c06104bb366004613af3565b611e73565b6040519015158152602001610266565b3480156104dc57600080fd5b506000546104c090600160a01b900460ff1681565b3480156104fd57600080fd5b5061051161050c366004613817565b611e9f565b60405161026696959493929190613b30565b34801561052f57600080fd5b506102f861053e366004613af3565b612175565b34801561054f57600080fd5b506102f861055e366004613817565b6122c1565b34801561056f57600080fd5b50600054610583906001600160a01b031681565b6040516001600160a01b039091168152602001610266565b3480156105a757600080fd5b506102f86124c2565b3480156105bc57600080fd5b506102f86105cb366004613965565b612579565b3480156105dc57600080fd5b506102f86105eb366004613b8e565b6125ea565b3480156105fc57600080fd5b506102f861060b366004613a38565b61293d565b34801561061c57600080fd5b5061025c61062b366004613c60565b612af5565b34801561063c57600080fd5b5061025c60015481565b34801561065257600080fd5b506102f8610661366004613817565b612f62565b34801561067257600080fd5b5061025c60045481565b34801561068857600080fd5b506102f8610697366004613817565b613057565b3480156106a857600080fd5b506102f86106b7366004613c82565b61319d565b3480156106c857600080fd5b506102f86106d7366004613d14565b6133cb565b600080606081808033816001600160a01b03821660009081526006602052604090206008015460ff16600281111561071657610716613888565b146107565760405162461bcd60e51b81526020600482015260166024820152600080516020613f3e83398151915260448201526064015b60405180910390fd5b87600080828152600f602052604090206006015460ff16600281111561077e5761077e613888565b146107cb5760405162461bcd60e51b815260206004820152601460248201527f4e6f7420612061637469766520636f6d6d656e74000000000000000000000000604482015260640161074d565b6000898152600f6020526040902060018101546002820154600483015460058401546006850154600390950180546001600160a01b03909516959394909360ff1690849061081890613d9c565b80601f016020809104026020016040519081016040528092919081815260200182805461084490613d9c565b80156108915780601f1061086657610100808354040283529160200191610891565b820191906000526020600020905b81548152906001019060200180831161087457829003601f168201915b50505050509350975097509750975097509750505091939550919395565b33600081815260066020526040812060080154606092919060ff1660028111156108db576108db613888565b146109165760405162461bcd60e51b81526020600482015260166024820152600080516020613f3e833981519152604482015260640161074d565b336000908152600a60209081526040918290208054835181840281018401909452808452909183018282801561096b57602002820191906000526020600020905b815481526020019060010190808311610957575b505050505091505b5090565b600080546001600160a01b031633146109c75760405162461bcd60e51b8152602060048201526012602482015271596f7520617265206e6f74206f776e65722160701b604482015260640161074d565b504790565b6001600160a01b03811660008181526006602090815260408083206002810180546001810182559085529383902090930180546001600160a01b0319163390811790915581519485529184019190915290917fd9ac212dba415b860553899b53a3a0f59da2e3ff60d443bb4ae635f79c60b742910160405180910390a15050565b33600081815260066020526040812060080154606092919060ff166002811115610a7957610a79613888565b14610ab45760405162461bcd60e51b81526020600482015260166024820152600080516020613f3e833981519152604482015260640161074d565b6001600160a01b03831660009081526010602090815260409182902080548351818402810184019094528084529091830182828015610b1257602002820191906000526020600020905b815481526020019060010190808311610afe575b505050505091505b50919050565b33600081815260066020526040812060080154606092919060ff166002811115610b4c57610b4c613888565b14610b875760405162461bcd60e51b81526020600482015260166024820152600080516020613f3e833981519152604482015260640161074d565b6001600160a01b0383166000908152600a602090815260409182902080548351818402810184019094528084529091830182828015610b125760200282019190600052602060002090815481526020019060010190808311610afe575050505050915050919050565b6000546001600160a01b03163314610c3f5760405162461bcd60e51b8152602060048201526012602482015271596f7520617265206e6f74206f776e65722160701b604482015260640161074d565b600054600160a01b900460ff1615610c995760405162461bcd60e51b815260206004820152600f60248201527f416c72656164792073746f707065640000000000000000000000000000000000604482015260640161074d565b6000805460ff60a01b1916600160a01b179055565b33600081815260066020526040812060080154606092919060ff166002811115610cda57610cda613888565b14610d155760405162461bcd60e51b81526020600482015260166024820152600080516020613f3e833981519152604482015260640161074d565b82600080828152600960208190526040909120015460ff166002811115610d3e57610d3e613888565b14610d7f5760405162461bcd60e51b8152602060048201526011602482015270139bdd0818481858dd1a5d994810985b9d607a1b604482015260640161074d565b60008481526011602090815260409182902080548351818402810184019094528084529091830182828015610dd357602002820191906000526020600020905b815481526020019060010190808311610dbf575b505050505092505050919050565b600054600160a01b900460ff1615610e345760405162461bcd60e51b81526020600482015260166024820152754461707020686173206265656e2073746f707065642160501b604482015260640161074d565b3360008181526006602052604081206008015460ff166002811115610e5b57610e5b613888565b14610e965760405162461bcd60e51b81526020600482015260166024820152600080516020613f3e833981519152604482015260640161074d565b82600080828152600960208190526040909120015460ff166002811115610ebf57610ebf613888565b14610f005760405162461bcd60e51b8152602060048201526011602482015270139bdd0818481858dd1a5d994810985b9d607a1b604482015260640161074d565b600354610f0e90600161366c565b60038190556040805160e081018252828152336020820152908101869052606081018590526000608082018190524260a083015260c08201526000828152600f602090815260409182902083518155838201516001820180546001600160a01b0319166001600160a01b0390921691909117905591830151600283015560608301518051610fa292600385019201906136d2565b506080820151600482015560a0820151600582015560c082015160068201805460ff19166001836002811115610fda57610fda613888565b02179055505033600090815260106020908152604080832060038054825460018181018555938752858720015599845260118352908320985489549182018a55988352912001959095555050505050565b6001600160a01b0381166000908152600660208190526040822080546003820180546060948594859485948594919390926004810192600582019282019160070190859061107890613d9c565b80601f01602080910402602001604051908101604052809291908181526020018280546110a490613d9c565b80156110f15780601f106110c6576101008083540402835291602001916110f1565b820191906000526020600020905b8154815290600101906020018083116110d457829003601f168201915b5050505050945083805461110490613d9c565b80601f016020809104026020016040519081016040528092919081815260200182805461113090613d9c565b801561117d5780601f106111525761010080835404028352916020019161117d565b820191906000526020600020905b81548152906001019060200180831161116057829003601f168201915b5050505050935082805461119090613d9c565b80601f01602080910402602001604051908101604052809291908181526020018280546111bc90613d9c565b80156112095780601f106111de57610100808354040283529160200191611209565b820191906000526020600020905b8154815290600101906020018083116111ec57829003601f168201915b5050505050925081805461121c90613d9c565b80601f016020809104026020016040519081016040528092919081815260200182805461124890613d9c565b80156112955780601f1061126a57610100808354040283529160200191611295565b820191906000526020600020905b81548152906001019060200180831161127857829003601f168201915b505050505091508080546112a890613d9c565b80601f01602080910402602001604051908101604052809291908181526020018280546112d490613d9c565b80156113215780601f106112f657610100808354040283529160200191611321565b820191906000526020600020905b81548152906001019060200180831161130457829003601f168201915b5050505050905095509550955095509550955091939550919395565b33600081815260066020526040812060080154606092919060ff16600281111561136957611369613888565b146113a45760405162461bcd60e51b81526020600482015260166024820152600080516020613f3e833981519152604482015260640161074d565b336000908152601060209081526040918290208054835181840281018401909452808452909183018282801561096b576020028201919060005260206000209081548152602001906001019080831161095757505050505091505090565b60008111801561141457506001548111155b61141d57600080fd5b60008181526009602090815260408083208151610140810183528154815260018201546001600160a01b031693810193909352600281018054919284019161146490613d9c565b80601f016020809104026020016040519081016040528092919081815260200182805461149090613d9c565b80156114dd5780601f106114b2576101008083540402835291602001916114dd565b820191906000526020600020905b8154815290600101906020018083116114c057829003601f168201915b505050505081526020016003820180546114f690613d9c565b80601f016020809104026020016040519081016040528092919081815260200182805461152290613d9c565b801561156f5780601f106115445761010080835404028352916020019161156f565b820191906000526020600020905b81548152906001019060200180831161155257829003601f168201915b5050505050815260200160048201805461158890613d9c565b80601f01602080910402602001604051908101604052809291908181526020018280546115b490613d9c565b80156116015780601f106115d657610100808354040283529160200191611601565b820191906000526020600020905b8154815290600101906020018083116115e457829003601f168201915b505050918352505060058201546020820152600682015460408201526007820154606082015260088201546080820152600982015460a09091019060ff16600281111561165057611650613888565b600281111561166157611661613888565b9052503360009081526006602090815260408083208151610120810183528154815260018201546001600160a01b031681850152600282018054845181870281018701865281815297985095969195929493860193919290918301828280156116f357602002820191906000526020600020905b81546001600160a01b031681526001909101906020018083116116d5575b5050505050815260200160038201805461170c90613d9c565b80601f016020809104026020016040519081016040528092919081815260200182805461173890613d9c565b80156117855780601f1061175a57610100808354040283529160200191611785565b820191906000526020600020905b81548152906001019060200180831161176857829003601f168201915b5050505050815260200160048201805461179e90613d9c565b80601f01602080910402602001604051908101604052809291908181526020018280546117ca90613d9c565b80156118175780601f106117ec57610100808354040283529160200191611817565b820191906000526020600020905b8154815290600101906020018083116117fa57829003601f168201915b5050505050815260200160058201805461183090613d9c565b80601f016020809104026020016040519081016040528092919081815260200182805461185c90613d9c565b80156118a95780601f1061187e576101008083540402835291602001916118a9565b820191906000526020600020905b81548152906001019060200180831161188c57829003601f168201915b505050505081526020016006820180546118c290613d9c565b80601f01602080910402602001604051908101604052809291908181526020018280546118ee90613d9c565b801561193b5780601f106119105761010080835404028352916020019161193b565b820191906000526020600020905b81548152906001019060200180831161191e57829003601f168201915b5050505050815260200160078201805461195490613d9c565b80601f016020809104026020016040519081016040528092919081815260200182805461198090613d9c565b80156119cd5780601f106119a2576101008083540402835291602001916119cd565b820191906000526020600020905b8154815290600101906020018083116119b057829003601f168201915b5050509183525050600882015460209091019060ff1660028111156119f4576119f4613888565b6002811115611a0557611a05613888565b9052506020830151604051919250906001600160a01b038216903480156108fc02916000818181858888f19350505050158015611a46573d6000803e3d6000fd5b5034836101000151611a589190613de7565b61010084015260008481526009602090815260409182902085518155818601516001820180546001600160a01b0319166001600160a01b03909216919091179055918501518051869392611ab39260028501929101906136d2565b5060608201518051611acf9160038401916020909101906136d2565b5060808201518051611aeb9160048401916020909101906136d2565b5060a0820151600582015560c0820151600682015560e08201516007820155610100820151600882015561012082015160098201805460ff19166001836002811115611b3957611b39613888565b02179055505083518351610100860151604080516001600160a01b0387168152602081019490945283019190915260608201527f87f33b8c6f7b23d3afb937ea5ec3f31873744d11bb1c0d14d40c3d50c7a1f664915060800160405180910390a150505050565b80600080828152600960208190526040909120015460ff166002811115611bc957611bc9613888565b14611c0a5760405162461bcd60e51b8152602060048201526011602482015270139bdd0818481858dd1a5d994810985b9d607a1b604482015260640161074d565b3360008181526006602052604081206008015460ff166002811115611c3157611c31613888565b14611c6c5760405162461bcd60e51b81526020600482015260166024820152600080516020613f3e833981519152604482015260640161074d565b600054600160a01b900460ff1615611cbf5760405162461bcd60e51b81526020600482015260166024820152754461707020686173206265656e2073746f707065642160501b604482015260640161074d565b60008381526009602052604090206001015483906001600160a01b03163314611d205760405162461bcd60e51b8152602060048201526013602482015272596f7520617265206e6f7420417574686f722160681b604482015260640161074d565b6000848152600960205260409081902090517ff670bcb2dec244bf58dbd1f509b67af3cdf1916d2067fcb71fcb935c0c3566d391611d6391879160020190613dff565b60405180910390a160008481526009602052604081208181556001810180546001600160a01b031916905590611d9c6002830182613752565b611daa600383016000613752565b611db8600483016000613752565b506000600582018190556006820181905560078201819055600882018190556009918201805460ff1990811690915586825260208390526040822090920180549092166002179091555b600085815260116020526040902054811015611e55576000858152601160205260409020805482908110611e3857611e38613eb0565b600091825260208220015580611e4d81613ec6565b915050611e02565b506000848152601160205260408120611e6d9161378f565b50505050565b6000600882604051611e859190613ee1565b9081526040519081900360200190205460ff161592915050565b600060608080838033816001600160a01b03821660009081526006602052604090206008015460ff166002811115611ed957611ed9613888565b14611f145760405162461bcd60e51b81526020600482015260166024820152600080516020613f3e833981519152604482015260640161074d565b87600080828152600960208190526040909120015460ff166002811115611f3d57611f3d613888565b14611f7e5760405162461bcd60e51b8152602060048201526011602482015270139bdd0818481858dd1a5d994810985b9d607a1b604482015260640161074d565b60008981526009602052604090206001810154600582015460068301546002840180546001600160a01b039094169490936003820193600490920192908590611fc690613d9c565b80601f0160208091040260200160405190810160405280929190818152602001828054611ff290613d9c565b801561203f5780601f106120145761010080835404028352916020019161203f565b820191906000526020600020905b81548152906001019060200180831161202257829003601f168201915b5050505050945083805461205290613d9c565b80601f016020809104026020016040519081016040528092919081815260200182805461207e90613d9c565b80156120cb5780601f106120a0576101008083540402835291602001916120cb565b820191906000526020600020905b8154815290600101906020018083116120ae57829003601f168201915b505050505093508280546120de90613d9c565b80601f016020809104026020016040519081016040528092919081815260200182805461210a90613d9c565b80156121575780601f1061212c57610100808354040283529160200191612157565b820191906000526020600020905b81548152906001019060200180831161213a57829003601f168201915b50505050509250975097509750975097509750505091939550919395565b600054600160a01b900460ff16156121c85760405162461bcd60e51b81526020600482015260166024820152754461707020686173206265656e2073746f707065642160501b604482015260640161074d565b3360008181526006602052604081206008015460ff1660028111156121ef576121ef613888565b1461222a5760405162461bcd60e51b81526020600482015260166024820152600080516020613f3e833981519152604482015260640161074d565b8160088160405161223b9190613ee1565b9081526040519081900360200190205460ff161561229b5760405162461bcd60e51b815260206004820152601660248201527f557365726e616d6520616c72656164792074616b656e00000000000000000000604482015260640161074d565b3360009081526006602090815260409091208451611e6d926003909201918601906136d2565b600054600160a01b900460ff16156123145760405162461bcd60e51b81526020600482015260166024820152754461707020686173206265656e2073746f707065642160501b604482015260640161074d565b80600080828152600f602052604090206006015460ff16600281111561233c5761233c613888565b146123895760405162461bcd60e51b815260206004820152601460248201527f4e6f7420612061637469766520636f6d6d656e74000000000000000000000000604482015260640161074d565b3360008181526006602052604081206008015460ff1660028111156123b0576123b0613888565b146123eb5760405162461bcd60e51b81526020600482015260166024820152600080516020613f3e833981519152604482015260640161074d565b6000838152600f602052604090206001015483906001600160a01b0316331461244c5760405162461bcd60e51b8152602060048201526013602482015272596f7520617265206e6f7420417574686f722160681b604482015260640161074d565b6000848152600f602052604081208181556001810180546001600160a01b031916905560028101829055906124846003830182613752565b50600060048201819055600582018190556006918201805460ff19908116909155958152600f60205260409020018054909416600217909355505050565b6000546001600160a01b031633146125115760405162461bcd60e51b8152602060048201526012602482015271596f7520617265206e6f74206f776e65722160701b604482015260640161074d565b600054600160a01b900460ff1661256a5760405162461bcd60e51b815260206004820152600f60248201527f416c726561647920737461727465640000000000000000000000000000000000604482015260640161074d565b6000805460ff60a01b19169055565b6000546001600160a01b031633146125c85760405162461bcd60e51b8152602060048201526012602482015271596f7520617265206e6f74206f776e65722160701b604482015260640161074d565b600080546001600160a01b0319166001600160a01b0392909216919091179055565b600054600160a01b900460ff161561263d5760405162461bcd60e51b81526020600482015260166024820152754461707020686173206265656e2073746f707065642160501b604482015260640161074d565b3360008181526006602052604081206008015460ff16600281111561266457612664613888565b146126b15760405162461bcd60e51b815260206004820152601760248201527f5573657220616c72656164792072656769737465726564000000000000000000604482015260640161074d565b856008816040516126c29190613ee1565b9081526040519081900360200190205460ff16156127225760405162461bcd60e51b815260206004820152601660248201527f557365726e616d6520616c72656164792074616b656e00000000000000000000604482015260640161074d565b60016008886040516127349190613ee1565b908152604051908190036020019020805491151560ff1990921691909117905560045461276290600161366c565b6004819055604080516101208101825282815233602082015260609181018290528082018a90526080810189905260a0810188905260c0810187905260e081018690526101008101600090523360009081526006602090815260409182902083518155838201516001820180546001600160a01b0319166001600160a01b0390921691909117905591830151805161280092600285019201906137ad565b506060820151805161281c9160038401916020909101906136d2565b50608082015180516128389160048401916020909101906136d2565b5060a082015180516128549160058401916020909101906136d2565b5060c082015180516128709160068401916020909101906136d2565b5060e0820151805161288c9160078401916020909101906136d2565b5061010082015160088201805460ff191660018360028111156128b1576128b1613888565b02179055509050503360078a6040516128ca9190613ee1565b908152604080516020928190038301812080546001600160a01b0319166001600160a01b039590951694909417909355600454338452918301919091527fabc58c36475157c4ac7669f9adfbb6f254d3a3578fb89676f6866ac3b9950eed910160405180910390a1505050505050505050565b600054600160a01b900460ff16156129905760405162461bcd60e51b81526020600482015260166024820152754461707020686173206265656e2073746f707065642160501b604482015260640161074d565b3360008181526006602052604081206008015460ff1660028111156129b7576129b7613888565b146129f25760405162461bcd60e51b81526020600482015260166024820152600080516020613f3e833981519152604482015260640161074d565b82600080828152600f602052604090206006015460ff166002811115612a1a57612a1a613888565b14612a675760405162461bcd60e51b815260206004820152601460248201527f4e6f7420612061637469766520636f6d6d656e74000000000000000000000000604482015260640161074d565b6000848152600f602052604090206001015484906001600160a01b03163314612ac85760405162461bcd60e51b8152602060048201526013602482015272596f7520617265206e6f7420417574686f722160681b604482015260640161074d565b6000858152600f602090815260409091208551612aed926003909201918701906136d2565b505050505050565b60008054600160a01b900460ff1615612b495760405162461bcd60e51b81526020600482015260166024820152754461707020686173206265656e2073746f707065642160501b604482015260640161074d565b3360008181526006602052604081206008015460ff166002811115612b7057612b70613888565b14612bab5760405162461bcd60e51b81526020600482015260166024820152600080516020613f3e833981519152604482015260640161074d565b60008481526009602090815260408083208151610140810183528154815260018201546001600160a01b0316938101939093526002810180549192840191612bf290613d9c565b80601f0160208091040260200160405190810160405280929190818152602001828054612c1e90613d9c565b8015612c6b5780601f10612c4057610100808354040283529160200191612c6b565b820191906000526020600020905b815481529060010190602001808311612c4e57829003601f168201915b50505050508152602001600382018054612c8490613d9c565b80601f0160208091040260200160405190810160405280929190818152602001828054612cb090613d9c565b8015612cfd5780601f10612cd257610100808354040283529160200191612cfd565b820191906000526020600020905b815481529060010190602001808311612ce057829003601f168201915b50505050508152602001600482018054612d1690613d9c565b80601f0160208091040260200160405190810160405280929190818152602001828054612d4290613d9c565b8015612d8f5780601f10612d6457610100808354040283529160200191612d8f565b820191906000526020600020905b815481529060010190602001808311612d7257829003601f168201915b505050918352505060058201546020820152600682015460408201526007820154606082015260088201546080820152600982015460a09091019060ff166002811115612dde57612dde613888565b6002811115612def57612def613888565b9052506000858152600c6020908152604090912090820151919250906001600160a01b0316612e1d57600080fd5b60018101546000908152600d602052604090205460ff1615612e9f57600381018054906000612e4b83613ec6565b9091555050336000908152600b602090815260408220805460018181018355918452919092208354600490920201908155818301549181019190915560028083015490820155600380830154910155612f17565b600554612ead90600161366c565b6005819055336000908152600b60209081526040808320815160808101835287518152808401958652429281019283526001606082018181528354808301855593875294909520905160049092020190815593519284019290925590516002830155516003909101555b81516040805188815260208101929092523382820152517fab81b9ce2ed04b74dc52357e6997b479a6cea1f632b03a6f3644b5533133c07c9181900360600190a15051949350505050565b6000546001600160a01b03163314612fb15760405162461bcd60e51b8152602060048201526012602482015271596f7520617265206e6f74206f776e65722160701b604482015260640161074d565b478111156130265760405162461bcd60e51b8152602060048201526024808201527f576974686472617720616d6f756e742067726561746572207468616e2062616c60448201527f616e636500000000000000000000000000000000000000000000000000000000606482015260840161074d565b604051339082156108fc029083906000818181858888f19350505050158015613053573d6000803e3d6000fd5b5050565b3360008181526006602052604081206008015460ff16600281111561307e5761307e613888565b146130b95760405162461bcd60e51b81526020600482015260166024820152600080516020613f3e833981519152604482015260640161074d565b81600080828152600960208190526040909120015460ff1660028111156130e2576130e2613888565b146131235760405162461bcd60e51b8152602060048201526011602482015270139bdd0818481858dd1a5d994810985b9d607a1b604482015260640161074d565b6000838152600e6020908152604080832033845290915290205460ff161561314a57600080fd5b60008381526009602052604090206006015461316790600161366c565b600093845260096020908152604080862060060192909255600e81528185203386529052909220805460ff191660011790555050565b600054600160a01b900460ff16156131f05760405162461bcd60e51b81526020600482015260166024820152754461707020686173206265656e2073746f707065642160501b604482015260640161074d565b83600080828152600960208190526040909120015460ff16600281111561321957613219613888565b1461325a5760405162461bcd60e51b8152602060048201526011602482015270139bdd0818481858dd1a5d994810985b9d607a1b604482015260640161074d565b3360008181526006602052604081206008015460ff16600281111561328157613281613888565b146132bc5760405162461bcd60e51b81526020600482015260166024820152600080516020613f3e833981519152604482015260640161074d565b60008681526009602052604090206001015486906001600160a01b0316331461331d5760405162461bcd60e51b8152602060048201526013602482015272596f7520617265206e6f7420417574686f722160681b604482015260640161074d565b60008781526009602090815260409091208751613342926002909201918901906136d2565b5060008781526009602090815260409091208651613368926003909201918801906136d2565b506000878152600960209081526040909120855161338e926004909201918701906136d2565b506040518781527f0561a8b8edddeeab34482799ca642511309607378eb55cdba66deb06f06b507f9060200160405180910390a150505050505050565b600054600160a01b900460ff161561341e5760405162461bcd60e51b81526020600482015260166024820152754461707020686173206265656e2073746f707065642160501b604482015260640161074d565b3360008181526006602052604081206008015460ff16600281111561344557613445613888565b146134805760405162461bcd60e51b81526020600482015260166024820152600080516020613f3e833981519152604482015260640161074d565b60025461348e90600161366c565b6002819055835161349e57600080fd5b600180549060006134ae83613ec6565b9190505550604051806101400160405280828152602001336001600160a01b031681526020018681526020018581526020018481526020014281526020016000815260200160008152602001600081526020016000600281111561351457613514613888565b905260008281526009602090815260409182902083518155838201516001820180546001600160a01b0319166001600160a01b0390921691909117905591830151805161356792600285019201906136d2565b50606082015180516135839160038401916020909101906136d2565b506080820151805161359f9160048401916020909101906136d2565b5060a0820151600582015560c0820151600682015560e08201516007820155610100820151600882015561012082015160098201805460ff191660018360028111156135ed576135ed613888565b021790555050336000818152600a6020908152604080832060028054825460018101845592865284862090920191909155848452600690925280832054915490517fb1091a9f12f52e907000cb53318811bfa085f61b7649ec6645fa85b611eb8395955061365d94938b91613efd565b60405180910390a15050505050565b6000806136798385613de7565b9050838110156136cb5760405162461bcd60e51b815260206004820152601b60248201527f536166654d6174683a206164646974696f6e206f766572666c6f770000000000604482015260640161074d565b9392505050565b8280546136de90613d9c565b90600052602060002090601f0160209004810192826137005760008555613746565b82601f1061371957805160ff1916838001178555613746565b82800160010185558215613746579182015b8281111561374657825182559160200191906001019061372b565b50610973929150613802565b50805461375e90613d9c565b6000825580601f1061376e575050565b601f01602090049060005260206000209081019061378c9190613802565b50565b508054600082559060005260206000209081019061378c9190613802565b828054828255906000526020600020908101928215613746579160200282015b8281111561374657825182546001600160a01b0319166001600160a01b039091161782556020909201916001909101906137cd565b5b808211156109735760008155600101613803565b60006020828403121561382957600080fd5b5035919050565b60005b8381101561384b578181015183820152602001613833565b83811115611e6d5750506000910152565b60008151808452613874816020860160208601613830565b601f01601f19169290920160200192915050565b634e487b7160e01b600052602160045260246000fd5b6003811061378c57634e487b7160e01b600052602160045260246000fd5b6001600160a01b038716815285602082015260c0604082015260006138e460c083018761385c565b90508460608301528360808301526138fb8361389e565b8260a0830152979650505050505050565b6020808252825182820181905260009190848201906040850190845b8181101561394457835183529284019291840191600101613928565b50909695505050505050565b6001600160a01b038116811461378c57600080fd5b60006020828403121561397757600080fd5b81356136cb81613950565b6020810161398f8361389e565b91905290565b634e487b7160e01b600052604160045260246000fd5b600082601f8301126139bc57600080fd5b813567ffffffffffffffff808211156139d7576139d7613995565b604051601f8301601f19908116603f011681019082821181831017156139ff576139ff613995565b81604052838152866020858801011115613a1857600080fd5b836020870160208301376000602085830101528094505050505092915050565b60008060408385031215613a4b57600080fd5b82359150602083013567ffffffffffffffff811115613a6957600080fd5b613a75858286016139ab565b9150509250929050565b86815260c060208201526000613a9860c083018861385c565b8281036040840152613aaa818861385c565b90508281036060840152613abe818761385c565b90508281036080840152613ad2818661385c565b905082810360a0840152613ae6818561385c565b9998505050505050505050565b600060208284031215613b0557600080fd5b813567ffffffffffffffff811115613b1c57600080fd5b613b28848285016139ab565b949350505050565b6001600160a01b038716815260c060208201526000613b5260c083018861385c565b8281036040840152613b64818861385c565b90508281036060840152613b78818761385c565b6080840195909552505060a00152949350505050565b600080600080600060a08688031215613ba657600080fd5b853567ffffffffffffffff80821115613bbe57600080fd5b613bca89838a016139ab565b96506020880135915080821115613be057600080fd5b613bec89838a016139ab565b95506040880135915080821115613c0257600080fd5b613c0e89838a016139ab565b94506060880135915080821115613c2457600080fd5b613c3089838a016139ab565b93506080880135915080821115613c4657600080fd5b50613c53888289016139ab565b9150509295509295909350565b60008060408385031215613c7357600080fd5b50508035926020909101359150565b60008060008060808587031215613c9857600080fd5b84359350602085013567ffffffffffffffff80821115613cb757600080fd5b613cc3888389016139ab565b94506040870135915080821115613cd957600080fd5b613ce5888389016139ab565b93506060870135915080821115613cfb57600080fd5b50613d08878288016139ab565b91505092959194509250565b600080600060608486031215613d2957600080fd5b833567ffffffffffffffff80821115613d4157600080fd5b613d4d878388016139ab565b94506020860135915080821115613d6357600080fd5b613d6f878388016139ab565b93506040860135915080821115613d8557600080fd5b50613d92868287016139ab565b9150509250925092565b600181811c90821680613db057607f821691505b60208210811415610b1a57634e487b7160e01b600052602260045260246000fd5b634e487b7160e01b600052601160045260246000fd5b60008219821115613dfa57613dfa613dd1565b500190565b828152600060206040818401526000845481600182811c915080831680613e2757607f831692505b858310811415613e4557634e487b7160e01b85526022600452602485fd5b6040880183905260608801818015613e645760018114613e7557613ea0565b60ff19861682528782019650613ea0565b60008b81526020902060005b86811015613e9a57815484820152908501908901613e81565b83019750505b50949a9950505050505050505050565b634e487b7160e01b600052603260045260246000fd5b6000600019821415613eda57613eda613dd1565b5060010190565b60008251613ef3818460208701613830565b9190910192915050565b6001600160a01b038616815284602082015283604082015260a060608201526000613f2b60a083018561385c565b9050826080830152969550505050505056fe4e6f742061205265676973746572656420557365722100000000000000000000a26469706673582212207e0d69d312be80f0259edf6dda13aa6237d9b31fe3f70e0fd682d2331163dc1a64736f6c63430008080033",
  "linkReferences": {},
  "deployedLinkReferences": {}
}