{
  "_format": "hh-sol-artifact-1",
  "contractName": "Dbanta",
  "sourceName": "contracts/dbanta.sol",
  "abi": [
    {
      "inputs": [
        {
          "internalType": "address",
          "name": "_nft",
          "type": "address"
        }
      ],
      "stateMutability": "nonpayable",
      "type": "constructor"
    },
    {
      "anonymous": false,
      "inputs": [
        {
          "indexed": false,
          "internalType": "uint256",
          "name": "bantId",
          "type": "uint256"
        },
        {
          "indexed": false,
          "internalType": "address",
          "name": "user",
          "type": "address"
        }
      ],
      "name": "BantLiked",
      "type": "event"
    },
    {
      "anonymous": false,
      "inputs": [
        {
          "indexed": false,
          "internalType": "uint256",
          "name": "bantId",
          "type": "uint256"
        },
        {
          "indexed": false,
          "internalType": "address",
          "name": "user",
          "type": "address"
        }
      ],
      "name": "BantMinted",
      "type": "event"
    },
    {
      "anonymous": false,
      "inputs": [
        {
          "indexed": false,
          "internalType": "uint256",
          "name": "bantId",
          "type": "uint256"
        },
        {
          "indexed": false,
          "internalType": "address",
          "name": "user",
          "type": "address"
        }
      ],
      "name": "BantUnliked",
      "type": "event"
    },
    {
      "anonymous": false,
      "inputs": [
        {
          "indexed": false,
          "internalType": "address payable",
          "name": "author",
          "type": "address"
        },
        {
          "indexed": false,
          "internalType": "uint256",
          "name": "userid",
          "type": "uint256"
        },
        {
          "indexed": false,
          "internalType": "uint256",
          "name": "bantid",
          "type": "uint256"
        },
        {
          "indexed": false,
          "internalType": "uint256",
          "name": "tipVote",
          "type": "uint256"
        }
      ],
      "name": "bantVoted",
      "type": "event"
    },
    {
      "anonymous": false,
      "inputs": [
        {
          "indexed": false,
          "internalType": "address payable",
          "name": "author",
          "type": "address"
        },
        {
          "indexed": false,
          "internalType": "uint256",
          "name": "userid",
          "type": "uint256"
        },
        {
          "indexed": false,
          "internalType": "uint256",
          "name": "bantid",
          "type": "uint256"
        },
        {
          "indexed": false,
          "internalType": "string",
          "name": "hashtag",
          "type": "string"
        },
        {
          "indexed": false,
          "internalType": "uint256",
          "name": "tipVote",
          "type": "uint256"
        }
      ],
      "name": "logBantCreated",
      "type": "event"
    },
    {
      "anonymous": false,
      "inputs": [
        {
          "indexed": false,
          "internalType": "uint256",
          "name": "id",
          "type": "uint256"
        },
        {
          "indexed": false,
          "internalType": "string",
          "name": "hashtag",
          "type": "string"
        }
      ],
      "name": "logBantDeleted",
      "type": "event"
    },
    {
      "anonymous": false,
      "inputs": [
        {
          "indexed": false,
          "internalType": "uint256",
          "name": "id",
          "type": "uint256"
        }
      ],
      "name": "logBantEdited",
      "type": "event"
    },
    {
      "anonymous": false,
      "inputs": [
        {
          "indexed": false,
          "internalType": "uint256",
          "name": "rebantid",
          "type": "uint256"
        },
        {
          "indexed": false,
          "internalType": "uint256",
          "name": "bantid",
          "type": "uint256"
        },
        {
          "indexed": false,
          "internalType": "address",
          "name": "user",
          "type": "address"
        }
      ],
      "name": "logRebantCreated",
      "type": "event"
    },
    {
      "anonymous": false,
      "inputs": [
        {
          "indexed": false,
          "internalType": "address",
          "name": "user",
          "type": "address"
        },
        {
          "indexed": false,
          "internalType": "uint256",
          "name": "id",
          "type": "uint256"
        }
      ],
      "name": "logRegisterUser",
      "type": "event"
    },
    {
      "anonymous": false,
      "inputs": [
        {
          "indexed": false,
          "internalType": "address",
          "name": "user",
          "type": "address"
        },
        {
          "indexed": false,
          "internalType": "uint256",
          "name": "id",
          "type": "uint256"
        }
      ],
      "name": "logUserBanned",
      "type": "event"
    },
    {
      "anonymous": false,
      "inputs": [
        {
          "indexed": false,
          "internalType": "address",
          "name": "user",
          "type": "address"
        },
        {
          "indexed": false,
          "internalType": "address",
          "name": "follower",
          "type": "address"
        }
      ],
      "name": "newfollowers",
      "type": "event"
    },
    {
      "stateMutability": "nonpayable",
      "type": "fallback"
    },
    {
      "inputs": [],
      "name": "bantCount",
      "outputs": [
        {
          "internalType": "uint256",
          "name": "",
          "type": "uint256"
        }
      ],
      "stateMutability": "view",
      "type": "function"
    },
    {
      "inputs": [
        {
          "internalType": "uint256",
          "name": "_id",
          "type": "uint256"
        }
      ],
      "name": "bantLikes",
      "outputs": [
        {
          "internalType": "uint256",
          "name": "",
          "type": "uint256"
        }
      ],
      "stateMutability": "view",
      "type": "function"
    },
    {
      "inputs": [
        {
          "internalType": "address payable",
          "name": "_newOwner",
          "type": "address"
        }
      ],
      "name": "changeOwner",
      "outputs": [],
      "stateMutability": "nonpayable",
      "type": "function"
    },
    {
      "inputs": [
        {
          "internalType": "string",
          "name": "_username",
          "type": "string"
        }
      ],
      "name": "changeUsername",
      "outputs": [],
      "stateMutability": "nonpayable",
      "type": "function"
    },
    {
      "inputs": [
        {
          "internalType": "string",
          "name": "_hashtag",
          "type": "string"
        },
        {
          "internalType": "string",
          "name": "_content",
          "type": "string"
        },
        {
          "internalType": "string",
          "name": "_imghash",
          "type": "string"
        }
      ],
      "name": "createBant",
      "outputs": [],
      "stateMutability": "nonpayable",
      "type": "function"
    },
    {
      "inputs": [
        {
          "internalType": "uint256",
          "name": "_bantid",
          "type": "uint256"
        },
        {
          "internalType": "string",
          "name": "_comment",
          "type": "string"
        }
      ],
      "name": "createComment",
      "outputs": [],
      "stateMutability": "nonpayable",
      "type": "function"
    },
    {
      "inputs": [
        {
          "internalType": "uint256",
          "name": "_id",
          "type": "uint256"
        }
      ],
      "name": "deleteBant",
      "outputs": [],
      "stateMutability": "nonpayable",
      "type": "function"
    },
    {
      "inputs": [
        {
          "internalType": "uint256",
          "name": "_id",
          "type": "uint256"
        }
      ],
      "name": "deleteComment",
      "outputs": [],
      "stateMutability": "nonpayable",
      "type": "function"
    },
    {
      "inputs": [
        {
          "internalType": "uint256",
          "name": "_id",
          "type": "uint256"
        },
        {
          "internalType": "string",
          "name": "_hashtag",
          "type": "string"
        },
        {
          "internalType": "string",
          "name": "_content",
          "type": "string"
        },
        {
          "internalType": "string",
          "name": "_imghash",
          "type": "string"
        }
      ],
      "name": "editBant",
      "outputs": [],
      "stateMutability": "nonpayable",
      "type": "function"
    },
    {
      "inputs": [
        {
          "internalType": "uint256",
          "name": "_commentid",
          "type": "uint256"
        },
        {
          "internalType": "string",
          "name": "_comment",
          "type": "string"
        }
      ],
      "name": "editComment",
      "outputs": [],
      "stateMutability": "nonpayable",
      "type": "function"
    },
    {
      "inputs": [
        {
          "internalType": "address",
          "name": "_person",
          "type": "address"
        }
      ],
      "name": "followusers",
      "outputs": [],
      "stateMutability": "nonpayable",
      "type": "function"
    },
    {
      "inputs": [],
      "name": "getBalance",
      "outputs": [
        {
          "internalType": "uint256",
          "name": "balance",
          "type": "uint256"
        }
      ],
      "stateMutability": "view",
      "type": "function"
    },
    {
      "inputs": [
        {
          "internalType": "uint256",
          "name": "_id",
          "type": "uint256"
        }
      ],
      "name": "getBant",
      "outputs": [
        {
          "internalType": "address",
          "name": "author",
          "type": "address"
        },
        {
          "internalType": "string",
          "name": "hashtag",
          "type": "string"
        },
        {
          "internalType": "string",
          "name": "content",
          "type": "string"
        },
        {
          "internalType": "string",
          "name": "imgHash",
          "type": "string"
        },
        {
          "internalType": "uint256",
          "name": "timestamp",
          "type": "uint256"
        },
        {
          "internalType": "uint256",
          "name": "likeCount",
          "type": "uint256"
        }
      ],
      "stateMutability": "view",
      "type": "function"
    },
    {
      "inputs": [
        {
          "internalType": "uint256",
          "name": "_id",
          "type": "uint256"
        }
      ],
      "name": "getBantComments",
      "outputs": [
        {
          "internalType": "uint256[]",
          "name": "list",
          "type": "uint256[]"
        }
      ],
      "stateMutability": "view",
      "type": "function"
    },
    {
      "inputs": [
        {
          "internalType": "uint256",
          "name": "_id",
          "type": "uint256"
        }
      ],
      "name": "getComment",
      "outputs": [
        {
          "internalType": "address",
          "name": "author",
          "type": "address"
        },
        {
          "internalType": "uint256",
          "name": "bantId",
          "type": "uint256"
        },
        {
          "internalType": "string",
          "name": "content",
          "type": "string"
        },
        {
          "internalType": "uint256",
          "name": "likeCount",
          "type": "uint256"
        },
        {
          "internalType": "uint256",
          "name": "timestamp",
          "type": "uint256"
        },
        {
          "internalType": "enum Dbanta.cdStatus",
          "name": "status",
          "type": "uint8"
        }
      ],
      "stateMutability": "view",
      "type": "function"
    },
    {
      "inputs": [],
      "name": "getTotalUserBants",
      "outputs": [
        {
          "internalType": "uint256",
          "name": "",
          "type": "uint256"
        }
      ],
      "stateMutability": "view",
      "type": "function"
    },
    {
      "inputs": [
        {
          "internalType": "address",
          "name": "_user",
          "type": "address"
        }
      ],
      "name": "getUser",
      "outputs": [
        {
          "internalType": "uint256",
          "name": "id",
          "type": "uint256"
        },
        {
          "internalType": "string",
          "name": "username",
          "type": "string"
        },
        {
          "internalType": "string",
          "name": "name",
          "type": "string"
        },
        {
          "internalType": "string",
          "name": "imghash",
          "type": "string"
        },
        {
          "internalType": "string",
          "name": "coverhash",
          "type": "string"
        },
        {
          "internalType": "string",
          "name": "bio",
          "type": "string"
        }
      ],
      "stateMutability": "view",
      "type": "function"
    },
    {
      "inputs": [
        {
          "internalType": "address",
          "name": "_user",
          "type": "address"
        }
      ],
      "name": "getUserBants",
      "outputs": [
        {
          "internalType": "uint256[]",
          "name": "bantList",
          "type": "uint256[]"
        }
      ],
      "stateMutability": "view",
      "type": "function"
    },
    {
      "inputs": [
        {
          "internalType": "address",
          "name": "_user",
          "type": "address"
        }
      ],
      "name": "getUserComments",
      "outputs": [
        {
          "internalType": "uint256[]",
          "name": "commentList",
          "type": "uint256[]"
        }
      ],
      "stateMutability": "view",
      "type": "function"
    },
    {
      "inputs": [],
      "name": "getUserComments",
      "outputs": [
        {
          "internalType": "uint256[]",
          "name": "commentList",
          "type": "uint256[]"
        }
      ],
      "stateMutability": "view",
      "type": "function"
    },
    {
      "inputs": [
        {
          "internalType": "uint256",
          "name": "_id",
          "type": "uint256"
        }
      ],
      "name": "likeBant",
      "outputs": [],
      "stateMutability": "nonpayable",
      "type": "function"
    },
    {
      "inputs": [
        {
          "internalType": "uint256",
          "name": "_id",
          "type": "uint256"
        }
      ],
      "name": "mintBant",
      "outputs": [],
      "stateMutability": "nonpayable",
      "type": "function"
    },
    {
      "inputs": [],
      "name": "nft",
      "outputs": [
        {
          "internalType": "contract IDbantaNFT",
          "name": "",
          "type": "address"
        }
      ],
      "stateMutability": "view",
      "type": "function"
    },
    {
      "inputs": [],
      "name": "owner",
      "outputs": [
        {
          "internalType": "address",
          "name": "",
          "type": "address"
        }
      ],
      "stateMutability": "view",
      "type": "function"
    },
    {
      "inputs": [
        {
          "internalType": "uint256",
          "name": "_id",
          "type": "uint256"
        }
      ],
      "name": "rebantusersbant",
      "outputs": [
        {
          "internalType": "uint256",
          "name": "",
          "type": "uint256"
        }
      ],
      "stateMutability": "nonpayable",
      "type": "function"
    },
    {
      "inputs": [
        {
          "internalType": "string",
          "name": "_username",
          "type": "string"
        },
        {
          "internalType": "string",
          "name": "_name",
          "type": "string"
        },
        {
          "internalType": "string",
          "name": "_imgHash",
          "type": "string"
        },
        {
          "internalType": "string",
          "name": "_coverHash",
          "type": "string"
        },
        {
          "internalType": "string",
          "name": "_bio",
          "type": "string"
        }
      ],
      "name": "registerUser",
      "outputs": [],
      "stateMutability": "nonpayable",
      "type": "function"
    },
    {
      "inputs": [],
      "name": "startDapp",
      "outputs": [],
      "stateMutability": "nonpayable",
      "type": "function"
    },
    {
      "inputs": [],
      "name": "stopDapp",
      "outputs": [],
      "stateMutability": "nonpayable",
      "type": "function"
    },
    {
      "inputs": [],
      "name": "stopped",
      "outputs": [
        {
          "internalType": "bool",
          "name": "",
          "type": "bool"
        }
      ],
      "stateMutability": "view",
      "type": "function"
    },
    {
      "inputs": [
        {
          "internalType": "uint256",
          "name": "_id",
          "type": "uint256"
        }
      ],
      "name": "tipPost",
      "outputs": [],
      "stateMutability": "payable",
      "type": "function"
    },
    {
      "inputs": [],
      "name": "totalBants",
      "outputs": [
        {
          "internalType": "uint256",
          "name": "",
          "type": "uint256"
        }
      ],
      "stateMutability": "view",
      "type": "function"
    },
    {
      "inputs": [],
      "name": "totalComments",
      "outputs": [
        {
          "internalType": "uint256",
          "name": "",
          "type": "uint256"
        }
      ],
      "stateMutability": "view",
      "type": "function"
    },
    {
      "inputs": [],
      "name": "totalRebants",
      "outputs": [
        {
          "internalType": "uint256",
          "name": "",
          "type": "uint256"
        }
      ],
      "stateMutability": "view",
      "type": "function"
    },
    {
      "inputs": [],
      "name": "totalUsers",
      "outputs": [
        {
          "internalType": "uint256",
          "name": "",
          "type": "uint256"
        }
      ],
      "stateMutability": "view",
      "type": "function"
    },
    {
      "inputs": [
        {
          "internalType": "uint256",
          "name": "_amount",
          "type": "uint256"
        }
      ],
      "name": "transferContractBalance",
      "outputs": [],
      "stateMutability": "nonpayable",
      "type": "function"
    },
    {
      "inputs": [
        {
          "internalType": "uint256",
          "name": "_id",
          "type": "uint256"
        }
      ],
      "name": "unlikeBant",
      "outputs": [],
      "stateMutability": "nonpayable",
      "type": "function"
    },
    {
      "inputs": [
        {
          "internalType": "uint256",
          "name": "_id",
          "type": "uint256"
        },
        {
          "internalType": "address",
          "name": "_user",
          "type": "address"
        }
      ],
      "name": "userLikesBant",
      "outputs": [
        {
          "internalType": "bool",
          "name": "",
          "type": "bool"
        }
      ],
      "stateMutability": "view",
      "type": "function"
    },
    {
      "inputs": [
        {
          "internalType": "address",
          "name": "_useraddr",
          "type": "address"
        }
      ],
      "name": "userStatus",
      "outputs": [
        {
          "internalType": "enum Dbanta.accountStatus",
          "name": "status",
          "type": "uint8"
        }
      ],
      "stateMutability": "view",
      "type": "function"
    },
    {
      "inputs": [
        {
          "internalType": "string",
          "name": "_username",
          "type": "string"
        }
      ],
      "name": "usernameAvailable",
      "outputs": [
        {
          "internalType": "bool",
          "name": "status",
          "type": "bool"
        }
      ],
      "stateMutability": "view",
      "type": "function"
    }
  ],
  "bytecode": "0x60806040526000805460ff60a01b1916815560018190556003819055600481905560058190556006553480156200003557600080fd5b50604051620048c5380380620048c58339810160408190526200005891620005e4565b60008054336001600160a01b0319918216178255600280549091166001600160a01b03841617905560408051808201825260058082526437bbb732b960d91b6020808401829052845180860186528381528082018390528551808301875287815286518084018852978852865180880190975293865290850191909152620000e5949293909290620000ec565b50620006c7565b600054600160a01b900460ff16156200014c5760405162461bcd60e51b815260206004820152601660248201527f4461707020686173206265656e2073746f70706564210000000000000000000060448201526064015b60405180910390fd5b3360008181526007602052604081206008015460ff1660028111156200017657620001766200060f565b14620001c55760405162461bcd60e51b815260206004820152601760248201527f5573657220616c72656164792072656769737465726564000000000000000000604482015260640162000143565b85600981604051620001d8919062000625565b9081526040519081900360200190205460ff16156200023a5760405162461bcd60e51b815260206004820152601660248201527f557365726e616d6520616c72656164792074616b656e00000000000000000000604482015260640162000143565b60016009886040516200024e919062000625565b908152602001604051809103902060006101000a81548160ff0219169083151502179055506200029060016005546200047c60201b620037f61790919060201c565b6005819055604080516101208101825282815233602082015260609181018290528082018a90526080810189905260a0810188905260c0810187905260e081018690526101008101600090523360009081526007602090815260409182902083518155838201516001820180546001600160a01b0319166001600160a01b03909216919091179055918301518051620003309260028501920190620004e6565b50606082015180516200034e91600384019160209091019062000550565b50608082015180516200036c91600484019160209091019062000550565b5060a082015180516200038a91600584019160209091019062000550565b5060c08201518051620003a891600684019160209091019062000550565b5060e08201518051620003c691600784019160209091019062000550565b5061010082015160088201805460ff19166001836002811115620003ee57620003ee6200060f565b02179055509050503360088a60405162000409919062000625565b908152604080516020928190038301812080546001600160a01b0319166001600160a01b039590951694909417909355600554338452918301919091527fabc58c36475157c4ac7669f9adfbb6f254d3a3578fb89676f6866ac3b9950eed910160405180910390a1505050505050505050565b6000806200048b838562000663565b905083811015620004df5760405162461bcd60e51b815260206004820152601b60248201527f536166654d6174683a206164646974696f6e206f766572666c6f770000000000604482015260640162000143565b9392505050565b8280548282559060005260206000209081019282156200053e579160200282015b828111156200053e57825182546001600160a01b0319166001600160a01b0390911617825560209092019160019091019062000507565b506200054c929150620005cd565b5090565b8280546200055e906200068a565b90600052602060002090601f0160209004810192826200058257600085556200053e565b82601f106200059d57805160ff19168380011785556200053e565b828001600101855582156200053e579182015b828111156200053e578251825591602001919060010190620005b0565b5b808211156200054c5760008155600101620005ce565b600060208284031215620005f757600080fd5b81516001600160a01b0381168114620004df57600080fd5b634e487b7160e01b600052602160045260246000fd5b6000825160005b818110156200064857602081860181015185830152016200062c565b8181111562000658576000828501525b509190910192915050565b600082198211156200068557634e487b7160e01b600052601160045260246000fd5b500190565b600181811c908216806200069f57607f821691505b60208210811415620006c157634e487b7160e01b600052602260045260246000fd5b50919050565b6141ee80620006d76000396000f3fe6080604052600436106102a05760003560e01c806374d3c1f81161016e57806399620348116100cb578063beee20dc1161007f578063c039b58411610064578063c039b584146107a9578063ef2f030d146107c9578063ff99fa1f146107e9576102a0565b8063beee20dc14610773578063bff1f9e114610793576102a0565b8063ac9f0a40116100b0578063ac9f0a401461071d578063ad8160291461073d578063b9394ad41461075d576102a0565b806399620348146106dd578063a6f9dae1146106fd576102a0565b806377c846af11610122578063818552d911610107578063818552d9146106785780638da5cb5b146106a857806395d2cc92146106c8576102a0565b806377c846af146106385780637d0b102614610658576102a0565b806374ebaadc1161015357806374ebaadc146105c557806375f12b21146105e5578063764a614a14610606576102a0565b806374d3c1f81461059257806374dfaa82146105a5576102a0565b806333aa01e91161021c57806354b1607a116101d057806361936b81116101b557806361936b81146105355780636f77926b1461054b578063719b741d1461057d576102a0565b806354b1607a146104bd57806360a4e42714610513576102a0565b806340a179851161020157806340a179851461044557806347ccca02146104655780635020ab8a1461049d576102a0565b806333aa01e91461041057806339629a3614610425576102a0565b8063223757cb116102735780632b27465b116102585780632b27465b146103ad5780632b3c6e22146103c3578063325d748e146103f0576102a0565b8063223757cb14610344578063225d29a114610364576102a0565b806305c703e6146102b257806307428a89146102d45780630800e300146102fd57806312065fe01461032f575b3480156102ac57600080fd5b50600080fd5b3480156102be57600080fd5b506102d26102cd366004613a18565b610809565b005b3480156102e057600080fd5b506102ea60065481565b6040519081526020015b60405180910390f35b34801561030957600080fd5b5061031d610318366004613a18565b6109c6565b6040516102f496959493929190613abd565b34801561033b57600080fd5b506102ea610b94565b34801561035057600080fd5b506102d261035f366004613b22565b610be9565b34801561037057600080fd5b506103a061037f366004613b22565b6001600160a01b031660009081526007602052604090206008015460ff1690565b6040516102f49190613b3f565b3480156103b957600080fd5b506102ea60035481565b3480156103cf57600080fd5b506103e36103de366004613b22565b610c6a565b6040516102f49190613b52565b3480156103fc57600080fd5b506103e361040b366004613b22565b610d3d565b34801561041c57600080fd5b506102d2610e0d565b34801561043157600080fd5b506103e3610440366004613a18565b610ecb565b34801561045157600080fd5b506102d2610460366004613c39565b610ffe565b34801561047157600080fd5b50600254610485906001600160a01b031681565b6040516001600160a01b0390911681526020016102f4565b3480156104a957600080fd5b506102ea6104b8366004613a18565b611248565b3480156104c957600080fd5b506105036104d8366004613c80565b6000918252600e602090815260408084206001600160a01b0393909316845291905290205460ff1690565b60405190151581526020016102f4565b34801561051f57600080fd5b50336000908152600b60205260409020546102ea565b34801561054157600080fd5b506102ea60045481565b34801561055757600080fd5b5061056b610566366004613b22565b611449565b6040516102f496959493929190613cb0565b34801561058957600080fd5b506103e361175b565b6102d26105a0366004613a18565b611823565b3480156105b157600080fd5b506102d26105c0366004613a18565b611fd6565b3480156105d157600080fd5b506105036105e0366004613d24565b6122b0565b3480156105f157600080fd5b5060005461050390600160a01b900460ff1681565b34801561061257600080fd5b50610626610621366004613a18565b6122dc565b6040516102f496959493929190613d61565b34801561064457600080fd5b506102d2610653366004613d24565b6125b2565b34801561066457600080fd5b506102d2610673366004613a18565b6126fe565b34801561068457600080fd5b506102ea610693366004613a18565b6000908152600a602052604090206006015490565b3480156106b457600080fd5b50600054610485906001600160a01b031681565b3480156106d457600080fd5b506102d26128ff565b3480156106e957600080fd5b506102d26106f8366004613a18565b6129b6565b34801561070957600080fd5b506102d2610718366004613b22565b612b2b565b34801561072957600080fd5b506102d2610738366004613dbf565b612b9c565b34801561074957600080fd5b506102d2610758366004613c39565b612eef565b34801561076957600080fd5b506102ea60015481565b34801561077f57600080fd5b506102d261078e366004613a18565b6130a7565b34801561079f57600080fd5b506102ea60055481565b3480156107b557600080fd5b506102d26107c4366004613a18565b61319c565b3480156107d557600080fd5b506102d26107e4366004613e91565b613315565b3480156107f557600080fd5b506102d2610804366004613f23565b613543565b6000818152600a602052604090206001015481906001600160a01b0316331461086f5760405162461bcd60e51b8152602060048201526013602482015272596f7520617265206e6f7420417574686f722160681b60448201526064015b60405180910390fd5b6000828152600a60205260408120600301805461088b90613fab565b80601f01602080910402602001604051908101604052809291908181526020018280546108b790613fab565b80156109045780601f106108d957610100808354040283529160200191610904565b820191906000526020600020905b8154815290600101906020018083116108e757829003601f168201915b50506002546040517fd204c45e0000000000000000000000000000000000000000000000000000000081529495506001600160a01b03169363d204c45e935061095592503391508590600401613fe0565b600060405180830381600087803b15801561096f57600080fd5b505af1158015610983573d6000803e3d6000fd5b5050604080518681523360208201527fc987a0b975ad7e2b67fca529121c6bf00cf38bc1e19a74287ecff6f2e194166093500190505b60405180910390a1505050565b600080606081808033816001600160a01b03821660009081526007602052604090206008015460ff166002811115610a0057610a00613a89565b14610a3b5760405162461bcd60e51b815260206004820152601660248201526000805160206141998339815191526044820152606401610866565b87600080828152600f602052604090206006015460ff166002811115610a6357610a63613a89565b14610ab05760405162461bcd60e51b815260206004820152601460248201527f4e6f7420612061637469766520636f6d6d656e740000000000000000000000006044820152606401610866565b6000898152600f6020526040902060018101546002820154600483015460058401546006850154600390950180546001600160a01b03909516959394909360ff16908490610afd90613fab565b80601f0160208091040260200160405190810160405280929190818152602001828054610b2990613fab565b8015610b765780601f10610b4b57610100808354040283529160200191610b76565b820191906000526020600020905b815481529060010190602001808311610b5957829003601f168201915b50505050509350975097509750975097509750505091939550919395565b600080546001600160a01b03163314610be45760405162461bcd60e51b8152602060048201526012602482015271596f7520617265206e6f74206f776e65722160701b6044820152606401610866565b504790565b6001600160a01b03811660008181526007602090815260408083206002810180546001810182559085529383902090930180546001600160a01b0319163390811790915581519485529184019190915290917fd9ac212dba415b860553899b53a3a0f59da2e3ff60d443bb4ae635f79c60b742910160405180910390a15050565b33600081815260076020526040812060080154606092919060ff166002811115610c9657610c96613a89565b14610cd15760405162461bcd60e51b815260206004820152601660248201526000805160206141998339815191526044820152606401610866565b6001600160a01b03831660009081526010602090815260409182902080548351818402810184019094528084529091830182828015610d2f57602002820191906000526020600020905b815481526020019060010190808311610d1b575b505050505091505b50919050565b33600081815260076020526040812060080154606092919060ff166002811115610d6957610d69613a89565b14610da45760405162461bcd60e51b815260206004820152601660248201526000805160206141998339815191526044820152606401610866565b6001600160a01b0383166000908152600b602090815260409182902080548351818402810184019094528084529091830182828015610d2f5760200282019190600052602060002090815481526020019060010190808311610d1b575050505050915050919050565b6000546001600160a01b03163314610e5c5760405162461bcd60e51b8152602060048201526012602482015271596f7520617265206e6f74206f776e65722160701b6044820152606401610866565b600054600160a01b900460ff1615610eb65760405162461bcd60e51b815260206004820152600f60248201527f416c72656164792073746f7070656400000000000000000000000000000000006044820152606401610866565b6000805460ff60a01b1916600160a01b179055565b33600081815260076020526040812060080154606092919060ff166002811115610ef757610ef7613a89565b14610f325760405162461bcd60e51b815260206004820152601660248201526000805160206141998339815191526044820152606401610866565b82600080828152600a60208190526040909120015460ff166002811115610f5b57610f5b613a89565b14610f9c5760405162461bcd60e51b8152602060048201526011602482015270139bdd0818481858dd1a5d994810985b9d607a1b6044820152606401610866565b60008481526011602090815260409182902080548351818402810184019094528084529091830182828015610ff057602002820191906000526020600020905b815481526020019060010190808311610fdc575b505050505092505050919050565b600054600160a01b900460ff16156110515760405162461bcd60e51b81526020600482015260166024820152754461707020686173206265656e2073746f707065642160501b6044820152606401610866565b3360008181526007602052604081206008015460ff16600281111561107857611078613a89565b146110b35760405162461bcd60e51b815260206004820152601660248201526000805160206141998339815191526044820152606401610866565b82600080828152600a60208190526040909120015460ff1660028111156110dc576110dc613a89565b1461111d5760405162461bcd60e51b8152602060048201526011602482015270139bdd0818481858dd1a5d994810985b9d607a1b6044820152606401610866565b60045461112b9060016137f6565b60048190556040805160e081018252828152336020820152908101869052606081018590526000608082018190524260a083015260c08201526000828152600f602090815260409182902083518155838201516001820180546001600160a01b0319166001600160a01b03909216919091179055918301516002830155606083015180516111bf92600385019201906138d3565b506080820151600482015560a0820151600582015560c082015160068201805460ff191660018360028111156111f7576111f7613a89565b02179055505033600090815260106020908152604080832060048054825460018181018555938752858720015599845260118352908320985489549182018a55988352912001959095555050505050565b60008054600160a01b900460ff161561129c5760405162461bcd60e51b81526020600482015260166024820152754461707020686173206265656e2073746f707065642160501b6044820152606401610866565b3360008181526007602052604081206008015460ff1660028111156112c3576112c3613a89565b146112fe5760405162461bcd60e51b815260206004820152601660248201526000805160206141998339815191526044820152606401610866565b6000838152600a6020526040902060018101546001600160a01b031661132357600080fd5b60078101805490600061133583614018565b90915550506006546113489060016137f6565b600681905560408051608081018252835481526020808201848152428385019081523360608086018281526000898152600d875288812088518155865160018083019190915586516002808401919091558451600393840180546001600160a01b03199081166001600160a01b0393841617909155888652600c8c528d862080548086018255908752958c90208d5160049097020195865599519285019290925596519683019690965591519101805490951693169290921790925586548551878152938401529382015290917fab81b9ce2ed04b74dc52357e6997b479a6cea1f632b03a6f3644b5533133c07c910160405180910390a150949350505050565b6001600160a01b0381166000908152600760208190526040822080546003820180546060948594859485948594919390926004810192600582019260068301920190859061149690613fab565b80601f01602080910402602001604051908101604052809291908181526020018280546114c290613fab565b801561150f5780601f106114e45761010080835404028352916020019161150f565b820191906000526020600020905b8154815290600101906020018083116114f257829003601f168201915b5050505050945083805461152290613fab565b80601f016020809104026020016040519081016040528092919081815260200182805461154e90613fab565b801561159b5780601f106115705761010080835404028352916020019161159b565b820191906000526020600020905b81548152906001019060200180831161157e57829003601f168201915b505050505093508280546115ae90613fab565b80601f01602080910402602001604051908101604052809291908181526020018280546115da90613fab565b80156116275780601f106115fc57610100808354040283529160200191611627565b820191906000526020600020905b81548152906001019060200180831161160a57829003601f168201915b5050505050925081805461163a90613fab565b80601f016020809104026020016040519081016040528092919081815260200182805461166690613fab565b80156116b35780601f10611688576101008083540402835291602001916116b3565b820191906000526020600020905b81548152906001019060200180831161169657829003601f168201915b505050505091508080546116c690613fab565b80601f01602080910402602001604051908101604052809291908181526020018280546116f290613fab565b801561173f5780601f106117145761010080835404028352916020019161173f565b820191906000526020600020905b81548152906001019060200180831161172257829003601f168201915b5050505050905095509550955095509550955091939550919395565b33600081815260076020526040812060080154606092919060ff16600281111561178757611787613a89565b146117c25760405162461bcd60e51b815260206004820152601660248201526000805160206141998339815191526044820152606401610866565b336000908152601060209081526040918290208054835181840281018401909452808452909183018282801561181757602002820191906000526020600020905b815481526020019060010190808311611803575b505050505091505b5090565b60008111801561183557506001548111155b61183e57600080fd5b6000818152600a602090815260408083208151610160810183528154815260018201546001600160a01b031693810193909352600281018054919284019161188590613fab565b80601f01602080910402602001604051908101604052809291908181526020018280546118b190613fab565b80156118fe5780601f106118d3576101008083540402835291602001916118fe565b820191906000526020600020905b8154815290600101906020018083116118e157829003601f168201915b5050505050815260200160038201805461191790613fab565b80601f016020809104026020016040519081016040528092919081815260200182805461194390613fab565b80156119905780601f1061196557610100808354040283529160200191611990565b820191906000526020600020905b81548152906001019060200180831161197357829003601f168201915b505050505081526020016004820180546119a990613fab565b80601f01602080910402602001604051908101604052809291908181526020018280546119d590613fab565b8015611a225780601f106119f757610100808354040283529160200191611a22565b820191906000526020600020905b815481529060010190602001808311611a0557829003601f168201915b505050918352505060058201546020820152600682015460408201526007820154606082015260088201546080820152600982015460a0820152600a82015460c09091019060ff166002811115611a7b57611a7b613a89565b6002811115611a8c57611a8c613a89565b9052503360009081526007602090815260408083208151610120810183528154815260018201546001600160a01b03168185015260028201805484518187028101870186528181529798509596919592949386019391929091830182828015611b1e57602002820191906000526020600020905b81546001600160a01b03168152600190910190602001808311611b00575b50505050508152602001600382018054611b3790613fab565b80601f0160208091040260200160405190810160405280929190818152602001828054611b6390613fab565b8015611bb05780601f10611b8557610100808354040283529160200191611bb0565b820191906000526020600020905b815481529060010190602001808311611b9357829003601f168201915b50505050508152602001600482018054611bc990613fab565b80601f0160208091040260200160405190810160405280929190818152602001828054611bf590613fab565b8015611c425780601f10611c1757610100808354040283529160200191611c42565b820191906000526020600020905b815481529060010190602001808311611c2557829003601f168201915b50505050508152602001600582018054611c5b90613fab565b80601f0160208091040260200160405190810160405280929190818152602001828054611c8790613fab565b8015611cd45780601f10611ca957610100808354040283529160200191611cd4565b820191906000526020600020905b815481529060010190602001808311611cb757829003601f168201915b50505050508152602001600682018054611ced90613fab565b80601f0160208091040260200160405190810160405280929190818152602001828054611d1990613fab565b8015611d665780601f10611d3b57610100808354040283529160200191611d66565b820191906000526020600020905b815481529060010190602001808311611d4957829003601f168201915b50505050508152602001600782018054611d7f90613fab565b80601f0160208091040260200160405190810160405280929190818152602001828054611dab90613fab565b8015611df85780601f10611dcd57610100808354040283529160200191611df8565b820191906000526020600020905b815481529060010190602001808311611ddb57829003601f168201915b5050509183525050600882015460209091019060ff166002811115611e1f57611e1f613a89565b6002811115611e3057611e30613a89565b9052506020830151604051919250906001600160a01b038216903480156108fc02916000818181858888f19350505050158015611e71573d6000803e3d6000fd5b5034836101200151611e839190614033565b6101208401526000848152600a602090815260409182902085518155818601516001820180546001600160a01b0319166001600160a01b03909216919091179055918501518051869392611ede9260028501929101906138d3565b5060608201518051611efa9160038401916020909101906138d3565b5060808201518051611f169160048401916020909101906138d3565b5060a0820151600582015560c0820151600682015560e0820151600782015561010082015160088201556101208201516009820155610140820151600a8201805460ff19166001836002811115611f6f57611f6f613a89565b02179055505083518351610120860151604080516001600160a01b0387168152602081019490945283019190915260608201527f87f33b8c6f7b23d3afb937ea5ec3f31873744d11bb1c0d14d40c3d50c7a1f664915060800160405180910390a150505050565b80600080828152600a60208190526040909120015460ff166002811115611fff57611fff613a89565b146120405760405162461bcd60e51b8152602060048201526011602482015270139bdd0818481858dd1a5d994810985b9d607a1b6044820152606401610866565b3360008181526007602052604081206008015460ff16600281111561206757612067613a89565b146120a25760405162461bcd60e51b815260206004820152601660248201526000805160206141998339815191526044820152606401610866565b600054600160a01b900460ff16156120f55760405162461bcd60e51b81526020600482015260166024820152754461707020686173206265656e2073746f707065642160501b6044820152606401610866565b6000838152600a602052604090206001015483906001600160a01b031633146121565760405162461bcd60e51b8152602060048201526013602482015272596f7520617265206e6f7420417574686f722160681b6044820152606401610866565b6000848152600a60205260409081902090517ff670bcb2dec244bf58dbd1f509b67af3cdf1916d2067fcb71fcb935c0c3566d3916121999187916002019061404b565b60405180910390a16000848152600a602052604081208181556001810180546001600160a01b0319169055906121d26002830182613953565b6121e0600383016000613953565b6121ee600483016000613953565b5060006005820181905560068201819055600782018190556008820181905560098201819055600a918201805460ff1990811690915586825260208390526040822090920180549092166002179091555b600085815260116020526040902054811015612292576000858152601160205260409020805482908110612275576122756140fc565b60009182526020822001558061228a81614018565b91505061223f565b5060008481526011602052604081206122aa91613990565b50505050565b60006009826040516122c29190614112565b9081526040519081900360200190205460ff161592915050565b600060608080838033816001600160a01b03821660009081526007602052604090206008015460ff16600281111561231657612316613a89565b146123515760405162461bcd60e51b815260206004820152601660248201526000805160206141998339815191526044820152606401610866565b87600080828152600a60208190526040909120015460ff16600281111561237a5761237a613a89565b146123bb5760405162461bcd60e51b8152602060048201526011602482015270139bdd0818481858dd1a5d994810985b9d607a1b6044820152606401610866565b6000898152600a602052604090206001810154600582015460068301546002840180546001600160a01b03909416949093600382019360049092019290859061240390613fab565b80601f016020809104026020016040519081016040528092919081815260200182805461242f90613fab565b801561247c5780601f106124515761010080835404028352916020019161247c565b820191906000526020600020905b81548152906001019060200180831161245f57829003601f168201915b5050505050945083805461248f90613fab565b80601f01602080910402602001604051908101604052809291908181526020018280546124bb90613fab565b80156125085780601f106124dd57610100808354040283529160200191612508565b820191906000526020600020905b8154815290600101906020018083116124eb57829003601f168201915b5050505050935082805461251b90613fab565b80601f016020809104026020016040519081016040528092919081815260200182805461254790613fab565b80156125945780601f1061256957610100808354040283529160200191612594565b820191906000526020600020905b81548152906001019060200180831161257757829003601f168201915b50505050509250975097509750975097509750505091939550919395565b600054600160a01b900460ff16156126055760405162461bcd60e51b81526020600482015260166024820152754461707020686173206265656e2073746f707065642160501b6044820152606401610866565b3360008181526007602052604081206008015460ff16600281111561262c5761262c613a89565b146126675760405162461bcd60e51b815260206004820152601660248201526000805160206141998339815191526044820152606401610866565b816009816040516126789190614112565b9081526040519081900360200190205460ff16156126d85760405162461bcd60e51b815260206004820152601660248201527f557365726e616d6520616c72656164792074616b656e000000000000000000006044820152606401610866565b33600090815260076020908152604090912084516122aa926003909201918601906138d3565b600054600160a01b900460ff16156127515760405162461bcd60e51b81526020600482015260166024820152754461707020686173206265656e2073746f707065642160501b6044820152606401610866565b80600080828152600f602052604090206006015460ff16600281111561277957612779613a89565b146127c65760405162461bcd60e51b815260206004820152601460248201527f4e6f7420612061637469766520636f6d6d656e740000000000000000000000006044820152606401610866565b3360008181526007602052604081206008015460ff1660028111156127ed576127ed613a89565b146128285760405162461bcd60e51b815260206004820152601660248201526000805160206141998339815191526044820152606401610866565b6000838152600f602052604090206001015483906001600160a01b031633146128895760405162461bcd60e51b8152602060048201526013602482015272596f7520617265206e6f7420417574686f722160681b6044820152606401610866565b6000848152600f602052604081208181556001810180546001600160a01b031916905560028101829055906128c16003830182613953565b50600060048201819055600582018190556006918201805460ff19908116909155958152600f60205260409020018054909416600217909355505050565b6000546001600160a01b0316331461294e5760405162461bcd60e51b8152602060048201526012602482015271596f7520617265206e6f74206f776e65722160701b6044820152606401610866565b600054600160a01b900460ff166129a75760405162461bcd60e51b815260206004820152600f60248201527f416c7265616479207374617274656400000000000000000000000000000000006044820152606401610866565b6000805460ff60a01b19169055565b3360008181526007602052604081206008015460ff1660028111156129dd576129dd613a89565b14612a185760405162461bcd60e51b815260206004820152601660248201526000805160206141998339815191526044820152606401610866565b81600080828152600a60208190526040909120015460ff166002811115612a4157612a41613a89565b14612a825760405162461bcd60e51b8152602060048201526011602482015270139bdd0818481858dd1a5d994810985b9d607a1b6044820152606401610866565b6000838152600e6020908152604080832033845290915290205460ff16612aa857600080fd5b6000838152600a6020526040902060060154612ac590600161385c565b6000848152600a6020908152604080832060060193909355600e81528282203380845290825291839020805460ff191690558251868152908101919091527f13c0152416d5d86e3b466e451e45b05d4fccfe34955f9f2771143301f46df5e991016109b9565b6000546001600160a01b03163314612b7a5760405162461bcd60e51b8152602060048201526012602482015271596f7520617265206e6f74206f776e65722160701b6044820152606401610866565b600080546001600160a01b0319166001600160a01b0392909216919091179055565b600054600160a01b900460ff1615612bef5760405162461bcd60e51b81526020600482015260166024820152754461707020686173206265656e2073746f707065642160501b6044820152606401610866565b3360008181526007602052604081206008015460ff166002811115612c1657612c16613a89565b14612c635760405162461bcd60e51b815260206004820152601760248201527f5573657220616c726561647920726567697374657265640000000000000000006044820152606401610866565b85600981604051612c749190614112565b9081526040519081900360200190205460ff1615612cd45760405162461bcd60e51b815260206004820152601660248201527f557365726e616d6520616c72656164792074616b656e000000000000000000006044820152606401610866565b6001600988604051612ce69190614112565b908152604051908190036020019020805491151560ff19909216919091179055600554612d149060016137f6565b6005819055604080516101208101825282815233602082015260609181018290528082018a90526080810189905260a0810188905260c0810187905260e081018690526101008101600090523360009081526007602090815260409182902083518155838201516001820180546001600160a01b0319166001600160a01b03909216919091179055918301518051612db292600285019201906139ae565b5060608201518051612dce9160038401916020909101906138d3565b5060808201518051612dea9160048401916020909101906138d3565b5060a08201518051612e069160058401916020909101906138d3565b5060c08201518051612e229160068401916020909101906138d3565b5060e08201518051612e3e9160078401916020909101906138d3565b5061010082015160088201805460ff19166001836002811115612e6357612e63613a89565b02179055509050503360088a604051612e7c9190614112565b908152604080516020928190038301812080546001600160a01b0319166001600160a01b039590951694909417909355600554338452918301919091527fabc58c36475157c4ac7669f9adfbb6f254d3a3578fb89676f6866ac3b9950eed910160405180910390a1505050505050505050565b600054600160a01b900460ff1615612f425760405162461bcd60e51b81526020600482015260166024820152754461707020686173206265656e2073746f707065642160501b6044820152606401610866565b3360008181526007602052604081206008015460ff166002811115612f6957612f69613a89565b14612fa45760405162461bcd60e51b815260206004820152601660248201526000805160206141998339815191526044820152606401610866565b82600080828152600f602052604090206006015460ff166002811115612fcc57612fcc613a89565b146130195760405162461bcd60e51b815260206004820152601460248201527f4e6f7420612061637469766520636f6d6d656e740000000000000000000000006044820152606401610866565b6000848152600f602052604090206001015484906001600160a01b0316331461307a5760405162461bcd60e51b8152602060048201526013602482015272596f7520617265206e6f7420417574686f722160681b6044820152606401610866565b6000858152600f60209081526040909120855161309f926003909201918701906138d3565b505050505050565b6000546001600160a01b031633146130f65760405162461bcd60e51b8152602060048201526012602482015271596f7520617265206e6f74206f776e65722160701b6044820152606401610866565b4781111561316b5760405162461bcd60e51b8152602060048201526024808201527f576974686472617720616d6f756e742067726561746572207468616e2062616c60448201527f616e6365000000000000000000000000000000000000000000000000000000006064820152608401610866565b604051339082156108fc029083906000818181858888f19350505050158015613198573d6000803e3d6000fd5b5050565b3360008181526007602052604081206008015460ff1660028111156131c3576131c3613a89565b146131fe5760405162461bcd60e51b815260206004820152601660248201526000805160206141998339815191526044820152606401610866565b81600080828152600a60208190526040909120015460ff16600281111561322757613227613a89565b146132685760405162461bcd60e51b8152602060048201526011602482015270139bdd0818481858dd1a5d994810985b9d607a1b6044820152606401610866565b6000838152600e6020908152604080832033845290915290205460ff161561328f57600080fd5b6000838152600a60205260409020600601546132ac9060016137f6565b6000848152600a6020908152604080832060060193909355600e81528282203380845290825291839020805460ff191660011790558251868152908101919091527f13ee249cb5fc790394054ccd4d13c57db8565a8999913e7a637e1b1d1256c69c91016109b9565b600054600160a01b900460ff16156133685760405162461bcd60e51b81526020600482015260166024820152754461707020686173206265656e2073746f707065642160501b6044820152606401610866565b83600080828152600a60208190526040909120015460ff16600281111561339157613391613a89565b146133d25760405162461bcd60e51b8152602060048201526011602482015270139bdd0818481858dd1a5d994810985b9d607a1b6044820152606401610866565b3360008181526007602052604081206008015460ff1660028111156133f9576133f9613a89565b146134345760405162461bcd60e51b815260206004820152601660248201526000805160206141998339815191526044820152606401610866565b6000868152600a602052604090206001015486906001600160a01b031633146134955760405162461bcd60e51b8152602060048201526013602482015272596f7520617265206e6f7420417574686f722160681b6044820152606401610866565b6000878152600a6020908152604090912087516134ba926002909201918901906138d3565b506000878152600a6020908152604090912086516134e0926003909201918801906138d3565b506000878152600a602090815260409091208551613506926004909201918701906138d3565b506040518781527f0561a8b8edddeeab34482799ca642511309607378eb55cdba66deb06f06b507f9060200160405180910390a150505050505050565b600054600160a01b900460ff16156135965760405162461bcd60e51b81526020600482015260166024820152754461707020686173206265656e2073746f707065642160501b6044820152606401610866565b3360008181526007602052604081206008015460ff1660028111156135bd576135bd613a89565b146135f85760405162461bcd60e51b815260206004820152601660248201526000805160206141998339815191526044820152606401610866565b6003546136069060016137f6565b6003819055835161361657600080fd5b6001805490600061362683614018565b9190505550604051806101600160405280828152602001336001600160a01b03168152602001868152602001858152602001848152602001428152602001600081526020016000815260200160008152602001600081526020016000600281111561369357613693613a89565b90526000828152600a602090815260409182902083518155838201516001820180546001600160a01b0319166001600160a01b039092169190911790559183015180516136e692600285019201906138d3565b50606082015180516137029160038401916020909101906138d3565b506080820151805161371e9160048401916020909101906138d3565b5060a0820151600582015560c0820151600682015560e0820151600782015561010082015160088201556101208201516009820155610140820151600a8201805460ff1916600183600281111561377757613777613a89565b021790555050336000818152600b6020908152604080832060038054825460018101845592865284862090920191909155848452600790925280832054915490517fb1091a9f12f52e907000cb53318811bfa085f61b7649ec6645fa85b611eb839595506137e794938b9161412e565b60405180910390a15050505050565b6000806138038385614033565b9050838110156138555760405162461bcd60e51b815260206004820152601b60248201527f536166654d6174683a206164646974696f6e206f766572666c6f7700000000006044820152606401610866565b9392505050565b600061385583836040518060400160405280601e81526020017f536166654d6174683a207375627472616374696f6e206f766572666c6f770000815250600081848411156138bd5760405162461bcd60e51b8152600401610866919061416e565b5060006138ca8486614181565b95945050505050565b8280546138df90613fab565b90600052602060002090601f0160209004810192826139015760008555613947565b82601f1061391a57805160ff1916838001178555613947565b82800160010185558215613947579182015b8281111561394757825182559160200191906001019061392c565b5061181f929150613a03565b50805461395f90613fab565b6000825580601f1061396f575050565b601f01602090049060005260206000209081019061398d9190613a03565b50565b508054600082559060005260206000209081019061398d9190613a03565b828054828255906000526020600020908101928215613947579160200282015b8281111561394757825182546001600160a01b0319166001600160a01b039091161782556020909201916001909101906139ce565b5b8082111561181f5760008155600101613a04565b600060208284031215613a2a57600080fd5b5035919050565b60005b83811015613a4c578181015183820152602001613a34565b838111156122aa5750506000910152565b60008151808452613a75816020860160208601613a31565b601f01601f19169290920160200192915050565b634e487b7160e01b600052602160045260246000fd5b6003811061398d57634e487b7160e01b600052602160045260246000fd5b6001600160a01b038716815285602082015260c060408201526000613ae560c0830187613a5d565b9050846060830152836080830152613afc83613a9f565b8260a0830152979650505050505050565b6001600160a01b038116811461398d57600080fd5b600060208284031215613b3457600080fd5b813561385581613b0d565b60208101613b4c83613a9f565b91905290565b6020808252825182820181905260009190848201906040850190845b81811015613b8a57835183529284019291840191600101613b6e565b50909695505050505050565b634e487b7160e01b600052604160045260246000fd5b600082601f830112613bbd57600080fd5b813567ffffffffffffffff80821115613bd857613bd8613b96565b604051601f8301601f19908116603f01168101908282118183101715613c0057613c00613b96565b81604052838152866020858801011115613c1957600080fd5b836020870160208301376000602085830101528094505050505092915050565b60008060408385031215613c4c57600080fd5b82359150602083013567ffffffffffffffff811115613c6a57600080fd5b613c7685828601613bac565b9150509250929050565b60008060408385031215613c9357600080fd5b823591506020830135613ca581613b0d565b809150509250929050565b86815260c060208201526000613cc960c0830188613a5d565b8281036040840152613cdb8188613a5d565b90508281036060840152613cef8187613a5d565b90508281036080840152613d038186613a5d565b905082810360a0840152613d178185613a5d565b9998505050505050505050565b600060208284031215613d3657600080fd5b813567ffffffffffffffff811115613d4d57600080fd5b613d5984828501613bac565b949350505050565b6001600160a01b038716815260c060208201526000613d8360c0830188613a5d565b8281036040840152613d958188613a5d565b90508281036060840152613da98187613a5d565b6080840195909552505060a00152949350505050565b600080600080600060a08688031215613dd757600080fd5b853567ffffffffffffffff80821115613def57600080fd5b613dfb89838a01613bac565b96506020880135915080821115613e1157600080fd5b613e1d89838a01613bac565b95506040880135915080821115613e3357600080fd5b613e3f89838a01613bac565b94506060880135915080821115613e5557600080fd5b613e6189838a01613bac565b93506080880135915080821115613e7757600080fd5b50613e8488828901613bac565b9150509295509295909350565b60008060008060808587031215613ea757600080fd5b84359350602085013567ffffffffffffffff80821115613ec657600080fd5b613ed288838901613bac565b94506040870135915080821115613ee857600080fd5b613ef488838901613bac565b93506060870135915080821115613f0a57600080fd5b50613f1787828801613bac565b91505092959194509250565b600080600060608486031215613f3857600080fd5b833567ffffffffffffffff80821115613f5057600080fd5b613f5c87838801613bac565b94506020860135915080821115613f7257600080fd5b613f7e87838801613bac565b93506040860135915080821115613f9457600080fd5b50613fa186828701613bac565b9150509250925092565b600181811c90821680613fbf57607f821691505b60208210811415610d3757634e487b7160e01b600052602260045260246000fd5b6001600160a01b0383168152604060208201526000613d596040830184613a5d565b634e487b7160e01b600052601160045260246000fd5b600060001982141561402c5761402c614002565b5060010190565b6000821982111561404657614046614002565b500190565b828152600060206040818401526000845481600182811c91508083168061407357607f831692505b85831081141561409157634e487b7160e01b85526022600452602485fd5b60408801839052606088018180156140b057600181146140c1576140ec565b60ff198616825287820196506140ec565b60008b81526020902060005b868110156140e6578154848201529085019089016140cd565b83019750505b50949a9950505050505050505050565b634e487b7160e01b600052603260045260246000fd5b60008251614124818460208701613a31565b9190910192915050565b6001600160a01b038616815284602082015283604082015260a06060820152600061415c60a0830185613a5d565b90508260808301529695505050505050565b6020815260006138556020830184613a5d565b60008282101561419357614193614002565b50039056fe4e6f742061205265676973746572656420557365722100000000000000000000a26469706673582212206594acb6df31dc329a97035130b98f83d6d7813eb370f5fe5961110dea7227e864736f6c63430008080033",
  "linkReferences": {},
  "deployedLinkReferences": {}
}